{
  "_format": "hh-sol-artifact-1",
  "contractName": "MagiaUnits",
  "sourceName": "contracts/other/MagiaUnits.sol",
  "abi": [
    {
      "anonymous": false,
      "inputs": [
        {
          "indexed": true,
          "internalType": "address",
          "name": "owner",
          "type": "address"
        },
        {
          "indexed": true,
          "internalType": "address",
          "name": "approved",
          "type": "address"
        },
        {
          "indexed": true,
          "internalType": "uint256",
          "name": "tokenId",
          "type": "uint256"
        }
      ],
      "name": "Approval",
      "type": "event"
    },
    {
      "anonymous": false,
      "inputs": [
        {
          "indexed": true,
          "internalType": "address",
          "name": "owner",
          "type": "address"
        },
        {
          "indexed": true,
          "internalType": "address",
          "name": "operator",
          "type": "address"
        },
        {
          "indexed": false,
          "internalType": "bool",
          "name": "approved",
          "type": "bool"
        }
      ],
      "name": "ApprovalForAll",
      "type": "event"
    },
    {
      "anonymous": false,
      "inputs": [
        {
          "indexed": false,
          "internalType": "uint8",
          "name": "version",
          "type": "uint8"
        }
      ],
      "name": "Initialized",
      "type": "event"
    },
    {
      "anonymous": false,
      "inputs": [
        {
          "indexed": true,
          "internalType": "address",
          "name": "previousOwner",
          "type": "address"
        },
        {
          "indexed": true,
          "internalType": "address",
          "name": "newOwner",
          "type": "address"
        }
      ],
      "name": "OwnershipTransferred",
      "type": "event"
    },
    {
      "anonymous": false,
      "inputs": [
        {
          "indexed": true,
          "internalType": "address",
          "name": "from",
          "type": "address"
        },
        {
          "indexed": true,
          "internalType": "address",
          "name": "to",
          "type": "address"
        },
        {
          "indexed": true,
          "internalType": "uint256",
          "name": "tokenId",
          "type": "uint256"
        }
      ],
      "name": "Transfer",
      "type": "event"
    },
    {
      "inputs": [
        {
          "internalType": "uint256",
          "name": "_unitTypeId",
          "type": "uint256"
        },
        {
          "components": [
            {
              "internalType": "uint256",
              "name": "attack",
              "type": "uint256"
            },
            {
              "internalType": "uint256",
              "name": "defense",
              "type": "uint256"
            },
            {
              "internalType": "uint256",
              "name": "range",
              "type": "uint256"
            },
            {
              "internalType": "uint256",
              "name": "health",
              "type": "uint256"
            },
            {
              "internalType": "uint256",
              "name": "craftedFrom",
              "type": "uint256"
            },
            {
              "internalType": "uint256",
              "name": "craftTime",
              "type": "uint256"
            },
            {
              "internalType": "uint256[3]",
              "name": "cost",
              "type": "uint256[3]"
            },
            {
              "internalType": "string",
              "name": "name",
              "type": "string"
            }
          ],
          "internalType": "struct MagiaUnits.UnitType",
          "name": "_unitType",
          "type": "tuple"
        }
      ],
      "name": "addUnitType",
      "outputs": [],
      "stateMutability": "nonpayable",
      "type": "function"
    },
    {
      "inputs": [
        {
          "internalType": "address",
          "name": "to",
          "type": "address"
        },
        {
          "internalType": "uint256",
          "name": "tokenId",
          "type": "uint256"
        }
      ],
      "name": "approve",
      "outputs": [],
      "stateMutability": "nonpayable",
      "type": "function"
    },
    {
      "inputs": [
        {
          "internalType": "address",
          "name": "owner",
          "type": "address"
        }
      ],
      "name": "balanceOf",
      "outputs": [
        {
          "internalType": "uint256",
          "name": "",
          "type": "uint256"
        }
      ],
      "stateMutability": "view",
      "type": "function"
    },
    {
      "inputs": [
        {
          "internalType": "uint256",
          "name": "_tokenId",
          "type": "uint256"
        },
        {
          "internalType": "uint256",
          "name": "_amount",
          "type": "uint256"
        }
      ],
      "name": "decreaseDefense",
      "outputs": [],
      "stateMutability": "nonpayable",
      "type": "function"
    },
    {
      "inputs": [
        {
          "internalType": "uint256",
          "name": "_tokenId",
          "type": "uint256"
        },
        {
          "internalType": "uint256",
          "name": "_amount",
          "type": "uint256"
        }
      ],
      "name": "decreaseHealth",
      "outputs": [],
      "stateMutability": "nonpayable",
      "type": "function"
    },
    {
      "inputs": [],
      "name": "gameDiamond",
      "outputs": [
        {
          "internalType": "address",
          "name": "",
          "type": "address"
        }
      ],
      "stateMutability": "view",
      "type": "function"
    },
    {
      "inputs": [
        {
          "internalType": "uint256",
          "name": "tokenId",
          "type": "uint256"
        }
      ],
      "name": "getApproved",
      "outputs": [
        {
          "internalType": "address",
          "name": "",
          "type": "address"
        }
      ],
      "stateMutability": "view",
      "type": "function"
    },
    {
      "inputs": [
        {
          "internalType": "uint256",
          "name": "_tokenId",
          "type": "uint256"
        }
      ],
      "name": "getAttack",
      "outputs": [
        {
          "internalType": "uint256",
          "name": "",
          "type": "uint256"
        }
      ],
      "stateMutability": "view",
      "type": "function"
    },
    {
      "inputs": [
        {
          "internalType": "uint256[]",
          "name": "_tokenIds",
          "type": "uint256[]"
        }
      ],
      "name": "getBatchUnitsType",
      "outputs": [
        {
          "components": [
            {
              "internalType": "uint256",
              "name": "attack",
              "type": "uint256"
            },
            {
              "internalType": "uint256",
              "name": "defense",
              "type": "uint256"
            },
            {
              "internalType": "uint256",
              "name": "range",
              "type": "uint256"
            },
            {
              "internalType": "uint256",
              "name": "health",
              "type": "uint256"
            },
            {
              "internalType": "uint256",
              "name": "unitType",
              "type": "uint256"
            },
            {
              "internalType": "string",
              "name": "name",
              "type": "string"
            }
          ],
          "internalType": "struct MagiaUnits.Unit[500]",
          "name": "batch_",
          "type": "tuple[500]"
        }
      ],
      "stateMutability": "view",
      "type": "function"
    },
    {
      "inputs": [
        {
          "internalType": "uint256",
          "name": "_unitTypeId",
          "type": "uint256"
        }
      ],
      "name": "getCost",
      "outputs": [
        {
          "internalType": "uint256[3]",
          "name": "",
          "type": "uint256[3]"
        }
      ],
      "stateMutability": "view",
      "type": "function"
    },
    {
      "inputs": [
        {
          "internalType": "uint256",
          "name": "_unitTypeId",
          "type": "uint256"
        }
      ],
      "name": "getCraftTime",
      "outputs": [
        {
          "internalType": "uint256",
          "name": "",
          "type": "uint256"
        }
      ],
      "stateMutability": "view",
      "type": "function"
    },
    {
      "inputs": [
        {
          "internalType": "uint256",
          "name": "_unitTypeId",
          "type": "uint256"
        }
      ],
      "name": "getCraftedFrom",
      "outputs": [
        {
          "internalType": "uint256",
          "name": "",
          "type": "uint256"
        }
      ],
      "stateMutability": "view",
      "type": "function"
    },
    {
      "inputs": [
        {
          "internalType": "uint256",
          "name": "_tokenId",
          "type": "uint256"
        }
      ],
      "name": "getDefense",
      "outputs": [
        {
          "internalType": "uint256",
          "name": "",
          "type": "uint256"
        }
      ],
      "stateMutability": "view",
      "type": "function"
    },
    {
      "inputs": [
        {
          "internalType": "uint256",
          "name": "_tokenId",
          "type": "uint256"
        }
      ],
      "name": "getHealth",
      "outputs": [
        {
          "internalType": "uint256",
          "name": "",
          "type": "uint256"
        }
      ],
      "stateMutability": "view",
      "type": "function"
    },
    {
      "inputs": [
        {
          "internalType": "uint256",
          "name": "_tokenId",
          "type": "uint256"
        }
      ],
      "name": "getRange",
      "outputs": [
        {
          "internalType": "uint256",
          "name": "",
          "type": "uint256"
        }
      ],
      "stateMutability": "view",
      "type": "function"
    },
    {
      "inputs": [
        {
          "internalType": "uint256",
          "name": "_tokenId",
          "type": "uint256"
        }
      ],
      "name": "getUnit",
      "outputs": [
        {
          "components": [
            {
              "internalType": "uint256",
              "name": "attack",
              "type": "uint256"
            },
            {
              "internalType": "uint256",
              "name": "defense",
              "type": "uint256"
            },
            {
              "internalType": "uint256",
              "name": "range",
              "type": "uint256"
            },
            {
              "internalType": "uint256",
              "name": "health",
              "type": "uint256"
            },
            {
              "internalType": "uint256",
              "name": "unitType",
              "type": "uint256"
            },
            {
              "internalType": "string",
              "name": "name",
              "type": "string"
            }
          ],
          "internalType": "struct MagiaUnits.Unit",
          "name": "",
          "type": "tuple"
        }
      ],
      "stateMutability": "view",
      "type": "function"
    },
    {
      "inputs": [
        {
          "internalType": "uint256",
          "name": "_unitTypeId",
          "type": "uint256"
        }
      ],
      "name": "getUnitType",
      "outputs": [
        {
          "components": [
            {
              "internalType": "uint256",
              "name": "attack",
              "type": "uint256"
            },
            {
              "internalType": "uint256",
              "name": "defense",
              "type": "uint256"
            },
            {
              "internalType": "uint256",
              "name": "range",
              "type": "uint256"
            },
            {
              "internalType": "uint256",
              "name": "health",
              "type": "uint256"
            },
            {
              "internalType": "uint256",
              "name": "craftedFrom",
              "type": "uint256"
            },
            {
              "internalType": "uint256",
              "name": "craftTime",
              "type": "uint256"
            },
            {
              "internalType": "uint256[3]",
              "name": "cost",
              "type": "uint256[3]"
            },
            {
              "internalType": "string",
              "name": "name",
              "type": "string"
            }
          ],
          "internalType": "struct MagiaUnits.UnitType",
          "name": "",
          "type": "tuple"
        }
      ],
      "stateMutability": "view",
      "type": "function"
    },
    {
      "inputs": [
        {
          "internalType": "uint256",
          "name": "_tokenId",
          "type": "uint256"
        }
      ],
      "name": "getUnitTypeId",
      "outputs": [
        {
          "internalType": "uint256",
          "name": "",
          "type": "uint256"
        }
      ],
      "stateMutability": "view",
      "type": "function"
    },
    {
      "inputs": [],
      "name": "gold",
      "outputs": [
        {
          "internalType": "address",
          "name": "",
          "type": "address"
        }
      ],
      "stateMutability": "view",
      "type": "function"
    },
    {
      "inputs": [
        {
          "internalType": "uint256",
          "name": "_tokenId",
          "type": "uint256"
        },
        {
          "internalType": "uint256",
          "name": "_amount",
          "type": "uint256"
        }
      ],
      "name": "increaseAttack",
      "outputs": [],
      "stateMutability": "nonpayable",
      "type": "function"
    },
    {
      "inputs": [
        {
          "internalType": "uint256",
          "name": "_tokenId",
          "type": "uint256"
        },
        {
          "internalType": "uint256",
          "name": "_amount",
          "type": "uint256"
        }
      ],
      "name": "increaseDefense",
      "outputs": [],
      "stateMutability": "nonpayable",
      "type": "function"
    },
    {
      "inputs": [
        {
          "internalType": "uint256",
          "name": "_tokenId",
          "type": "uint256"
        },
        {
          "internalType": "uint256",
          "name": "_amount",
          "type": "uint256"
        }
      ],
      "name": "increaseHealth",
      "outputs": [],
      "stateMutability": "nonpayable",
      "type": "function"
    },
    {
      "inputs": [
        {
          "internalType": "address",
          "name": "_gameDiamond",
          "type": "address"
        },
        {
          "internalType": "address",
          "name": "_gold",
          "type": "address"
        },
        {
          "internalType": "address",
          "name": "_lumber",
          "type": "address"
        },
        {
          "internalType": "address",
          "name": "_mana",
          "type": "address"
        }
      ],
      "name": "initialize",
      "outputs": [],
      "stateMutability": "nonpayable",
      "type": "function"
    },
    {
      "inputs": [
        {
          "internalType": "address",
          "name": "owner",
          "type": "address"
        },
        {
          "internalType": "address",
          "name": "operator",
          "type": "address"
        }
      ],
      "name": "isApprovedForAll",
      "outputs": [
        {
          "internalType": "bool",
          "name": "",
          "type": "bool"
        }
      ],
      "stateMutability": "view",
      "type": "function"
    },
    {
      "inputs": [],
      "name": "lumber",
      "outputs": [
        {
          "internalType": "address",
          "name": "",
          "type": "address"
        }
      ],
      "stateMutability": "view",
      "type": "function"
    },
    {
      "inputs": [],
      "name": "mana",
      "outputs": [
        {
          "internalType": "address",
          "name": "",
          "type": "address"
        }
      ],
      "stateMutability": "view",
      "type": "function"
    },
    {
      "inputs": [
        {
          "internalType": "address",
          "name": "_account",
          "type": "address"
        },
        {
          "internalType": "uint256",
          "name": "_unitTypeId",
          "type": "uint256"
        }
      ],
      "name": "mint",
      "outputs": [],
      "stateMutability": "nonpayable",
      "type": "function"
    },
    {
      "inputs": [],
      "name": "name",
      "outputs": [
        {
          "internalType": "string",
          "name": "",
          "type": "string"
        }
      ],
      "stateMutability": "view",
      "type": "function"
    },
    {
      "inputs": [],
      "name": "owner",
      "outputs": [
        {
          "internalType": "address",
          "name": "",
          "type": "address"
        }
      ],
      "stateMutability": "view",
      "type": "function"
    },
    {
      "inputs": [
        {
          "internalType": "uint256",
          "name": "tokenId",
          "type": "uint256"
        }
      ],
      "name": "ownerOf",
      "outputs": [
        {
          "internalType": "address",
          "name": "",
          "type": "address"
        }
      ],
      "stateMutability": "view",
      "type": "function"
    },
    {
      "inputs": [],
      "name": "renounceOwnership",
      "outputs": [],
      "stateMutability": "nonpayable",
      "type": "function"
    },
    {
      "inputs": [
        {
          "internalType": "address",
          "name": "from",
          "type": "address"
        },
        {
          "internalType": "address",
          "name": "to",
          "type": "address"
        },
        {
          "internalType": "uint256",
          "name": "tokenId",
          "type": "uint256"
        }
      ],
      "name": "safeTransferFrom",
      "outputs": [],
      "stateMutability": "nonpayable",
      "type": "function"
    },
    {
      "inputs": [
        {
          "internalType": "address",
          "name": "from",
          "type": "address"
        },
        {
          "internalType": "address",
          "name": "to",
          "type": "address"
        },
        {
          "internalType": "uint256",
          "name": "tokenId",
          "type": "uint256"
        },
        {
          "internalType": "bytes",
          "name": "_data",
          "type": "bytes"
        }
      ],
      "name": "safeTransferFrom",
      "outputs": [],
      "stateMutability": "nonpayable",
      "type": "function"
    },
    {
      "inputs": [
        {
          "internalType": "address",
          "name": "_gameDiamond",
          "type": "address"
        },
        {
          "internalType": "address",
          "name": "_gold",
          "type": "address"
        },
        {
          "internalType": "address",
          "name": "_lumber",
          "type": "address"
        },
        {
          "internalType": "address",
          "name": "_mana",
          "type": "address"
        }
      ],
      "name": "setAddresses",
      "outputs": [],
      "stateMutability": "nonpayable",
      "type": "function"
    },
    {
      "inputs": [
        {
          "internalType": "address",
          "name": "operator",
          "type": "address"
        },
        {
          "internalType": "bool",
          "name": "approved",
          "type": "bool"
        }
      ],
      "name": "setApprovalForAll",
      "outputs": [],
      "stateMutability": "nonpayable",
      "type": "function"
    },
    {
      "inputs": [
        {
          "internalType": "bytes4",
          "name": "interfaceId",
          "type": "bytes4"
        }
      ],
      "name": "supportsInterface",
      "outputs": [
        {
          "internalType": "bool",
          "name": "",
          "type": "bool"
        }
      ],
      "stateMutability": "view",
      "type": "function"
    },
    {
      "inputs": [],
      "name": "symbol",
      "outputs": [
        {
          "internalType": "string",
          "name": "",
          "type": "string"
        }
      ],
      "stateMutability": "view",
      "type": "function"
    },
    {
      "inputs": [
        {
          "internalType": "uint256",
          "name": "index",
          "type": "uint256"
        }
      ],
      "name": "tokenByIndex",
      "outputs": [
        {
          "internalType": "uint256",
          "name": "",
          "type": "uint256"
        }
      ],
      "stateMutability": "view",
      "type": "function"
    },
    {
      "inputs": [
        {
          "internalType": "address",
          "name": "owner",
          "type": "address"
        },
        {
          "internalType": "uint256",
          "name": "index",
          "type": "uint256"
        }
      ],
      "name": "tokenOfOwnerByIndex",
      "outputs": [
        {
          "internalType": "uint256",
          "name": "",
          "type": "uint256"
        }
      ],
      "stateMutability": "view",
      "type": "function"
    },
    {
      "inputs": [
        {
          "internalType": "uint256",
          "name": "tokenId",
          "type": "uint256"
        }
      ],
      "name": "tokenURI",
      "outputs": [
        {
          "internalType": "string",
          "name": "",
          "type": "string"
        }
      ],
      "stateMutability": "view",
      "type": "function"
    },
    {
      "inputs": [],
      "name": "totalSupply",
      "outputs": [
        {
          "internalType": "uint256",
          "name": "",
          "type": "uint256"
        }
      ],
      "stateMutability": "view",
      "type": "function"
    },
    {
      "inputs": [
        {
          "internalType": "address",
          "name": "from",
          "type": "address"
        },
        {
          "internalType": "address",
          "name": "to",
          "type": "address"
        },
        {
          "internalType": "uint256",
          "name": "tokenId",
          "type": "uint256"
        }
      ],
      "name": "transferFrom",
      "outputs": [],
      "stateMutability": "nonpayable",
      "type": "function"
    },
    {
      "inputs": [
        {
          "internalType": "address",
          "name": "newOwner",
          "type": "address"
        }
      ],
      "name": "transferOwnership",
      "outputs": [],
      "stateMutability": "nonpayable",
      "type": "function"
    },
    {
      "inputs": [
        {
          "internalType": "uint256",
          "name": "",
          "type": "uint256"
        }
      ],
      "name": "unitTypes",
      "outputs": [
        {
          "internalType": "uint256",
          "name": "attack",
          "type": "uint256"
        },
        {
          "internalType": "uint256",
          "name": "defense",
          "type": "uint256"
        },
        {
          "internalType": "uint256",
          "name": "range",
          "type": "uint256"
        },
        {
          "internalType": "uint256",
          "name": "health",
          "type": "uint256"
        },
        {
          "internalType": "uint256",
          "name": "craftedFrom",
          "type": "uint256"
        },
        {
          "internalType": "uint256",
          "name": "craftTime",
          "type": "uint256"
        },
        {
          "internalType": "string",
          "name": "name",
          "type": "string"
        }
      ],
      "stateMutability": "view",
      "type": "function"
    },
    {
      "inputs": [
        {
          "internalType": "uint256",
          "name": "",
          "type": "uint256"
        }
      ],
      "name": "units",
      "outputs": [
        {
          "internalType": "uint256",
          "name": "attack",
          "type": "uint256"
        },
        {
          "internalType": "uint256",
          "name": "defense",
          "type": "uint256"
        },
        {
          "internalType": "uint256",
          "name": "range",
          "type": "uint256"
        },
        {
          "internalType": "uint256",
          "name": "health",
          "type": "uint256"
        },
        {
          "internalType": "uint256",
          "name": "unitType",
          "type": "uint256"
        },
        {
          "internalType": "string",
          "name": "name",
          "type": "string"
        }
      ],
      "stateMutability": "view",
      "type": "function"
    }
  ],
  "bytecode": "0x608060405234801561001057600080fd5b50615b6b80620000216000396000f3fe608060405234801561001057600080fd5b506004361061027f5760003560e01c806370a082311161015c578063c56234a4116100ce578063e985e9c511610087578063e985e9c514610849578063eb22daa314610879578063f2fde38b146108a9578063f7c0d44f146108c5578063f8c8765e146108e3578063fbec6f21146108ff5761027f565b8063c56234a41461074c578063c68d608614610768578063c87b56dd14610784578063cc364f48146107b4578063cff840f0146107e4578063e5fba6cc146108145761027f565b806395d89b411161012057806395d89b41146106a0578063a22cb465146106be578063a7518eb1146106da578063b88d4fde146106f6578063bb183fb414610712578063bdb001a71461072e5761027f565b806370a0823114610610578063715018a614610640578063802991321461064a578063846018c3146106665780638da5cb5b146106825761027f565b80632f745c59116101f557806342842e0e116101b957806342842e0e146105185780634a945f8d146105345780634f6ccce7146105505780635a4dd47d146105805780636352211e146105b05780636911182d146105e05761027f565b80632f745c5914610436578063350fb5c3146104665780633fc70f2c1461049c57806340c10f19146104cc57806340c66bb5146104e85761027f565b80631655bfbe116102475780631655bfbe1461034e57806318160ddd1461037e57806323b872dd1461039c578063278e2f68146103b85780632ab82d6c146103e85780632bf8e26c146104065761027f565b806301ffc9a71461028457806306fdde03146102b4578063081812fc146102d2578063095ea7b31461030257806316358bdf1461031e575b600080fd5b61029e600480360381019061029991906139bc565b61091d565b6040516102ab9190613a04565b60405180910390f35b6102bc610997565b6040516102c99190613ab8565b60405180910390f35b6102ec60048036038101906102e79190613b10565b610a29565b6040516102f99190613b7e565b60405180910390f35b61031c60048036038101906103179190613bc5565b610aae565b005b61033860048036038101906103339190613b10565b610bc5565b6040516103459190613c14565b60405180910390f35b61036860048036038101906103639190613b10565b610be6565b6040516103759190613d11565b60405180910390f35b610386610cd7565b6040516103939190613c14565b60405180910390f35b6103b660048036038101906103b19190613d33565b610ce4565b005b6103d260048036038101906103cd9190613b10565b610d44565b6040516103df9190613c14565b60405180910390f35b6103f0610d65565b6040516103fd9190613b7e565b60405180910390f35b610420600480360381019061041b9190613deb565b610d8b565b60405161042d9190613f78565b60405180910390f35b610450600480360381019061044b9190613bc5565b610ed2565b60405161045d9190613c14565b60405180910390f35b610480600480360381019061047b9190613b10565b610f77565b6040516104939796959493929190613f9a565b60405180910390f35b6104b660048036038101906104b19190613b10565b611042565b6040516104c39190613c14565b60405180910390f35b6104e660048036038101906104e19190613bc5565b611062565b005b61050260048036038101906104fd9190613b10565b6112ac565b60405161050f919061415d565b60405180910390f35b610532600480360381019061052d9190613d33565b6113ee565b005b61054e6004803603810190610549919061417f565b61140e565b005b61056a60048036038101906105659190613b10565b611594565b6040516105779190613c14565b60405180910390f35b61059a60048036038101906105959190613b10565b611605565b6040516105a79190614248565b60405180910390f35b6105ca60048036038101906105c59190613b10565b611667565b6040516105d79190613b7e565b60405180910390f35b6105fa60048036038101906105f59190613b10565b611718565b6040516106079190613c14565b60405180910390f35b61062a60048036038101906106259190614263565b611738565b6040516106379190613c14565b60405180910390f35b6106486117ef565b005b610664600480360381019061065f9190614290565b611877565b005b610680600480360381019061067b9190614290565b611938565b005b61068a6119f9565b6040516106979190613b7e565b60405180910390f35b6106a8611a23565b6040516106b59190613ab8565b60405180910390f35b6106d860048036038101906106d391906142fc565b611ab5565b005b6106f460048036038101906106ef9190614290565b611acb565b005b610710600480360381019061070b919061446c565b611b8c565b005b61072c60048036038101906107279190614290565b611bee565b005b610736611caf565b6040516107439190613b7e565b60405180910390f35b61076660048036038101906107619190614290565b611cd5565b005b610782600480360381019061077d9190614514565b611d96565b005b61079e60048036038101906107999190613b10565b611e3a565b6040516107ab9190613ab8565b60405180910390f35b6107ce60048036038101906107c99190613b10565b611ee1565b6040516107db9190613c14565b60405180910390f35b6107fe60048036038101906107f99190613b10565b611f01565b60405161080b9190613c14565b60405180910390f35b61082e60048036038101906108299190613b10565b611f21565b60405161084096959493929190614570565b60405180910390f35b610863600480360381019061085e91906145d8565b611fe5565b6040516108709190613a04565b60405180910390f35b610893600480360381019061088e9190613b10565b612079565b6040516108a09190613c14565b60405180910390f35b6108c360048036038101906108be9190614263565b612099565b005b6108cd612190565b6040516108da9190613b7e565b60405180910390f35b6108fd60048036038101906108f8919061417f565b6121b6565b005b6109076123c6565b6040516109149190613b7e565b60405180910390f35b60007f780e9d63000000000000000000000000000000000000000000000000000000007bffffffffffffffffffffffffffffffffffffffffffffffffffffffff1916827bffffffffffffffffffffffffffffffffffffffffffffffffffffffff19161480610990575061098f826123ec565b5b9050919050565b6060606580546109a690614647565b80601f01602080910402602001604051908101604052809291908181526020018280546109d290614647565b8015610a1f5780601f106109f457610100808354040283529160200191610a1f565b820191906000526020600020905b815481529060010190602001808311610a0257829003601f168201915b5050505050905090565b6000610a34826124ce565b610a73576040517f08c379a0000000000000000000000000000000000000000000000000000000008152600401610a6a906146ea565b60405180910390fd5b6069600083815260200190815260200160002060009054906101000a900473ffffffffffffffffffffffffffffffffffffffff169050919050565b6000610ab982611667565b90508073ffffffffffffffffffffffffffffffffffffffff168373ffffffffffffffffffffffffffffffffffffffff1603610b29576040517f08c379a0000000000000000000000000000000000000000000000000000000008152600401610b209061477c565b60405180910390fd5b8073ffffffffffffffffffffffffffffffffffffffff16610b4861253a565b73ffffffffffffffffffffffffffffffffffffffff161480610b775750610b7681610b7161253a565b611fe5565b5b610bb6576040517f08c379a0000000000000000000000000000000000000000000000000000000008152600401610bad9061480e565b60405180910390fd5b610bc08383612542565b505050565b60006101006000838152602001908152602001600020600401549050919050565b610bee6137db565b60ff60008381526020019081526020016000206040518060c00160405290816000820154815260200160018201548152602001600282015481526020016003820154815260200160048201548152602001600582018054610c4e90614647565b80601f0160208091040260200160405190810160405280929190818152602001828054610c7a90614647565b8015610cc75780601f10610c9c57610100808354040283529160200191610cc7565b820191906000526020600020905b815481529060010190602001808311610caa57829003601f168201915b5050505050815250509050919050565b6000609980549050905090565b610cf5610cef61253a565b826125fb565b610d34576040517f08c379a0000000000000000000000000000000000000000000000000000000008152600401610d2b906148a0565b60405180910390fd5b610d3f8383836126d9565b505050565b60006101006000838152602001908152602001600020600501549050919050565b60fd60009054906101000a900473ffffffffffffffffffffffffffffffffffffffff1681565b610d93613811565b60005b83839050811015610ecb5760ff6000858584818110610db857610db76148c0565b5b9050602002013581526020019081526020016000206040518060c00160405290816000820154815260200160018201548152602001600282015481526020016003820154815260200160048201548152602001600582018054610e1a90614647565b80601f0160208091040260200160405190810160405280929190818152602001828054610e4690614647565b8015610e935780601f10610e6857610100808354040283529160200191610e93565b820191906000526020600020905b815481529060010190602001808311610e7657829003601f168201915b50505050508152505082826101f48110610eb057610eaf6148c0565b5b60200201819052508080610ec39061491e565b915050610d96565b5092915050565b6000610edd83611738565b8210610f1e576040517f08c379a0000000000000000000000000000000000000000000000000000000008152600401610f15906149d8565b60405180910390fd5b609760008473ffffffffffffffffffffffffffffffffffffffff1673ffffffffffffffffffffffffffffffffffffffff168152602001908152602001600020600083815260200190815260200160002054905092915050565b610100602052806000526040600020600091509050806000015490806001015490806002015490806003015490806004015490806005015490806009018054610fbf90614647565b80601f0160208091040260200160405190810160405280929190818152602001828054610feb90614647565b80156110385780601f1061100d57610100808354040283529160200191611038565b820191906000526020600020905b81548152906001019060200180831161101b57829003601f168201915b5050505050905087565b600060ff6000838152602001908152602001600020600301549050919050565b60fb60009054906101000a900473ffffffffffffffffffffffffffffffffffffffff1673ffffffffffffffffffffffffffffffffffffffff163373ffffffffffffffffffffffffffffffffffffffff16146110f2576040517f08c379a00000000000000000000000000000000000000000000000000000000081526004016110e990614a44565b60405180910390fd5b600060016110fe610cd7565b6111089190614a64565b905060006040518060c001604052806101006000868152602001908152602001600020600001548152602001610100600086815260200190815260200160002060010154815260200161010060008681526020019081526020016000206002015481526020016101006000868152602001908152602001600020600301548152602001848152602001610100600086815260200190815260200160002060090180546111b390614647565b80601f01602080910402602001604051908101604052809291908181526020018280546111df90614647565b801561122c5780601f106112015761010080835404028352916020019161122c565b820191906000526020600020905b81548152906001019060200180831161120f57829003601f168201915b505050505081525090508060ff6000848152602001908152602001600020600082015181600001556020820151816001015560408201518160020155606082015181600301556080820151816004015560a0820151816005019080519060200190611298929190613840565b509050506112a6848361293f565b50505050565b6112b46138c6565b6101006000838152602001908152602001600020604051806101000160405290816000820154815260200160018201548152602001600282015481526020016003820154815260200160048201548152602001600582015481526020016006820160038060200260405190810160405280929190826003801561134c576020028201915b815481526020019060010190808311611338575b5050505050815260200160098201805461136590614647565b80601f016020809104026020016040519081016040528092919081815260200182805461139190614647565b80156113de5780601f106113b3576101008083540402835291602001916113de565b820191906000526020600020905b8154815290600101906020018083116113c157829003601f168201915b5050505050815250509050919050565b61140983838360405180602001604052806000815250611b8c565b505050565b61141661253a565b73ffffffffffffffffffffffffffffffffffffffff166114346119f9565b73ffffffffffffffffffffffffffffffffffffffff161461148a576040517f08c379a000000000000000000000000000000000000000000000000000000000815260040161148190614b06565b60405180910390fd5b8360fb60006101000a81548173ffffffffffffffffffffffffffffffffffffffff021916908373ffffffffffffffffffffffffffffffffffffffff1602179055508260fc60006101000a81548173ffffffffffffffffffffffffffffffffffffffff021916908373ffffffffffffffffffffffffffffffffffffffff1602179055508160fd60006101000a81548173ffffffffffffffffffffffffffffffffffffffff021916908373ffffffffffffffffffffffffffffffffffffffff1602179055508060fe60006101000a81548173ffffffffffffffffffffffffffffffffffffffff021916908373ffffffffffffffffffffffffffffffffffffffff16021790555050505050565b600061159e610cd7565b82106115df576040517f08c379a00000000000000000000000000000000000000000000000000000000081526004016115d690614b98565b60405180910390fd5b609982815481106115f3576115f26148c0565b5b90600052602060002001549050919050565b61160d613911565b610100600083815260200190815260200160002060060160038060200260405190810160405280929190826003801561165b576020028201915b815481526020019060010190808311611647575b50505050509050919050565b6000806067600084815260200190815260200160002060009054906101000a900473ffffffffffffffffffffffffffffffffffffffff169050600073ffffffffffffffffffffffffffffffffffffffff168173ffffffffffffffffffffffffffffffffffffffff160361170f576040517f08c379a000000000000000000000000000000000000000000000000000000000815260040161170690614c2a565b60405180910390fd5b80915050919050565b600060ff6000838152602001908152602001600020600401549050919050565b60008073ffffffffffffffffffffffffffffffffffffffff168273ffffffffffffffffffffffffffffffffffffffff16036117a8576040517f08c379a000000000000000000000000000000000000000000000000000000000815260040161179f90614cbc565b60405180910390fd5b606860008373ffffffffffffffffffffffffffffffffffffffff1673ffffffffffffffffffffffffffffffffffffffff168152602001908152602001600020549050919050565b6117f761253a565b73ffffffffffffffffffffffffffffffffffffffff166118156119f9565b73ffffffffffffffffffffffffffffffffffffffff161461186b576040517f08c379a000000000000000000000000000000000000000000000000000000000815260040161186290614b06565b60405180910390fd5b6118756000612b18565b565b60fb60009054906101000a900473ffffffffffffffffffffffffffffffffffffffff1673ffffffffffffffffffffffffffffffffffffffff163373ffffffffffffffffffffffffffffffffffffffff1614611907576040517f08c379a00000000000000000000000000000000000000000000000000000000081526004016118fe90614a44565b60405180910390fd5b8060ff6000848152602001908152602001600020600101600082825461192d9190614cdc565b925050819055505050565b60fb60009054906101000a900473ffffffffffffffffffffffffffffffffffffffff1673ffffffffffffffffffffffffffffffffffffffff163373ffffffffffffffffffffffffffffffffffffffff16146119c8576040517f08c379a00000000000000000000000000000000000000000000000000000000081526004016119bf90614a44565b60405180910390fd5b8060ff600084815260200190815260200160002060030160008282546119ee9190614a64565b925050819055505050565b600060c960009054906101000a900473ffffffffffffffffffffffffffffffffffffffff16905090565b606060668054611a3290614647565b80601f0160208091040260200160405190810160405280929190818152602001828054611a5e90614647565b8015611aab5780601f10611a8057610100808354040283529160200191611aab565b820191906000526020600020905b815481529060010190602001808311611a8e57829003601f168201915b5050505050905090565b611ac7611ac061253a565b8383612bde565b5050565b60fb60009054906101000a900473ffffffffffffffffffffffffffffffffffffffff1673ffffffffffffffffffffffffffffffffffffffff163373ffffffffffffffffffffffffffffffffffffffff1614611b5b576040517f08c379a0000000000000000000000000000000000000000000000000000000008152600401611b5290614a44565b60405180910390fd5b8060ff60008481526020019081526020016000206003016000828254611b819190614cdc565b925050819055505050565b611b9d611b9761253a565b836125fb565b611bdc576040517f08c379a0000000000000000000000000000000000000000000000000000000008152600401611bd3906148a0565b60405180910390fd5b611be884848484612d4a565b50505050565b60fb60009054906101000a900473ffffffffffffffffffffffffffffffffffffffff1673ffffffffffffffffffffffffffffffffffffffff163373ffffffffffffffffffffffffffffffffffffffff1614611c7e576040517f08c379a0000000000000000000000000000000000000000000000000000000008152600401611c7590614a44565b60405180910390fd5b8060ff60008481526020019081526020016000206000016000828254611ca49190614a64565b925050819055505050565b60fe60009054906101000a900473ffffffffffffffffffffffffffffffffffffffff1681565b60fb60009054906101000a900473ffffffffffffffffffffffffffffffffffffffff1673ffffffffffffffffffffffffffffffffffffffff163373ffffffffffffffffffffffffffffffffffffffff1614611d65576040517f08c379a0000000000000000000000000000000000000000000000000000000008152600401611d5c90614a44565b60405180910390fd5b8060ff60008481526020019081526020016000206001016000828254611d8b9190614a64565b925050819055505050565b611d9e61253a565b73ffffffffffffffffffffffffffffffffffffffff16611dbc6119f9565b73ffffffffffffffffffffffffffffffffffffffff1614611e12576040517f08c379a0000000000000000000000000000000000000000000000000000000008152600401611e0990614b06565b60405180910390fd5b8061010060008481526020019081526020016000208181611e3391906152ed565b9050505050565b6060611e45826124ce565b611e84576040517f08c379a0000000000000000000000000000000000000000000000000000000008152600401611e7b9061536d565b60405180910390fd5b6000611e8e612da6565b90506000815111611eae5760405180602001604052806000815250611ed9565b80611eb884612dbd565b604051602001611ec99291906153c9565b6040516020818303038152906040525b915050919050565b600060ff6000838152602001908152602001600020600201549050919050565b600060ff6000838152602001908152602001600020600001549050919050565b60ff602052806000526040600020600091509050806000015490806001015490806002015490806003015490806004015490806005018054611f6290614647565b80601f0160208091040260200160405190810160405280929190818152602001828054611f8e90614647565b8015611fdb5780601f10611fb057610100808354040283529160200191611fdb565b820191906000526020600020905b815481529060010190602001808311611fbe57829003601f168201915b5050505050905086565b6000606a60008473ffffffffffffffffffffffffffffffffffffffff1673ffffffffffffffffffffffffffffffffffffffff16815260200190815260200160002060008373ffffffffffffffffffffffffffffffffffffffff1673ffffffffffffffffffffffffffffffffffffffff16815260200190815260200160002060009054906101000a900460ff16905092915050565b600060ff6000838152602001908152602001600020600101549050919050565b6120a161253a565b73ffffffffffffffffffffffffffffffffffffffff166120bf6119f9565b73ffffffffffffffffffffffffffffffffffffffff1614612115576040517f08c379a000000000000000000000000000000000000000000000000000000000815260040161210c90614b06565b60405180910390fd5b600073ffffffffffffffffffffffffffffffffffffffff168173ffffffffffffffffffffffffffffffffffffffff1603612184576040517f08c379a000000000000000000000000000000000000000000000000000000000815260040161217b9061545f565b60405180910390fd5b61218d81612b18565b50565b60fb60009054906101000a900473ffffffffffffffffffffffffffffffffffffffff1681565b60006121c26001612f1d565b905080156121e6576001600060016101000a81548160ff0219169083151502179055505b61225a6040518060400160405280600a81526020017f4d61676961556e697473000000000000000000000000000000000000000000008152506040518060400160405280600381526020017f4d554e000000000000000000000000000000000000000000000000000000000081525061300d565b61226261306a565b8460fb60006101000a81548173ffffffffffffffffffffffffffffffffffffffff021916908373ffffffffffffffffffffffffffffffffffffffff1602179055508360fc60006101000a81548173ffffffffffffffffffffffffffffffffffffffff021916908373ffffffffffffffffffffffffffffffffffffffff1602179055508260fd60006101000a81548173ffffffffffffffffffffffffffffffffffffffff021916908373ffffffffffffffffffffffffffffffffffffffff1602179055508160fe60006101000a81548173ffffffffffffffffffffffffffffffffffffffff021916908373ffffffffffffffffffffffffffffffffffffffff16021790555080156123bf5760008060016101000a81548160ff0219169083151502179055507f7f26b83ff96e1f2b6a682f133852f6798a09c465da95921460cefb384740249860016040516123b691906154c7565b60405180910390a15b5050505050565b60fc60009054906101000a900473ffffffffffffffffffffffffffffffffffffffff1681565b60007f80ac58cd000000000000000000000000000000000000000000000000000000007bffffffffffffffffffffffffffffffffffffffffffffffffffffffff1916827bffffffffffffffffffffffffffffffffffffffffffffffffffffffff191614806124b757507f5b5e139f000000000000000000000000000000000000000000000000000000007bffffffffffffffffffffffffffffffffffffffffffffffffffffffff1916827bffffffffffffffffffffffffffffffffffffffffffffffffffffffff1916145b806124c757506124c6826130c3565b5b9050919050565b60008073ffffffffffffffffffffffffffffffffffffffff166067600084815260200190815260200160002060009054906101000a900473ffffffffffffffffffffffffffffffffffffffff1673ffffffffffffffffffffffffffffffffffffffff1614159050919050565b600033905090565b816069600083815260200190815260200160002060006101000a81548173ffffffffffffffffffffffffffffffffffffffff021916908373ffffffffffffffffffffffffffffffffffffffff160217905550808273ffffffffffffffffffffffffffffffffffffffff166125b583611667565b73ffffffffffffffffffffffffffffffffffffffff167f8c5be1e5ebec7d5bd14f71427d1e84f3dd0314c0f7b2291e5b200ac8c7c3b92560405160405180910390a45050565b6000612606826124ce565b612645576040517f08c379a000000000000000000000000000000000000000000000000000000000815260040161263c90615554565b60405180910390fd5b600061265083611667565b90508073ffffffffffffffffffffffffffffffffffffffff168473ffffffffffffffffffffffffffffffffffffffff16148061269257506126918185611fe5565b5b806126d057508373ffffffffffffffffffffffffffffffffffffffff166126b884610a29565b73ffffffffffffffffffffffffffffffffffffffff16145b91505092915050565b8273ffffffffffffffffffffffffffffffffffffffff166126f982611667565b73ffffffffffffffffffffffffffffffffffffffff161461274f576040517f08c379a0000000000000000000000000000000000000000000000000000000008152600401612746906155e6565b60405180910390fd5b600073ffffffffffffffffffffffffffffffffffffffff168273ffffffffffffffffffffffffffffffffffffffff16036127be576040517f08c379a00000000000000000000000000000000000000000000000000000000081526004016127b590615678565b60405180910390fd5b6127c983838361312d565b6127d4600082612542565b6001606860008573ffffffffffffffffffffffffffffffffffffffff1673ffffffffffffffffffffffffffffffffffffffff16815260200190815260200160002060008282546128249190614cdc565b925050819055506001606860008473ffffffffffffffffffffffffffffffffffffffff1673ffffffffffffffffffffffffffffffffffffffff168152602001908152602001600020600082825461287b9190614a64565b92505081905550816067600083815260200190815260200160002060006101000a81548173ffffffffffffffffffffffffffffffffffffffff021916908373ffffffffffffffffffffffffffffffffffffffff160217905550808273ffffffffffffffffffffffffffffffffffffffff168473ffffffffffffffffffffffffffffffffffffffff167fddf252ad1be2c89b69c2b068fc378daa952ba7f163c4a11628f55a4df523b3ef60405160405180910390a461293a83838361323f565b505050565b600073ffffffffffffffffffffffffffffffffffffffff168273ffffffffffffffffffffffffffffffffffffffff16036129ae576040517f08c379a00000000000000000000000000000000000000000000000000000000081526004016129a5906156e4565b60405180910390fd5b6129b7816124ce565b156129f7576040517f08c379a00000000000000000000000000000000000000000000000000000000081526004016129ee90615750565b60405180910390fd5b612a036000838361312d565b6001606860008473ffffffffffffffffffffffffffffffffffffffff1673ffffffffffffffffffffffffffffffffffffffff1681526020019081526020016000206000828254612a539190614a64565b92505081905550816067600083815260200190815260200160002060006101000a81548173ffffffffffffffffffffffffffffffffffffffff021916908373ffffffffffffffffffffffffffffffffffffffff160217905550808273ffffffffffffffffffffffffffffffffffffffff16600073ffffffffffffffffffffffffffffffffffffffff167fddf252ad1be2c89b69c2b068fc378daa952ba7f163c4a11628f55a4df523b3ef60405160405180910390a4612b146000838361323f565b5050565b600060c960009054906101000a900473ffffffffffffffffffffffffffffffffffffffff1690508160c960006101000a81548173ffffffffffffffffffffffffffffffffffffffff021916908373ffffffffffffffffffffffffffffffffffffffff1602179055508173ffffffffffffffffffffffffffffffffffffffff168173ffffffffffffffffffffffffffffffffffffffff167f8be0079c531659141344cd1fd0a4f28419497f9722a3daafe3b4186f6b6457e060405160405180910390a35050565b8173ffffffffffffffffffffffffffffffffffffffff168373ffffffffffffffffffffffffffffffffffffffff1603612c4c576040517f08c379a0000000000000000000000000000000000000000000000000000000008152600401612c43906157bc565b60405180910390fd5b80606a60008573ffffffffffffffffffffffffffffffffffffffff1673ffffffffffffffffffffffffffffffffffffffff16815260200190815260200160002060008473ffffffffffffffffffffffffffffffffffffffff1673ffffffffffffffffffffffffffffffffffffffff16815260200190815260200160002060006101000a81548160ff0219169083151502179055508173ffffffffffffffffffffffffffffffffffffffff168373ffffffffffffffffffffffffffffffffffffffff167f17307eab39ab6107e8899845ad3d59bd9653f200f220920489ca2b5937696c3183604051612d3d9190613a04565b60405180910390a3505050565b612d558484846126d9565b612d6184848484613244565b612da0576040517f08c379a0000000000000000000000000000000000000000000000000000000008152600401612d979061584e565b60405180910390fd5b50505050565b606060405180602001604052806000815250905090565b606060008203612e04576040518060400160405280600181526020017f30000000000000000000000000000000000000000000000000000000000000008152509050612f18565b600082905060005b60008214612e36578080612e1f9061491e565b915050600a82612e2f919061589d565b9150612e0c565b60008167ffffffffffffffff811115612e5257612e51614341565b5b6040519080825280601f01601f191660200182016040528015612e845781602001600182028036833780820191505090505b5090505b60008514612f1157600182612e9d9190614cdc565b9150600a85612eac91906158ce565b6030612eb89190614a64565b60f81b818381518110612ece57612ecd6148c0565b5b60200101907effffffffffffffffffffffffffffffffffffffffffffffffffffffffffffff1916908160001a905350600a85612f0a919061589d565b9450612e88565b8093505050505b919050565b60008060019054906101000a900460ff1615612f945760018260ff16148015612f4c5750612f4a306133cb565b155b612f8b576040517f08c379a0000000000000000000000000000000000000000000000000000000008152600401612f8290615971565b60405180910390fd5b60009050613008565b8160ff1660008054906101000a900460ff1660ff1610612fe9576040517f08c379a0000000000000000000000000000000000000000000000000000000008152600401612fe090615971565b60405180910390fd5b816000806101000a81548160ff021916908360ff160217905550600190505b919050565b600060019054906101000a900460ff1661305c576040517f08c379a000000000000000000000000000000000000000000000000000000000815260040161305390615a03565b60405180910390fd5b61306682826133ee565b5050565b600060019054906101000a900460ff166130b9576040517f08c379a00000000000000000000000000000000000000000000000000000000081526004016130b090615a03565b60405180910390fd5b6130c161346f565b565b60007f01ffc9a7000000000000000000000000000000000000000000000000000000007bffffffffffffffffffffffffffffffffffffffffffffffffffffffff1916827bffffffffffffffffffffffffffffffffffffffffffffffffffffffff1916149050919050565b6131388383836134d0565b600073ffffffffffffffffffffffffffffffffffffffff168373ffffffffffffffffffffffffffffffffffffffff160361317a57613175816134d5565b6131b9565b8173ffffffffffffffffffffffffffffffffffffffff168373ffffffffffffffffffffffffffffffffffffffff16146131b8576131b7838261351e565b5b5b600073ffffffffffffffffffffffffffffffffffffffff168273ffffffffffffffffffffffffffffffffffffffff16036131fb576131f68161368b565b61323a565b8273ffffffffffffffffffffffffffffffffffffffff168273ffffffffffffffffffffffffffffffffffffffff161461323957613238828261375c565b5b5b505050565b505050565b60006132658473ffffffffffffffffffffffffffffffffffffffff166133cb565b156133be578373ffffffffffffffffffffffffffffffffffffffff1663150b7a0261328e61253a565b8786866040518563ffffffff1660e01b81526004016132b09493929190615a78565b6020604051808303816000875af19250505080156132ec57506040513d601f19601f820116820180604052508101906132e99190615ad9565b60015b61336e573d806000811461331c576040519150601f19603f3d011682016040523d82523d6000602084013e613321565b606091505b506000815103613366576040517f08c379a000000000000000000000000000000000000000000000000000000000815260040161335d9061584e565b60405180910390fd5b805181602001fd5b63150b7a0260e01b7bffffffffffffffffffffffffffffffffffffffffffffffffffffffff1916817bffffffffffffffffffffffffffffffffffffffffffffffffffffffff1916149150506133c3565b600190505b949350505050565b6000808273ffffffffffffffffffffffffffffffffffffffff163b119050919050565b600060019054906101000a900460ff1661343d576040517f08c379a000000000000000000000000000000000000000000000000000000000815260040161343490615a03565b60405180910390fd5b8160659080519060200190613453929190613840565b50806066908051906020019061346a929190613840565b505050565b600060019054906101000a900460ff166134be576040517f08c379a00000000000000000000000000000000000000000000000000000000081526004016134b590615a03565b60405180910390fd5b6134ce6134c961253a565b612b18565b565b505050565b609980549050609a600083815260200190815260200160002081905550609981908060018154018082558091505060019003906000526020600020016000909190919091505550565b6000600161352b84611738565b6135359190614cdc565b905060006098600084815260200190815260200160002054905081811461361a576000609760008673ffffffffffffffffffffffffffffffffffffffff1673ffffffffffffffffffffffffffffffffffffffff168152602001908152602001600020600084815260200190815260200160002054905080609760008773ffffffffffffffffffffffffffffffffffffffff1673ffffffffffffffffffffffffffffffffffffffff168152602001908152602001600020600084815260200190815260200160002081905550816098600083815260200190815260200160002081905550505b6098600084815260200190815260200160002060009055609760008573ffffffffffffffffffffffffffffffffffffffff1673ffffffffffffffffffffffffffffffffffffffff16815260200190815260200160002060008381526020019081526020016000206000905550505050565b6000600160998054905061369f9190614cdc565b90506000609a60008481526020019081526020016000205490506000609983815481106136cf576136ce6148c0565b5b9060005260206000200154905080609983815481106136f1576136f06148c0565b5b906000526020600020018190555081609a600083815260200190815260200160002081905550609a60008581526020019081526020016000206000905560998054806137405761373f615b06565b5b6001900381819060005260206000200160009055905550505050565b600061376783611738565b905081609760008573ffffffffffffffffffffffffffffffffffffffff1673ffffffffffffffffffffffffffffffffffffffff168152602001908152602001600020600083815260200190815260200160002081905550806098600084815260200190815260200160002081905550505050565b6040518060c001604052806000815260200160008152602001600081526020016000815260200160008152602001606081525090565b60405180613e8001604052806101f4905b61382a6137db565b8152602001906001900390816138225790505090565b82805461384c90614647565b90600052602060002090601f01602090048101928261386e57600085556138b5565b82601f1061388757805160ff19168380011785556138b5565b828001600101855582156138b5579182015b828111156138b4578251825591602001919060010190613899565b5b5090506138c29190613933565b5090565b604051806101000160405280600081526020016000815260200160008152602001600081526020016000815260200160008152602001613904613911565b8152602001606081525090565b6040518060600160405280600390602082028036833780820191505090505090565b5b8082111561394c576000816000905550600101613934565b5090565b6000604051905090565b600080fd5b600080fd5b60007fffffffff0000000000000000000000000000000000000000000000000000000082169050919050565b61399981613964565b81146139a457600080fd5b50565b6000813590506139b681613990565b92915050565b6000602082840312156139d2576139d161395a565b5b60006139e0848285016139a7565b91505092915050565b60008115159050919050565b6139fe816139e9565b82525050565b6000602082019050613a1960008301846139f5565b92915050565b600081519050919050565b600082825260208201905092915050565b60005b83811015613a59578082015181840152602081019050613a3e565b83811115613a68576000848401525b50505050565b6000601f19601f8301169050919050565b6000613a8a82613a1f565b613a948185613a2a565b9350613aa4818560208601613a3b565b613aad81613a6e565b840191505092915050565b60006020820190508181036000830152613ad28184613a7f565b905092915050565b6000819050919050565b613aed81613ada565b8114613af857600080fd5b50565b600081359050613b0a81613ae4565b92915050565b600060208284031215613b2657613b2561395a565b5b6000613b3484828501613afb565b91505092915050565b600073ffffffffffffffffffffffffffffffffffffffff82169050919050565b6000613b6882613b3d565b9050919050565b613b7881613b5d565b82525050565b6000602082019050613b936000830184613b6f565b92915050565b613ba281613b5d565b8114613bad57600080fd5b50565b600081359050613bbf81613b99565b92915050565b60008060408385031215613bdc57613bdb61395a565b5b6000613bea85828601613bb0565b9250506020613bfb85828601613afb565b9150509250929050565b613c0e81613ada565b82525050565b6000602082019050613c296000830184613c05565b92915050565b613c3881613ada565b82525050565b600082825260208201905092915050565b6000613c5a82613a1f565b613c648185613c3e565b9350613c74818560208601613a3b565b613c7d81613a6e565b840191505092915050565b600060c083016000830151613ca06000860182613c2f565b506020830151613cb36020860182613c2f565b506040830151613cc66040860182613c2f565b506060830151613cd96060860182613c2f565b506080830151613cec6080860182613c2f565b5060a083015184820360a0860152613d048282613c4f565b9150508091505092915050565b60006020820190508181036000830152613d2b8184613c88565b905092915050565b600080600060608486031215613d4c57613d4b61395a565b5b6000613d5a86828701613bb0565b9350506020613d6b86828701613bb0565b9250506040613d7c86828701613afb565b9150509250925092565b600080fd5b600080fd5b600080fd5b60008083601f840112613dab57613daa613d86565b5b8235905067ffffffffffffffff811115613dc857613dc7613d8b565b5b602083019150836020820283011115613de457613de3613d90565b5b9250929050565b60008060208385031215613e0257613e0161395a565b5b600083013567ffffffffffffffff811115613e2057613e1f61395f565b5b613e2c85828601613d95565b92509250509250929050565b60006101f49050919050565b600081905092915050565b6000819050919050565b600060c083016000830151613e716000860182613c2f565b506020830151613e846020860182613c2f565b506040830151613e976040860182613c2f565b506060830151613eaa6060860182613c2f565b506080830151613ebd6080860182613c2f565b5060a083015184820360a0860152613ed58282613c4f565b9150508091505092915050565b6000613eee8383613e59565b905092915050565b6000602082019050919050565b6000613f0e82613e38565b613f188185613e44565b935083602082028501613f2a85613e4f565b8060005b85811015613f665784840389528151613f478582613ee2565b9450613f5283613ef6565b925060208a01995050600181019050613f2e565b50829750879550505050505092915050565b60006020820190508181036000830152613f928184613f03565b905092915050565b600060e082019050613faf600083018a613c05565b613fbc6020830189613c05565b613fc96040830188613c05565b613fd66060830187613c05565b613fe36080830186613c05565b613ff060a0830185613c05565b81810360c08301526140028184613a7f565b905098975050505050505050565b600060039050919050565b600081905092915050565b6000819050919050565b600061403c8383613c2f565b60208301905092915050565b6000602082019050919050565b61405e81614010565b614068818461401b565b925061407382614026565b8060005b838110156140a457815161408b8782614030565b965061409683614048565b925050600181019050614077565b505050505050565b6000610140830160008301516140c56000860182613c2f565b5060208301516140d86020860182613c2f565b5060408301516140eb6040860182613c2f565b5060608301516140fe6060860182613c2f565b5060808301516141116080860182613c2f565b5060a083015161412460a0860182613c2f565b5060c083015161413760c0860182614055565b5060e08301518482036101208601526141508282613c4f565b9150508091505092915050565b6000602082019050818103600083015261417781846140ac565b905092915050565b600080600080608085870312156141995761419861395a565b5b60006141a787828801613bb0565b94505060206141b887828801613bb0565b93505060406141c987828801613bb0565b92505060606141da87828801613bb0565b91505092959194509250565b600081905092915050565b6141fa81614010565b61420481846141e6565b925061420f82614026565b8060005b838110156142405781516142278782614030565b965061423283614048565b925050600181019050614213565b505050505050565b600060608201905061425d60008301846141f1565b92915050565b6000602082840312156142795761427861395a565b5b600061428784828501613bb0565b91505092915050565b600080604083850312156142a7576142a661395a565b5b60006142b585828601613afb565b92505060206142c685828601613afb565b9150509250929050565b6142d9816139e9565b81146142e457600080fd5b50565b6000813590506142f6816142d0565b92915050565b600080604083850312156143135761431261395a565b5b600061432185828601613bb0565b9250506020614332858286016142e7565b9150509250929050565b600080fd5b7f4e487b7100000000000000000000000000000000000000000000000000000000600052604160045260246000fd5b61437982613a6e565b810181811067ffffffffffffffff8211171561439857614397614341565b5b80604052505050565b60006143ab613950565b90506143b78282614370565b919050565b600067ffffffffffffffff8211156143d7576143d6614341565b5b6143e082613a6e565b9050602081019050919050565b82818337600083830152505050565b600061440f61440a846143bc565b6143a1565b90508281526020810184848401111561442b5761442a61433c565b5b6144368482856143ed565b509392505050565b600082601f83011261445357614452613d86565b5b81356144638482602086016143fc565b91505092915050565b600080600080608085870312156144865761448561395a565b5b600061449487828801613bb0565b94505060206144a587828801613bb0565b93505060406144b687828801613afb565b925050606085013567ffffffffffffffff8111156144d7576144d661395f565b5b6144e38782880161443e565b91505092959194509250565b600080fd5b6000610140828403121561450b5761450a6144ef565b5b81905092915050565b6000806040838503121561452b5761452a61395a565b5b600061453985828601613afb565b925050602083013567ffffffffffffffff81111561455a5761455961395f565b5b614566858286016144f4565b9150509250929050565b600060c0820190506145856000830189613c05565b6145926020830188613c05565b61459f6040830187613c05565b6145ac6060830186613c05565b6145b96080830185613c05565b81810360a08301526145cb8184613a7f565b9050979650505050505050565b600080604083850312156145ef576145ee61395a565b5b60006145fd85828601613bb0565b925050602061460e85828601613bb0565b9150509250929050565b7f4e487b7100000000000000000000000000000000000000000000000000000000600052602260045260246000fd5b6000600282049050600182168061465f57607f821691505b60208210810361467257614671614618565b5b50919050565b7f4552433732313a20617070726f76656420717565727920666f72206e6f6e657860008201527f697374656e7420746f6b656e0000000000000000000000000000000000000000602082015250565b60006146d4602c83613a2a565b91506146df82614678565b604082019050919050565b60006020820190508181036000830152614703816146c7565b9050919050565b7f4552433732313a20617070726f76616c20746f2063757272656e74206f776e6560008201527f7200000000000000000000000000000000000000000000000000000000000000602082015250565b6000614766602183613a2a565b91506147718261470a565b604082019050919050565b6000602082019050818103600083015261479581614759565b9050919050565b7f4552433732313a20617070726f76652063616c6c6572206973206e6f74206f7760008201527f6e6572206e6f7220617070726f76656420666f7220616c6c0000000000000000602082015250565b60006147f8603883613a2a565b91506148038261479c565b604082019050919050565b60006020820190508181036000830152614827816147eb565b9050919050565b7f4552433732313a207472616e736665722063616c6c6572206973206e6f74206f60008201527f776e6572206e6f7220617070726f766564000000000000000000000000000000602082015250565b600061488a603183613a2a565b91506148958261482e565b604082019050919050565b600060208201905081810360008301526148b98161487d565b9050919050565b7f4e487b7100000000000000000000000000000000000000000000000000000000600052603260045260246000fd5b7f4e487b7100000000000000000000000000000000000000000000000000000000600052601160045260246000fd5b600061492982613ada565b91507fffffffffffffffffffffffffffffffffffffffffffffffffffffffffffffffff820361495b5761495a6148ef565b5b600182019050919050565b7f455243373231456e756d657261626c653a206f776e657220696e646578206f7560008201527f74206f6620626f756e6473000000000000000000000000000000000000000000602082015250565b60006149c2602b83613a2a565b91506149cd82614966565b604082019050919050565b600060208201905081810360008301526149f1816149b5565b9050919050565b7f4d61676961556e6974733a207265737472696374656400000000000000000000600082015250565b6000614a2e601683613a2a565b9150614a39826149f8565b602082019050919050565b60006020820190508181036000830152614a5d81614a21565b9050919050565b6000614a6f82613ada565b9150614a7a83613ada565b9250827fffffffffffffffffffffffffffffffffffffffffffffffffffffffffffffffff03821115614aaf57614aae6148ef565b5b828201905092915050565b7f4f776e61626c653a2063616c6c6572206973206e6f7420746865206f776e6572600082015250565b6000614af0602083613a2a565b9150614afb82614aba565b602082019050919050565b60006020820190508181036000830152614b1f81614ae3565b9050919050565b7f455243373231456e756d657261626c653a20676c6f62616c20696e646578206f60008201527f7574206f6620626f756e64730000000000000000000000000000000000000000602082015250565b6000614b82602c83613a2a565b9150614b8d82614b26565b604082019050919050565b60006020820190508181036000830152614bb181614b75565b9050919050565b7f4552433732313a206f776e657220717565727920666f72206e6f6e657869737460008201527f656e7420746f6b656e0000000000000000000000000000000000000000000000602082015250565b6000614c14602983613a2a565b9150614c1f82614bb8565b604082019050919050565b60006020820190508181036000830152614c4381614c07565b9050919050565b7f4552433732313a2062616c616e636520717565727920666f7220746865207a6560008201527f726f206164647265737300000000000000000000000000000000000000000000602082015250565b6000614ca6602a83613a2a565b9150614cb182614c4a565b604082019050919050565b60006020820190508181036000830152614cd581614c99565b9050919050565b6000614ce782613ada565b9150614cf283613ada565b925082821015614d0557614d046148ef565b5b828203905092915050565b60008135614d1d81613ae4565b80915050919050565b60008160001b9050919050565b60007fffffffffffffffffffffffffffffffffffffffffffffffffffffffffffffffff614d5f84614d26565b9350801983169250808416831791505092915050565b6000819050919050565b6000614d9a614d95614d9084613ada565b614d75565b613ada565b9050919050565b6000819050919050565b614db482614d7f565b614dc7614dc082614da1565b8354614d33565b8255505050565b6000819050919050565b600060039050919050565b60008190506001806001038301049050919050565b6000819050919050565b600082821b905092915050565b600060088302614e3f7fffffffffffffffffffffffffffffffffffffffffffffffffffffffffffffffff82614e02565b614e498683614e02565b95508019841693508086168417925050509392505050565b614e6a83614d7f565b614e7e614e7682614da1565b848454614e0f565b825550505050565b600090565b614e93614e86565b614e9e818484614e61565b505050565b5b81811015614ec257614eb7600082614e8b565b600181019050614ea4565b5050565b600082821c905092915050565b81831015614f0c57614ee482614de3565b614eed84614de3565b614ef683614df8565b818101838201614f068183614ea3565b50505050505b505050565b68010000000000000000821115614f2b57614f2a614341565b5b614f3481614dd8565b614f3f838284614ed3565b505050565b600060039050919050565b614f5882614f44565b614f628183614f11565b614f6b83614dce565b614f7483614df8565b6000805b84811015614faf5783614f8a81614d10565b9050614f97818486614e61565b60208501945060018401935050600181019050614f78565b50505050505050565b614fc28282614f4f565b5050565b600080fd5b600080fd5b600080fd5b60008083356001602003843603038112614ff257614ff1614fc6565b5b80840192508235915067ffffffffffffffff82111561501457615013614fcb565b5b6020830192506001820236038313156150305761502f614fd0565b5b509250929050565b600082905092915050565b60008190508160005260206000209050919050565b60006020601f8301049050919050565b5b818110156150875761507c600082614e8b565b600181019050615069565b5050565b601f8211156150cc5761509d81615043565b6150a684615058565b810160208510156150b5578190505b6150c96150c185615058565b830182615068565b50505b505050565b60006150e260001984600802614ec6565b1980831691505092915050565b60006150fb83836150d1565b9150826002028217905092915050565b6151158383615038565b67ffffffffffffffff81111561512e5761512d614341565b5b6151388254614647565b61514382828561508b565b6000601f8311600181146151725760008415615160578287013590505b61516a85826150ef565b8655506151d2565b601f19841661518086615043565b60005b828110156151a857848901358255600182019150602085019450602081019050615183565b868310156151c557848901356151c1601f8916826150d1565b8355505b6001600288020188555050505b50505050505050565b6151e683838361510b565b505050565b6000810160008301806151fd81614d10565b90506152098184614dab565b50505060018101602083018061521e81614d10565b905061522a8184614dab565b50505060028101604083018061523f81614d10565b905061524b8184614dab565b50505060038101606083018061526081614d10565b905061526c8184614dab565b50505060048101608083018061528181614d10565b905061528d8184614dab565b5050506005810160a08301806152a281614d10565b90506152ae8184614dab565b5050506006810160c08301806152c48184614fb8565b5050506009810161012083016152da8185614fd5565b6152e58183866151db565b505050505050565b6152f782826151eb565b5050565b7f4552433732314d657461646174613a2055524920717565727920666f72206e6f60008201527f6e6578697374656e7420746f6b656e0000000000000000000000000000000000602082015250565b6000615357602f83613a2a565b9150615362826152fb565b604082019050919050565b600060208201905081810360008301526153868161534a565b9050919050565b600081905092915050565b60006153a382613a1f565b6153ad818561538d565b93506153bd818560208601613a3b565b80840191505092915050565b60006153d58285615398565b91506153e18284615398565b91508190509392505050565b7f4f776e61626c653a206e6577206f776e657220697320746865207a65726f206160008201527f6464726573730000000000000000000000000000000000000000000000000000602082015250565b6000615449602683613a2a565b9150615454826153ed565b604082019050919050565b600060208201905081810360008301526154788161543c565b9050919050565b6000819050919050565b600060ff82169050919050565b60006154b16154ac6154a78461547f565b614d75565b615489565b9050919050565b6154c181615496565b82525050565b60006020820190506154dc60008301846154b8565b92915050565b7f4552433732313a206f70657261746f7220717565727920666f72206e6f6e657860008201527f697374656e7420746f6b656e0000000000000000000000000000000000000000602082015250565b600061553e602c83613a2a565b9150615549826154e2565b604082019050919050565b6000602082019050818103600083015261556d81615531565b9050919050565b7f4552433732313a207472616e736665722066726f6d20696e636f72726563742060008201527f6f776e6572000000000000000000000000000000000000000000000000000000602082015250565b60006155d0602583613a2a565b91506155db82615574565b604082019050919050565b600060208201905081810360008301526155ff816155c3565b9050919050565b7f4552433732313a207472616e7366657220746f20746865207a65726f2061646460008201527f7265737300000000000000000000000000000000000000000000000000000000602082015250565b6000615662602483613a2a565b915061566d82615606565b604082019050919050565b6000602082019050818103600083015261569181615655565b9050919050565b7f4552433732313a206d696e7420746f20746865207a65726f2061646472657373600082015250565b60006156ce602083613a2a565b91506156d982615698565b602082019050919050565b600060208201905081810360008301526156fd816156c1565b9050919050565b7f4552433732313a20746f6b656e20616c7265616479206d696e74656400000000600082015250565b600061573a601c83613a2a565b915061574582615704565b602082019050919050565b600060208201905081810360008301526157698161572d565b9050919050565b7f4552433732313a20617070726f766520746f2063616c6c657200000000000000600082015250565b60006157a6601983613a2a565b91506157b182615770565b602082019050919050565b600060208201905081810360008301526157d581615799565b9050919050565b7f4552433732313a207472616e7366657220746f206e6f6e20455243373231526560008201527f63656976657220696d706c656d656e7465720000000000000000000000000000602082015250565b6000615838603283613a2a565b9150615843826157dc565b604082019050919050565b600060208201905081810360008301526158678161582b565b9050919050565b7f4e487b7100000000000000000000000000000000000000000000000000000000600052601260045260246000fd5b60006158a882613ada565b91506158b383613ada565b9250826158c3576158c261586e565b5b828204905092915050565b60006158d982613ada565b91506158e483613ada565b9250826158f4576158f361586e565b5b828206905092915050565b7f496e697469616c697a61626c653a20636f6e747261637420697320616c72656160008201527f647920696e697469616c697a6564000000000000000000000000000000000000602082015250565b600061595b602e83613a2a565b9150615966826158ff565b604082019050919050565b6000602082019050818103600083015261598a8161594e565b9050919050565b7f496e697469616c697a61626c653a20636f6e7472616374206973206e6f74206960008201527f6e697469616c697a696e67000000000000000000000000000000000000000000602082015250565b60006159ed602b83613a2a565b91506159f882615991565b604082019050919050565b60006020820190508181036000830152615a1c816159e0565b9050919050565b600081519050919050565b600082825260208201905092915050565b6000615a4a82615a23565b615a548185615a2e565b9350615a64818560208601613a3b565b615a6d81613a6e565b840191505092915050565b6000608082019050615a8d6000830187613b6f565b615a9a6020830186613b6f565b615aa76040830185613c05565b8181036060830152615ab98184615a3f565b905095945050505050565b600081519050615ad381613990565b92915050565b600060208284031215615aef57615aee61395a565b5b6000615afd84828501615ac4565b91505092915050565b7f4e487b7100000000000000000000000000000000000000000000000000000000600052603160045260246000fdfea26469706673582212205f75ecc8e8a77ae3528c200eee632c359dbe183b89b4c78da86ed470c4de024064736f6c634300080d0033",
  "linkReferences": {},
  "deployedLinkReferences": {}
}