{
  "_format": "hh-sol-artifact-1",
  "contractName": "MagiaGuilds",
  "sourceName": "contracts/other/MagiaGuilds.sol",
  "abi": [
    {
      "anonymous": false,
      "inputs": [
        {
          "indexed": true,
          "internalType": "address",
          "name": "owner",
          "type": "address"
        },
        {
          "indexed": true,
          "internalType": "address",
          "name": "approved",
          "type": "address"
        },
        {
          "indexed": true,
          "internalType": "uint256",
          "name": "tokenId",
          "type": "uint256"
        }
      ],
      "name": "Approval",
      "type": "event"
    },
    {
      "anonymous": false,
      "inputs": [
        {
          "indexed": true,
          "internalType": "address",
          "name": "owner",
          "type": "address"
        },
        {
          "indexed": true,
          "internalType": "address",
          "name": "operator",
          "type": "address"
        },
        {
          "indexed": false,
          "internalType": "bool",
          "name": "approved",
          "type": "bool"
        }
      ],
      "name": "ApprovalForAll",
      "type": "event"
    },
    {
      "anonymous": false,
      "inputs": [
        {
          "indexed": false,
          "internalType": "uint8",
          "name": "version",
          "type": "uint8"
        }
      ],
      "name": "Initialized",
      "type": "event"
    },
    {
      "anonymous": false,
      "inputs": [
        {
          "indexed": true,
          "internalType": "address",
          "name": "previousOwner",
          "type": "address"
        },
        {
          "indexed": true,
          "internalType": "address",
          "name": "newOwner",
          "type": "address"
        }
      ],
      "name": "OwnershipTransferred",
      "type": "event"
    },
    {
      "anonymous": false,
      "inputs": [
        {
          "indexed": true,
          "internalType": "address",
          "name": "from",
          "type": "address"
        },
        {
          "indexed": true,
          "internalType": "address",
          "name": "to",
          "type": "address"
        },
        {
          "indexed": true,
          "internalType": "uint256",
          "name": "tokenId",
          "type": "uint256"
        }
      ],
      "name": "Transfer",
      "type": "event"
    },
    {
      "inputs": [
        {
          "internalType": "address",
          "name": "to",
          "type": "address"
        },
        {
          "internalType": "uint256",
          "name": "tokenId",
          "type": "uint256"
        }
      ],
      "name": "approve",
      "outputs": [],
      "stateMutability": "nonpayable",
      "type": "function"
    },
    {
      "inputs": [
        {
          "internalType": "address",
          "name": "owner",
          "type": "address"
        }
      ],
      "name": "balanceOf",
      "outputs": [
        {
          "internalType": "uint256",
          "name": "",
          "type": "uint256"
        }
      ],
      "stateMutability": "view",
      "type": "function"
    },
    {
      "inputs": [],
      "name": "gameDiamond",
      "outputs": [
        {
          "internalType": "address",
          "name": "",
          "type": "address"
        }
      ],
      "stateMutability": "view",
      "type": "function"
    },
    {
      "inputs": [
        {
          "internalType": "uint256",
          "name": "tokenId",
          "type": "uint256"
        }
      ],
      "name": "getApproved",
      "outputs": [
        {
          "internalType": "address",
          "name": "",
          "type": "address"
        }
      ],
      "stateMutability": "view",
      "type": "function"
    },
    {
      "inputs": [
        {
          "internalType": "uint256",
          "name": "_guildId",
          "type": "uint256"
        }
      ],
      "name": "getGuild",
      "outputs": [
        {
          "components": [
            {
              "internalType": "uint256",
              "name": "guildMaster",
              "type": "uint256"
            },
            {
              "internalType": "string",
              "name": "name",
              "type": "string"
            }
          ],
          "internalType": "struct MagiaGuilds.Guild",
          "name": "",
          "type": "tuple"
        }
      ],
      "stateMutability": "view",
      "type": "function"
    },
    {
      "inputs": [],
      "name": "gold",
      "outputs": [
        {
          "internalType": "address",
          "name": "",
          "type": "address"
        }
      ],
      "stateMutability": "view",
      "type": "function"
    },
    {
      "inputs": [
        {
          "internalType": "uint256",
          "name": "",
          "type": "uint256"
        }
      ],
      "name": "guilds",
      "outputs": [
        {
          "internalType": "uint256",
          "name": "guildMaster",
          "type": "uint256"
        },
        {
          "internalType": "string",
          "name": "name",
          "type": "string"
        }
      ],
      "stateMutability": "view",
      "type": "function"
    },
    {
      "inputs": [
        {
          "internalType": "address",
          "name": "_gameDiamond",
          "type": "address"
        },
        {
          "internalType": "address",
          "name": "_gold",
          "type": "address"
        },
        {
          "internalType": "address",
          "name": "_lumber",
          "type": "address"
        },
        {
          "internalType": "address",
          "name": "_mana",
          "type": "address"
        }
      ],
      "name": "initialize",
      "outputs": [],
      "stateMutability": "nonpayable",
      "type": "function"
    },
    {
      "inputs": [
        {
          "internalType": "address",
          "name": "owner",
          "type": "address"
        },
        {
          "internalType": "address",
          "name": "operator",
          "type": "address"
        }
      ],
      "name": "isApprovedForAll",
      "outputs": [
        {
          "internalType": "bool",
          "name": "",
          "type": "bool"
        }
      ],
      "stateMutability": "view",
      "type": "function"
    },
    {
      "inputs": [],
      "name": "lumber",
      "outputs": [
        {
          "internalType": "address",
          "name": "",
          "type": "address"
        }
      ],
      "stateMutability": "view",
      "type": "function"
    },
    {
      "inputs": [],
      "name": "mana",
      "outputs": [
        {
          "internalType": "address",
          "name": "",
          "type": "address"
        }
      ],
      "stateMutability": "view",
      "type": "function"
    },
    {
      "inputs": [
        {
          "internalType": "address",
          "name": "_account",
          "type": "address"
        },
        {
          "components": [
            {
              "internalType": "uint256",
              "name": "guildMaster",
              "type": "uint256"
            },
            {
              "internalType": "string",
              "name": "name",
              "type": "string"
            }
          ],
          "internalType": "struct MagiaGuilds.Guild",
          "name": "_guild",
          "type": "tuple"
        }
      ],
      "name": "mint",
      "outputs": [],
      "stateMutability": "nonpayable",
      "type": "function"
    },
    {
      "inputs": [],
      "name": "name",
      "outputs": [
        {
          "internalType": "string",
          "name": "",
          "type": "string"
        }
      ],
      "stateMutability": "view",
      "type": "function"
    },
    {
      "inputs": [],
      "name": "owner",
      "outputs": [
        {
          "internalType": "address",
          "name": "",
          "type": "address"
        }
      ],
      "stateMutability": "view",
      "type": "function"
    },
    {
      "inputs": [
        {
          "internalType": "uint256",
          "name": "tokenId",
          "type": "uint256"
        }
      ],
      "name": "ownerOf",
      "outputs": [
        {
          "internalType": "address",
          "name": "",
          "type": "address"
        }
      ],
      "stateMutability": "view",
      "type": "function"
    },
    {
      "inputs": [],
      "name": "renounceOwnership",
      "outputs": [],
      "stateMutability": "nonpayable",
      "type": "function"
    },
    {
      "inputs": [
        {
          "internalType": "address",
          "name": "from",
          "type": "address"
        },
        {
          "internalType": "address",
          "name": "to",
          "type": "address"
        },
        {
          "internalType": "uint256",
          "name": "tokenId",
          "type": "uint256"
        }
      ],
      "name": "safeTransferFrom",
      "outputs": [],
      "stateMutability": "nonpayable",
      "type": "function"
    },
    {
      "inputs": [
        {
          "internalType": "address",
          "name": "from",
          "type": "address"
        },
        {
          "internalType": "address",
          "name": "to",
          "type": "address"
        },
        {
          "internalType": "uint256",
          "name": "tokenId",
          "type": "uint256"
        },
        {
          "internalType": "bytes",
          "name": "_data",
          "type": "bytes"
        }
      ],
      "name": "safeTransferFrom",
      "outputs": [],
      "stateMutability": "nonpayable",
      "type": "function"
    },
    {
      "inputs": [
        {
          "internalType": "address",
          "name": "operator",
          "type": "address"
        },
        {
          "internalType": "bool",
          "name": "approved",
          "type": "bool"
        }
      ],
      "name": "setApprovalForAll",
      "outputs": [],
      "stateMutability": "nonpayable",
      "type": "function"
    },
    {
      "inputs": [
        {
          "internalType": "bytes4",
          "name": "interfaceId",
          "type": "bytes4"
        }
      ],
      "name": "supportsInterface",
      "outputs": [
        {
          "internalType": "bool",
          "name": "",
          "type": "bool"
        }
      ],
      "stateMutability": "view",
      "type": "function"
    },
    {
      "inputs": [],
      "name": "symbol",
      "outputs": [
        {
          "internalType": "string",
          "name": "",
          "type": "string"
        }
      ],
      "stateMutability": "view",
      "type": "function"
    },
    {
      "inputs": [
        {
          "internalType": "uint256",
          "name": "index",
          "type": "uint256"
        }
      ],
      "name": "tokenByIndex",
      "outputs": [
        {
          "internalType": "uint256",
          "name": "",
          "type": "uint256"
        }
      ],
      "stateMutability": "view",
      "type": "function"
    },
    {
      "inputs": [
        {
          "internalType": "address",
          "name": "owner",
          "type": "address"
        },
        {
          "internalType": "uint256",
          "name": "index",
          "type": "uint256"
        }
      ],
      "name": "tokenOfOwnerByIndex",
      "outputs": [
        {
          "internalType": "uint256",
          "name": "",
          "type": "uint256"
        }
      ],
      "stateMutability": "view",
      "type": "function"
    },
    {
      "inputs": [
        {
          "internalType": "uint256",
          "name": "tokenId",
          "type": "uint256"
        }
      ],
      "name": "tokenURI",
      "outputs": [
        {
          "internalType": "string",
          "name": "",
          "type": "string"
        }
      ],
      "stateMutability": "view",
      "type": "function"
    },
    {
      "inputs": [],
      "name": "totalSupply",
      "outputs": [
        {
          "internalType": "uint256",
          "name": "",
          "type": "uint256"
        }
      ],
      "stateMutability": "view",
      "type": "function"
    },
    {
      "inputs": [
        {
          "internalType": "address",
          "name": "from",
          "type": "address"
        },
        {
          "internalType": "address",
          "name": "to",
          "type": "address"
        },
        {
          "internalType": "uint256",
          "name": "tokenId",
          "type": "uint256"
        }
      ],
      "name": "transferFrom",
      "outputs": [],
      "stateMutability": "nonpayable",
      "type": "function"
    },
    {
      "inputs": [
        {
          "internalType": "address",
          "name": "newOwner",
          "type": "address"
        }
      ],
      "name": "transferOwnership",
      "outputs": [],
      "stateMutability": "nonpayable",
      "type": "function"
    }
  ],
  "bytecode": "0x608060405234801561001057600080fd5b5061438c806100206000396000f3fe608060405234801561001057600080fd5b50600436106101a95760003560e01c8063715018a6116100f9578063d3e9669311610097578063f2fde38b11610071578063f2fde38b146104f5578063f7c0d44f14610511578063f8c8765e1461052f578063fbec6f211461054b576101a9565b8063d3e9669314610464578063e985e9c514610494578063efe7b7af146104c4576101a9565b8063a22cb465116100d3578063a22cb465146103de578063b88d4fde146103fa578063bdb001a714610416578063c87b56dd14610434576101a9565b8063715018a6146103985780638da5cb5b146103a257806395d89b41146103c0576101a9565b80632ab82d6c116101665780634f6ccce7116101405780634f6ccce7146102ec5780636352211e1461031c5780636502ada91461034c57806370a0823114610368576101a9565b80632ab82d6c146102825780632f745c59146102a057806342842e0e146102d0576101a9565b806301ffc9a7146101ae57806306fdde03146101de578063081812fc146101fc578063095ea7b31461022c57806318160ddd1461024857806323b872dd14610266575b600080fd5b6101c860048036038101906101c39190612919565b610569565b6040516101d59190612961565b60405180910390f35b6101e66105e3565b6040516101f39190612a15565b60405180910390f35b61021660048036038101906102119190612a6d565b610675565b6040516102239190612adb565b60405180910390f35b61024660048036038101906102419190612b22565b6106fa565b005b610250610811565b60405161025d9190612b71565b60405180910390f35b610280600480360381019061027b9190612b8c565b61081e565b005b61028a61087e565b6040516102979190612adb565b60405180910390f35b6102ba60048036038101906102b59190612b22565b6108a4565b6040516102c79190612b71565b60405180910390f35b6102ea60048036038101906102e59190612b8c565b610949565b005b61030660048036038101906103019190612a6d565b610969565b6040516103139190612b71565b60405180910390f35b61033660048036038101906103319190612a6d565b6109da565b6040516103439190612adb565b60405180910390f35b61036660048036038101906103619190612c03565b610a8b565b005b610382600480360381019061037d9190612c5f565b610b65565b60405161038f9190612b71565b60405180910390f35b6103a0610c1c565b005b6103aa610ca4565b6040516103b79190612adb565b60405180910390f35b6103c8610cce565b6040516103d59190612a15565b60405180910390f35b6103f860048036038101906103f39190612cb8565b610d60565b005b610414600480360381019061040f9190612e2d565b610d76565b005b61041e610dd8565b60405161042b9190612adb565b60405180910390f35b61044e60048036038101906104499190612a6d565b610dfe565b60405161045b9190612a15565b60405180910390f35b61047e60048036038101906104799190612a6d565b610ea5565b60405161048b9190612f46565b60405180910390f35b6104ae60048036038101906104a99190612f68565b610f6e565b6040516104bb9190612961565b60405180910390f35b6104de60048036038101906104d99190612a6d565b611002565b6040516104ec929190612fa8565b60405180910390f35b61050f600480360381019061050a9190612c5f565b6110ae565b005b6105196111a5565b6040516105269190612adb565b60405180910390f35b61054960048036038101906105449190612fd8565b6111cb565b005b6105536113db565b6040516105609190612adb565b60405180910390f35b60007f780e9d63000000000000000000000000000000000000000000000000000000007bffffffffffffffffffffffffffffffffffffffffffffffffffffffff1916827bffffffffffffffffffffffffffffffffffffffffffffffffffffffff191614806105dc57506105db82611401565b5b9050919050565b6060606580546105f29061306e565b80601f016020809104026020016040519081016040528092919081815260200182805461061e9061306e565b801561066b5780601f106106405761010080835404028352916020019161066b565b820191906000526020600020905b81548152906001019060200180831161064e57829003601f168201915b5050505050905090565b6000610680826114e3565b6106bf576040517f08c379a00000000000000000000000000000000000000000000000000000000081526004016106b690613111565b60405180910390fd5b6069600083815260200190815260200160002060009054906101000a900473ffffffffffffffffffffffffffffffffffffffff169050919050565b6000610705826109da565b90508073ffffffffffffffffffffffffffffffffffffffff168373ffffffffffffffffffffffffffffffffffffffff1603610775576040517f08c379a000000000000000000000000000000000000000000000000000000000815260040161076c906131a3565b60405180910390fd5b8073ffffffffffffffffffffffffffffffffffffffff1661079461154f565b73ffffffffffffffffffffffffffffffffffffffff1614806107c357506107c2816107bd61154f565b610f6e565b5b610802576040517f08c379a00000000000000000000000000000000000000000000000000000000081526004016107f990613235565b60405180910390fd5b61080c8383611557565b505050565b6000609980549050905090565b61082f61082961154f565b82611610565b61086e576040517f08c379a0000000000000000000000000000000000000000000000000000000008152600401610865906132c7565b60405180910390fd5b6108798383836116ee565b505050565b60fd60009054906101000a900473ffffffffffffffffffffffffffffffffffffffff1681565b60006108af83610b65565b82106108f0576040517f08c379a00000000000000000000000000000000000000000000000000000000081526004016108e790613359565b60405180910390fd5b609760008473ffffffffffffffffffffffffffffffffffffffff1673ffffffffffffffffffffffffffffffffffffffff168152602001908152602001600020600083815260200190815260200160002054905092915050565b61096483838360405180602001604052806000815250610d76565b505050565b6000610973610811565b82106109b4576040517f08c379a00000000000000000000000000000000000000000000000000000000081526004016109ab906133eb565b60405180910390fd5b609982815481106109c8576109c761340b565b5b90600052602060002001549050919050565b6000806067600084815260200190815260200160002060009054906101000a900473ffffffffffffffffffffffffffffffffffffffff169050600073ffffffffffffffffffffffffffffffffffffffff168173ffffffffffffffffffffffffffffffffffffffff1603610a82576040517f08c379a0000000000000000000000000000000000000000000000000000000008152600401610a79906134ac565b60405180910390fd5b80915050919050565b60fb60009054906101000a900473ffffffffffffffffffffffffffffffffffffffff1673ffffffffffffffffffffffffffffffffffffffff163373ffffffffffffffffffffffffffffffffffffffff1614610b1b576040517f08c379a0000000000000000000000000000000000000000000000000000000008152600401610b1290613518565b60405180910390fd5b60006001610b27610811565b610b319190613567565b90508160ff60008381526020019081526020016000208181610b539190613994565b905050610b608382611954565b505050565b60008073ffffffffffffffffffffffffffffffffffffffff168273ffffffffffffffffffffffffffffffffffffffff1603610bd5576040517f08c379a0000000000000000000000000000000000000000000000000000000008152600401610bcc90613a14565b60405180910390fd5b606860008373ffffffffffffffffffffffffffffffffffffffff1673ffffffffffffffffffffffffffffffffffffffff168152602001908152602001600020549050919050565b610c2461154f565b73ffffffffffffffffffffffffffffffffffffffff16610c42610ca4565b73ffffffffffffffffffffffffffffffffffffffff1614610c98576040517f08c379a0000000000000000000000000000000000000000000000000000000008152600401610c8f90613a80565b60405180910390fd5b610ca26000611b2d565b565b600060c960009054906101000a900473ffffffffffffffffffffffffffffffffffffffff16905090565b606060668054610cdd9061306e565b80601f0160208091040260200160405190810160405280929190818152602001828054610d099061306e565b8015610d565780601f10610d2b57610100808354040283529160200191610d56565b820191906000526020600020905b815481529060010190602001808311610d3957829003601f168201915b5050505050905090565b610d72610d6b61154f565b8383611bf3565b5050565b610d87610d8161154f565b83611610565b610dc6576040517f08c379a0000000000000000000000000000000000000000000000000000000008152600401610dbd906132c7565b60405180910390fd5b610dd284848484611d5f565b50505050565b60fe60009054906101000a900473ffffffffffffffffffffffffffffffffffffffff1681565b6060610e09826114e3565b610e48576040517f08c379a0000000000000000000000000000000000000000000000000000000008152600401610e3f90613b12565b60405180910390fd5b6000610e52611dbb565b90506000815111610e725760405180602001604052806000815250610e9d565b80610e7c84611dd2565b604051602001610e8d929190613b6e565b6040516020818303038152906040525b915050919050565b610ead6127f0565b60ff600083815260200190815260200160002060405180604001604052908160008201548152602001600182018054610ee59061306e565b80601f0160208091040260200160405190810160405280929190818152602001828054610f119061306e565b8015610f5e5780601f10610f3357610100808354040283529160200191610f5e565b820191906000526020600020905b815481529060010190602001808311610f4157829003601f168201915b5050505050815250509050919050565b6000606a60008473ffffffffffffffffffffffffffffffffffffffff1673ffffffffffffffffffffffffffffffffffffffff16815260200190815260200160002060008373ffffffffffffffffffffffffffffffffffffffff1673ffffffffffffffffffffffffffffffffffffffff16815260200190815260200160002060009054906101000a900460ff16905092915050565b60ff60205280600052604060002060009150905080600001549080600101805461102b9061306e565b80601f01602080910402602001604051908101604052809291908181526020018280546110579061306e565b80156110a45780601f10611079576101008083540402835291602001916110a4565b820191906000526020600020905b81548152906001019060200180831161108757829003601f168201915b5050505050905082565b6110b661154f565b73ffffffffffffffffffffffffffffffffffffffff166110d4610ca4565b73ffffffffffffffffffffffffffffffffffffffff161461112a576040517f08c379a000000000000000000000000000000000000000000000000000000000815260040161112190613a80565b60405180910390fd5b600073ffffffffffffffffffffffffffffffffffffffff168173ffffffffffffffffffffffffffffffffffffffff1603611199576040517f08c379a000000000000000000000000000000000000000000000000000000000815260040161119090613c04565b60405180910390fd5b6111a281611b2d565b50565b60fb60009054906101000a900473ffffffffffffffffffffffffffffffffffffffff1681565b60006111d76001611f32565b905080156111fb576001600060016101000a81548160ff0219169083151502179055505b61126f6040518060400160405280600b81526020017f4d616769614775696c64730000000000000000000000000000000000000000008152506040518060400160405280600381526020017f4d47440000000000000000000000000000000000000000000000000000000000815250612022565b61127761207f565b8460fb60006101000a81548173ffffffffffffffffffffffffffffffffffffffff021916908373ffffffffffffffffffffffffffffffffffffffff1602179055508360fc60006101000a81548173ffffffffffffffffffffffffffffffffffffffff021916908373ffffffffffffffffffffffffffffffffffffffff1602179055508260fd60006101000a81548173ffffffffffffffffffffffffffffffffffffffff021916908373ffffffffffffffffffffffffffffffffffffffff1602179055508160fe60006101000a81548173ffffffffffffffffffffffffffffffffffffffff021916908373ffffffffffffffffffffffffffffffffffffffff16021790555080156113d45760008060016101000a81548160ff0219169083151502179055507f7f26b83ff96e1f2b6a682f133852f6798a09c465da95921460cefb384740249860016040516113cb9190613c6c565b60405180910390a15b5050505050565b60fc60009054906101000a900473ffffffffffffffffffffffffffffffffffffffff1681565b60007f80ac58cd000000000000000000000000000000000000000000000000000000007bffffffffffffffffffffffffffffffffffffffffffffffffffffffff1916827bffffffffffffffffffffffffffffffffffffffffffffffffffffffff191614806114cc57507f5b5e139f000000000000000000000000000000000000000000000000000000007bffffffffffffffffffffffffffffffffffffffffffffffffffffffff1916827bffffffffffffffffffffffffffffffffffffffffffffffffffffffff1916145b806114dc57506114db826120d8565b5b9050919050565b60008073ffffffffffffffffffffffffffffffffffffffff166067600084815260200190815260200160002060009054906101000a900473ffffffffffffffffffffffffffffffffffffffff1673ffffffffffffffffffffffffffffffffffffffff1614159050919050565b600033905090565b816069600083815260200190815260200160002060006101000a81548173ffffffffffffffffffffffffffffffffffffffff021916908373ffffffffffffffffffffffffffffffffffffffff160217905550808273ffffffffffffffffffffffffffffffffffffffff166115ca836109da565b73ffffffffffffffffffffffffffffffffffffffff167f8c5be1e5ebec7d5bd14f71427d1e84f3dd0314c0f7b2291e5b200ac8c7c3b92560405160405180910390a45050565b600061161b826114e3565b61165a576040517f08c379a000000000000000000000000000000000000000000000000000000000815260040161165190613cf9565b60405180910390fd5b6000611665836109da565b90508073ffffffffffffffffffffffffffffffffffffffff168473ffffffffffffffffffffffffffffffffffffffff1614806116a757506116a68185610f6e565b5b806116e557508373ffffffffffffffffffffffffffffffffffffffff166116cd84610675565b73ffffffffffffffffffffffffffffffffffffffff16145b91505092915050565b8273ffffffffffffffffffffffffffffffffffffffff1661170e826109da565b73ffffffffffffffffffffffffffffffffffffffff1614611764576040517f08c379a000000000000000000000000000000000000000000000000000000000815260040161175b90613d8b565b60405180910390fd5b600073ffffffffffffffffffffffffffffffffffffffff168273ffffffffffffffffffffffffffffffffffffffff16036117d3576040517f08c379a00000000000000000000000000000000000000000000000000000000081526004016117ca90613e1d565b60405180910390fd5b6117de838383612142565b6117e9600082611557565b6001606860008573ffffffffffffffffffffffffffffffffffffffff1673ffffffffffffffffffffffffffffffffffffffff16815260200190815260200160002060008282546118399190613e3d565b925050819055506001606860008473ffffffffffffffffffffffffffffffffffffffff1673ffffffffffffffffffffffffffffffffffffffff16815260200190815260200160002060008282546118909190613567565b92505081905550816067600083815260200190815260200160002060006101000a81548173ffffffffffffffffffffffffffffffffffffffff021916908373ffffffffffffffffffffffffffffffffffffffff160217905550808273ffffffffffffffffffffffffffffffffffffffff168473ffffffffffffffffffffffffffffffffffffffff167fddf252ad1be2c89b69c2b068fc378daa952ba7f163c4a11628f55a4df523b3ef60405160405180910390a461194f838383612254565b505050565b600073ffffffffffffffffffffffffffffffffffffffff168273ffffffffffffffffffffffffffffffffffffffff16036119c3576040517f08c379a00000000000000000000000000000000000000000000000000000000081526004016119ba90613ebd565b60405180910390fd5b6119cc816114e3565b15611a0c576040517f08c379a0000000000000000000000000000000000000000000000000000000008152600401611a0390613f29565b60405180910390fd5b611a1860008383612142565b6001606860008473ffffffffffffffffffffffffffffffffffffffff1673ffffffffffffffffffffffffffffffffffffffff1681526020019081526020016000206000828254611a689190613567565b92505081905550816067600083815260200190815260200160002060006101000a81548173ffffffffffffffffffffffffffffffffffffffff021916908373ffffffffffffffffffffffffffffffffffffffff160217905550808273ffffffffffffffffffffffffffffffffffffffff16600073ffffffffffffffffffffffffffffffffffffffff167fddf252ad1be2c89b69c2b068fc378daa952ba7f163c4a11628f55a4df523b3ef60405160405180910390a4611b2960008383612254565b5050565b600060c960009054906101000a900473ffffffffffffffffffffffffffffffffffffffff1690508160c960006101000a81548173ffffffffffffffffffffffffffffffffffffffff021916908373ffffffffffffffffffffffffffffffffffffffff1602179055508173ffffffffffffffffffffffffffffffffffffffff168173ffffffffffffffffffffffffffffffffffffffff167f8be0079c531659141344cd1fd0a4f28419497f9722a3daafe3b4186f6b6457e060405160405180910390a35050565b8173ffffffffffffffffffffffffffffffffffffffff168373ffffffffffffffffffffffffffffffffffffffff1603611c61576040517f08c379a0000000000000000000000000000000000000000000000000000000008152600401611c5890613f95565b60405180910390fd5b80606a60008573ffffffffffffffffffffffffffffffffffffffff1673ffffffffffffffffffffffffffffffffffffffff16815260200190815260200160002060008473ffffffffffffffffffffffffffffffffffffffff1673ffffffffffffffffffffffffffffffffffffffff16815260200190815260200160002060006101000a81548160ff0219169083151502179055508173ffffffffffffffffffffffffffffffffffffffff168373ffffffffffffffffffffffffffffffffffffffff167f17307eab39ab6107e8899845ad3d59bd9653f200f220920489ca2b5937696c3183604051611d529190612961565b60405180910390a3505050565b611d6a8484846116ee565b611d7684848484612259565b611db5576040517f08c379a0000000000000000000000000000000000000000000000000000000008152600401611dac90614027565b60405180910390fd5b50505050565b606060405180602001604052806000815250905090565b606060008203611e19576040518060400160405280600181526020017f30000000000000000000000000000000000000000000000000000000000000008152509050611f2d565b600082905060005b60008214611e4b578080611e3490614047565b915050600a82611e4491906140be565b9150611e21565b60008167ffffffffffffffff811115611e6757611e66612d02565b5b6040519080825280601f01601f191660200182016040528015611e995781602001600182028036833780820191505090505b5090505b60008514611f2657600182611eb29190613e3d565b9150600a85611ec191906140ef565b6030611ecd9190613567565b60f81b818381518110611ee357611ee261340b565b5b60200101907effffffffffffffffffffffffffffffffffffffffffffffffffffffffffffff1916908160001a905350600a85611f1f91906140be565b9450611e9d565b8093505050505b919050565b60008060019054906101000a900460ff1615611fa95760018260ff16148015611f615750611f5f306123e0565b155b611fa0576040517f08c379a0000000000000000000000000000000000000000000000000000000008152600401611f9790614192565b60405180910390fd5b6000905061201d565b8160ff1660008054906101000a900460ff1660ff1610611ffe576040517f08c379a0000000000000000000000000000000000000000000000000000000008152600401611ff590614192565b60405180910390fd5b816000806101000a81548160ff021916908360ff160217905550600190505b919050565b600060019054906101000a900460ff16612071576040517f08c379a000000000000000000000000000000000000000000000000000000000815260040161206890614224565b60405180910390fd5b61207b8282612403565b5050565b600060019054906101000a900460ff166120ce576040517f08c379a00000000000000000000000000000000000000000000000000000000081526004016120c590614224565b60405180910390fd5b6120d6612484565b565b60007f01ffc9a7000000000000000000000000000000000000000000000000000000007bffffffffffffffffffffffffffffffffffffffffffffffffffffffff1916827bffffffffffffffffffffffffffffffffffffffffffffffffffffffff1916149050919050565b61214d8383836124e5565b600073ffffffffffffffffffffffffffffffffffffffff168373ffffffffffffffffffffffffffffffffffffffff160361218f5761218a816124ea565b6121ce565b8173ffffffffffffffffffffffffffffffffffffffff168373ffffffffffffffffffffffffffffffffffffffff16146121cd576121cc8382612533565b5b5b600073ffffffffffffffffffffffffffffffffffffffff168273ffffffffffffffffffffffffffffffffffffffff16036122105761220b816126a0565b61224f565b8273ffffffffffffffffffffffffffffffffffffffff168273ffffffffffffffffffffffffffffffffffffffff161461224e5761224d8282612771565b5b5b505050565b505050565b600061227a8473ffffffffffffffffffffffffffffffffffffffff166123e0565b156123d3578373ffffffffffffffffffffffffffffffffffffffff1663150b7a026122a361154f565b8786866040518563ffffffff1660e01b81526004016122c59493929190614299565b6020604051808303816000875af192505050801561230157506040513d601f19601f820116820180604052508101906122fe91906142fa565b60015b612383573d8060008114612331576040519150601f19603f3d011682016040523d82523d6000602084013e612336565b606091505b50600081510361237b576040517f08c379a000000000000000000000000000000000000000000000000000000000815260040161237290614027565b60405180910390fd5b805181602001fd5b63150b7a0260e01b7bffffffffffffffffffffffffffffffffffffffffffffffffffffffff1916817bffffffffffffffffffffffffffffffffffffffffffffffffffffffff1916149150506123d8565b600190505b949350505050565b6000808273ffffffffffffffffffffffffffffffffffffffff163b119050919050565b600060019054906101000a900460ff16612452576040517f08c379a000000000000000000000000000000000000000000000000000000000815260040161244990614224565b60405180910390fd5b816065908051906020019061246892919061280a565b50806066908051906020019061247f92919061280a565b505050565b600060019054906101000a900460ff166124d3576040517f08c379a00000000000000000000000000000000000000000000000000000000081526004016124ca90614224565b60405180910390fd5b6124e36124de61154f565b611b2d565b565b505050565b609980549050609a600083815260200190815260200160002081905550609981908060018154018082558091505060019003906000526020600020016000909190919091505550565b6000600161254084610b65565b61254a9190613e3d565b905060006098600084815260200190815260200160002054905081811461262f576000609760008673ffffffffffffffffffffffffffffffffffffffff1673ffffffffffffffffffffffffffffffffffffffff168152602001908152602001600020600084815260200190815260200160002054905080609760008773ffffffffffffffffffffffffffffffffffffffff1673ffffffffffffffffffffffffffffffffffffffff168152602001908152602001600020600084815260200190815260200160002081905550816098600083815260200190815260200160002081905550505b6098600084815260200190815260200160002060009055609760008573ffffffffffffffffffffffffffffffffffffffff1673ffffffffffffffffffffffffffffffffffffffff16815260200190815260200160002060008381526020019081526020016000206000905550505050565b600060016099805490506126b49190613e3d565b90506000609a60008481526020019081526020016000205490506000609983815481106126e4576126e361340b565b5b9060005260206000200154905080609983815481106127065761270561340b565b5b906000526020600020018190555081609a600083815260200190815260200160002081905550609a600085815260200190815260200160002060009055609980548061275557612754614327565b5b6001900381819060005260206000200160009055905550505050565b600061277c83610b65565b905081609760008573ffffffffffffffffffffffffffffffffffffffff1673ffffffffffffffffffffffffffffffffffffffff168152602001908152602001600020600083815260200190815260200160002081905550806098600084815260200190815260200160002081905550505050565b604051806040016040528060008152602001606081525090565b8280546128169061306e565b90600052602060002090601f016020900481019282612838576000855561287f565b82601f1061285157805160ff191683800117855561287f565b8280016001018555821561287f579182015b8281111561287e578251825591602001919060010190612863565b5b50905061288c9190612890565b5090565b5b808211156128a9576000816000905550600101612891565b5090565b6000604051905090565b600080fd5b600080fd5b60007fffffffff0000000000000000000000000000000000000000000000000000000082169050919050565b6128f6816128c1565b811461290157600080fd5b50565b600081359050612913816128ed565b92915050565b60006020828403121561292f5761292e6128b7565b5b600061293d84828501612904565b91505092915050565b60008115159050919050565b61295b81612946565b82525050565b60006020820190506129766000830184612952565b92915050565b600081519050919050565b600082825260208201905092915050565b60005b838110156129b657808201518184015260208101905061299b565b838111156129c5576000848401525b50505050565b6000601f19601f8301169050919050565b60006129e78261297c565b6129f18185612987565b9350612a01818560208601612998565b612a0a816129cb565b840191505092915050565b60006020820190508181036000830152612a2f81846129dc565b905092915050565b6000819050919050565b612a4a81612a37565b8114612a5557600080fd5b50565b600081359050612a6781612a41565b92915050565b600060208284031215612a8357612a826128b7565b5b6000612a9184828501612a58565b91505092915050565b600073ffffffffffffffffffffffffffffffffffffffff82169050919050565b6000612ac582612a9a565b9050919050565b612ad581612aba565b82525050565b6000602082019050612af06000830184612acc565b92915050565b612aff81612aba565b8114612b0a57600080fd5b50565b600081359050612b1c81612af6565b92915050565b60008060408385031215612b3957612b386128b7565b5b6000612b4785828601612b0d565b9250506020612b5885828601612a58565b9150509250929050565b612b6b81612a37565b82525050565b6000602082019050612b866000830184612b62565b92915050565b600080600060608486031215612ba557612ba46128b7565b5b6000612bb386828701612b0d565b9350506020612bc486828701612b0d565b9250506040612bd586828701612a58565b9150509250925092565b600080fd5b600060408284031215612bfa57612bf9612bdf565b5b81905092915050565b60008060408385031215612c1a57612c196128b7565b5b6000612c2885828601612b0d565b925050602083013567ffffffffffffffff811115612c4957612c486128bc565b5b612c5585828601612be4565b9150509250929050565b600060208284031215612c7557612c746128b7565b5b6000612c8384828501612b0d565b91505092915050565b612c9581612946565b8114612ca057600080fd5b50565b600081359050612cb281612c8c565b92915050565b60008060408385031215612ccf57612cce6128b7565b5b6000612cdd85828601612b0d565b9250506020612cee85828601612ca3565b9150509250929050565b600080fd5b600080fd5b7f4e487b7100000000000000000000000000000000000000000000000000000000600052604160045260246000fd5b612d3a826129cb565b810181811067ffffffffffffffff82111715612d5957612d58612d02565b5b80604052505050565b6000612d6c6128ad565b9050612d788282612d31565b919050565b600067ffffffffffffffff821115612d9857612d97612d02565b5b612da1826129cb565b9050602081019050919050565b82818337600083830152505050565b6000612dd0612dcb84612d7d565b612d62565b905082815260208101848484011115612dec57612deb612cfd565b5b612df7848285612dae565b509392505050565b600082601f830112612e1457612e13612cf8565b5b8135612e24848260208601612dbd565b91505092915050565b60008060008060808587031215612e4757612e466128b7565b5b6000612e5587828801612b0d565b9450506020612e6687828801612b0d565b9350506040612e7787828801612a58565b925050606085013567ffffffffffffffff811115612e9857612e976128bc565b5b612ea487828801612dff565b91505092959194509250565b612eb981612a37565b82525050565b600082825260208201905092915050565b6000612edb8261297c565b612ee58185612ebf565b9350612ef5818560208601612998565b612efe816129cb565b840191505092915050565b6000604083016000830151612f216000860182612eb0565b5060208301518482036020860152612f398282612ed0565b9150508091505092915050565b60006020820190508181036000830152612f608184612f09565b905092915050565b60008060408385031215612f7f57612f7e6128b7565b5b6000612f8d85828601612b0d565b9250506020612f9e85828601612b0d565b9150509250929050565b6000604082019050612fbd6000830185612b62565b8181036020830152612fcf81846129dc565b90509392505050565b60008060008060808587031215612ff257612ff16128b7565b5b600061300087828801612b0d565b945050602061301187828801612b0d565b935050604061302287828801612b0d565b925050606061303387828801612b0d565b91505092959194509250565b7f4e487b7100000000000000000000000000000000000000000000000000000000600052602260045260246000fd5b6000600282049050600182168061308657607f821691505b6020821081036130995761309861303f565b5b50919050565b7f4552433732313a20617070726f76656420717565727920666f72206e6f6e657860008201527f697374656e7420746f6b656e0000000000000000000000000000000000000000602082015250565b60006130fb602c83612987565b91506131068261309f565b604082019050919050565b6000602082019050818103600083015261312a816130ee565b9050919050565b7f4552433732313a20617070726f76616c20746f2063757272656e74206f776e6560008201527f7200000000000000000000000000000000000000000000000000000000000000602082015250565b600061318d602183612987565b915061319882613131565b604082019050919050565b600060208201905081810360008301526131bc81613180565b9050919050565b7f4552433732313a20617070726f76652063616c6c6572206973206e6f74206f7760008201527f6e6572206e6f7220617070726f76656420666f7220616c6c0000000000000000602082015250565b600061321f603883612987565b915061322a826131c3565b604082019050919050565b6000602082019050818103600083015261324e81613212565b9050919050565b7f4552433732313a207472616e736665722063616c6c6572206973206e6f74206f60008201527f776e6572206e6f7220617070726f766564000000000000000000000000000000602082015250565b60006132b1603183612987565b91506132bc82613255565b604082019050919050565b600060208201905081810360008301526132e0816132a4565b9050919050565b7f455243373231456e756d657261626c653a206f776e657220696e646578206f7560008201527f74206f6620626f756e6473000000000000000000000000000000000000000000602082015250565b6000613343602b83612987565b915061334e826132e7565b604082019050919050565b6000602082019050818103600083015261337281613336565b9050919050565b7f455243373231456e756d657261626c653a20676c6f62616c20696e646578206f60008201527f7574206f6620626f756e64730000000000000000000000000000000000000000602082015250565b60006133d5602c83612987565b91506133e082613379565b604082019050919050565b60006020820190508181036000830152613404816133c8565b9050919050565b7f4e487b7100000000000000000000000000000000000000000000000000000000600052603260045260246000fd5b7f4552433732313a206f776e657220717565727920666f72206e6f6e657869737460008201527f656e7420746f6b656e0000000000000000000000000000000000000000000000602082015250565b6000613496602983612987565b91506134a18261343a565b604082019050919050565b600060208201905081810360008301526134c581613489565b9050919050565b7f4d616769614775696c64733a2072657374726963746564000000000000000000600082015250565b6000613502601783612987565b915061350d826134cc565b602082019050919050565b60006020820190508181036000830152613531816134f5565b9050919050565b7f4e487b7100000000000000000000000000000000000000000000000000000000600052601160045260246000fd5b600061357282612a37565b915061357d83612a37565b9250827fffffffffffffffffffffffffffffffffffffffffffffffffffffffffffffffff038211156135b2576135b1613538565b5b828201905092915050565b600081356135ca81612a41565b80915050919050565b60008160001b9050919050565b60007fffffffffffffffffffffffffffffffffffffffffffffffffffffffffffffffff61360c846135d3565b9350801983169250808416831791505092915050565b6000819050919050565b600061364761364261363d84612a37565b613622565b612a37565b9050919050565b6000819050919050565b6136618261362c565b61367461366d8261364e565b83546135e0565b8255505050565b600080fd5b600080fd5b600080fd5b600080833560016020038436030381126136a7576136a661367b565b5b80840192508235915067ffffffffffffffff8211156136c9576136c8613680565b5b6020830192506001820236038313156136e5576136e4613685565b5b509250929050565b600082905092915050565b60008190508160005260206000209050919050565b60006020601f8301049050919050565b600082821b905092915050565b60006008830261375a7fffffffffffffffffffffffffffffffffffffffffffffffffffffffffffffffff8261371d565b613764868361371d565b95508019841693508086168417925050509392505050565b6137858361362c565b6137996137918261364e565b84845461372a565b825550505050565b600090565b6137ae6137a1565b6137b981848461377c565b505050565b5b818110156137dd576137d26000826137a6565b6001810190506137bf565b5050565b601f821115613822576137f3816136f8565b6137fc8461370d565b8101602085101561380b578190505b61381f6138178561370d565b8301826137be565b50505b505050565b600082821c905092915050565b600061384560001984600802613827565b1980831691505092915050565b600061385e8383613834565b9150826002028217905092915050565b61387883836136ed565b67ffffffffffffffff81111561389157613890612d02565b5b61389b825461306e565b6138a68282856137e1565b6000601f8311600181146138d557600084156138c3578287013590505b6138cd8582613852565b865550613935565b601f1984166138e3866136f8565b60005b8281101561390b578489013582556001820191506020850194506020810190506138e6565b868310156139285784890135613924601f891682613834565b8355505b6001600288020188555050505b50505050505050565b61394983838361386e565b505050565b600081016000830180613960816135bd565b905061396c8184613658565b5050506001810160208301613981818561368a565b61398c81838661393e565b505050505050565b61399e828261394e565b5050565b7f4552433732313a2062616c616e636520717565727920666f7220746865207a6560008201527f726f206164647265737300000000000000000000000000000000000000000000602082015250565b60006139fe602a83612987565b9150613a09826139a2565b604082019050919050565b60006020820190508181036000830152613a2d816139f1565b9050919050565b7f4f776e61626c653a2063616c6c6572206973206e6f7420746865206f776e6572600082015250565b6000613a6a602083612987565b9150613a7582613a34565b602082019050919050565b60006020820190508181036000830152613a9981613a5d565b9050919050565b7f4552433732314d657461646174613a2055524920717565727920666f72206e6f60008201527f6e6578697374656e7420746f6b656e0000000000000000000000000000000000602082015250565b6000613afc602f83612987565b9150613b0782613aa0565b604082019050919050565b60006020820190508181036000830152613b2b81613aef565b9050919050565b600081905092915050565b6000613b488261297c565b613b528185613b32565b9350613b62818560208601612998565b80840191505092915050565b6000613b7a8285613b3d565b9150613b868284613b3d565b91508190509392505050565b7f4f776e61626c653a206e6577206f776e657220697320746865207a65726f206160008201527f6464726573730000000000000000000000000000000000000000000000000000602082015250565b6000613bee602683612987565b9150613bf982613b92565b604082019050919050565b60006020820190508181036000830152613c1d81613be1565b9050919050565b6000819050919050565b600060ff82169050919050565b6000613c56613c51613c4c84613c24565b613622565b613c2e565b9050919050565b613c6681613c3b565b82525050565b6000602082019050613c816000830184613c5d565b92915050565b7f4552433732313a206f70657261746f7220717565727920666f72206e6f6e657860008201527f697374656e7420746f6b656e0000000000000000000000000000000000000000602082015250565b6000613ce3602c83612987565b9150613cee82613c87565b604082019050919050565b60006020820190508181036000830152613d1281613cd6565b9050919050565b7f4552433732313a207472616e736665722066726f6d20696e636f72726563742060008201527f6f776e6572000000000000000000000000000000000000000000000000000000602082015250565b6000613d75602583612987565b9150613d8082613d19565b604082019050919050565b60006020820190508181036000830152613da481613d68565b9050919050565b7f4552433732313a207472616e7366657220746f20746865207a65726f2061646460008201527f7265737300000000000000000000000000000000000000000000000000000000602082015250565b6000613e07602483612987565b9150613e1282613dab565b604082019050919050565b60006020820190508181036000830152613e3681613dfa565b9050919050565b6000613e4882612a37565b9150613e5383612a37565b925082821015613e6657613e65613538565b5b828203905092915050565b7f4552433732313a206d696e7420746f20746865207a65726f2061646472657373600082015250565b6000613ea7602083612987565b9150613eb282613e71565b602082019050919050565b60006020820190508181036000830152613ed681613e9a565b9050919050565b7f4552433732313a20746f6b656e20616c7265616479206d696e74656400000000600082015250565b6000613f13601c83612987565b9150613f1e82613edd565b602082019050919050565b60006020820190508181036000830152613f4281613f06565b9050919050565b7f4552433732313a20617070726f766520746f2063616c6c657200000000000000600082015250565b6000613f7f601983612987565b9150613f8a82613f49565b602082019050919050565b60006020820190508181036000830152613fae81613f72565b9050919050565b7f4552433732313a207472616e7366657220746f206e6f6e20455243373231526560008201527f63656976657220696d706c656d656e7465720000000000000000000000000000602082015250565b6000614011603283612987565b915061401c82613fb5565b604082019050919050565b6000602082019050818103600083015261404081614004565b9050919050565b600061405282612a37565b91507fffffffffffffffffffffffffffffffffffffffffffffffffffffffffffffffff820361408457614083613538565b5b600182019050919050565b7f4e487b7100000000000000000000000000000000000000000000000000000000600052601260045260246000fd5b60006140c982612a37565b91506140d483612a37565b9250826140e4576140e361408f565b5b828204905092915050565b60006140fa82612a37565b915061410583612a37565b9250826141155761411461408f565b5b828206905092915050565b7f496e697469616c697a61626c653a20636f6e747261637420697320616c72656160008201527f647920696e697469616c697a6564000000000000000000000000000000000000602082015250565b600061417c602e83612987565b915061418782614120565b604082019050919050565b600060208201905081810360008301526141ab8161416f565b9050919050565b7f496e697469616c697a61626c653a20636f6e7472616374206973206e6f74206960008201527f6e697469616c697a696e67000000000000000000000000000000000000000000602082015250565b600061420e602b83612987565b9150614219826141b2565b604082019050919050565b6000602082019050818103600083015261423d81614201565b9050919050565b600081519050919050565b600082825260208201905092915050565b600061426b82614244565b614275818561424f565b9350614285818560208601612998565b61428e816129cb565b840191505092915050565b60006080820190506142ae6000830187612acc565b6142bb6020830186612acc565b6142c86040830185612b62565b81810360608301526142da8184614260565b905095945050505050565b6000815190506142f4816128ed565b92915050565b6000602082840312156143105761430f6128b7565b5b600061431e848285016142e5565b91505092915050565b7f4e487b7100000000000000000000000000000000000000000000000000000000600052603160045260246000fdfea26469706673582212208773c1bf987a714adbb589a408ba14ce4770049454ecdf2c021f8790fa7e099c64736f6c634300080d0033",
  "linkReferences": {},
  "deployedLinkReferences": {}
}