{
  "_format": "hh-sol-artifact-1",
  "contractName": "MagiaBuildings",
  "sourceName": "contracts/other/MagiaBuildings.sol",
  "abi": [
    {
      "anonymous": false,
      "inputs": [
        {
          "indexed": true,
          "internalType": "address",
          "name": "account",
          "type": "address"
        },
        {
          "indexed": true,
          "internalType": "address",
          "name": "operator",
          "type": "address"
        },
        {
          "indexed": false,
          "internalType": "bool",
          "name": "approved",
          "type": "bool"
        }
      ],
      "name": "ApprovalForAll",
      "type": "event"
    },
    {
      "anonymous": false,
      "inputs": [
        {
          "indexed": false,
          "internalType": "uint8",
          "name": "version",
          "type": "uint8"
        }
      ],
      "name": "Initialized",
      "type": "event"
    },
    {
      "anonymous": false,
      "inputs": [
        {
          "indexed": true,
          "internalType": "address",
          "name": "previousOwner",
          "type": "address"
        },
        {
          "indexed": true,
          "internalType": "address",
          "name": "newOwner",
          "type": "address"
        }
      ],
      "name": "OwnershipTransferred",
      "type": "event"
    },
    {
      "anonymous": false,
      "inputs": [
        {
          "indexed": true,
          "internalType": "address",
          "name": "operator",
          "type": "address"
        },
        {
          "indexed": true,
          "internalType": "address",
          "name": "from",
          "type": "address"
        },
        {
          "indexed": true,
          "internalType": "address",
          "name": "to",
          "type": "address"
        },
        {
          "indexed": false,
          "internalType": "uint256[]",
          "name": "ids",
          "type": "uint256[]"
        },
        {
          "indexed": false,
          "internalType": "uint256[]",
          "name": "values",
          "type": "uint256[]"
        }
      ],
      "name": "TransferBatch",
      "type": "event"
    },
    {
      "anonymous": false,
      "inputs": [
        {
          "indexed": true,
          "internalType": "address",
          "name": "operator",
          "type": "address"
        },
        {
          "indexed": true,
          "internalType": "address",
          "name": "from",
          "type": "address"
        },
        {
          "indexed": true,
          "internalType": "address",
          "name": "to",
          "type": "address"
        },
        {
          "indexed": false,
          "internalType": "uint256",
          "name": "id",
          "type": "uint256"
        },
        {
          "indexed": false,
          "internalType": "uint256",
          "name": "value",
          "type": "uint256"
        }
      ],
      "name": "TransferSingle",
      "type": "event"
    },
    {
      "anonymous": false,
      "inputs": [
        {
          "indexed": false,
          "internalType": "string",
          "name": "value",
          "type": "string"
        },
        {
          "indexed": true,
          "internalType": "uint256",
          "name": "id",
          "type": "uint256"
        }
      ],
      "name": "URI",
      "type": "event"
    },
    {
      "inputs": [
        {
          "internalType": "uint256",
          "name": "_id",
          "type": "uint256"
        },
        {
          "components": [
            {
              "internalType": "uint256",
              "name": "level",
              "type": "uint256"
            },
            {
              "internalType": "uint256",
              "name": "buildingType",
              "type": "uint256"
            },
            {
              "internalType": "uint256[3]",
              "name": "cost",
              "type": "uint256[3]"
            },
            {
              "internalType": "uint256",
              "name": "craftTime",
              "type": "uint256"
            },
            {
              "internalType": "string",
              "name": "name",
              "type": "string"
            }
          ],
          "internalType": "struct MagiaBuildings.Building",
          "name": "_building",
          "type": "tuple"
        }
      ],
      "name": "addBuilding",
      "outputs": [],
      "stateMutability": "nonpayable",
      "type": "function"
    },
    {
      "inputs": [
        {
          "internalType": "address",
          "name": "account",
          "type": "address"
        },
        {
          "internalType": "uint256",
          "name": "id",
          "type": "uint256"
        }
      ],
      "name": "balanceOf",
      "outputs": [
        {
          "internalType": "uint256",
          "name": "",
          "type": "uint256"
        }
      ],
      "stateMutability": "view",
      "type": "function"
    },
    {
      "inputs": [
        {
          "internalType": "address[]",
          "name": "accounts",
          "type": "address[]"
        },
        {
          "internalType": "uint256[]",
          "name": "ids",
          "type": "uint256[]"
        }
      ],
      "name": "balanceOfBatch",
      "outputs": [
        {
          "internalType": "uint256[]",
          "name": "",
          "type": "uint256[]"
        }
      ],
      "stateMutability": "view",
      "type": "function"
    },
    {
      "inputs": [
        {
          "internalType": "uint256",
          "name": "",
          "type": "uint256"
        }
      ],
      "name": "buildings",
      "outputs": [
        {
          "internalType": "uint256",
          "name": "level",
          "type": "uint256"
        },
        {
          "internalType": "uint256",
          "name": "buildingType",
          "type": "uint256"
        },
        {
          "internalType": "uint256",
          "name": "craftTime",
          "type": "uint256"
        },
        {
          "internalType": "string",
          "name": "name",
          "type": "string"
        }
      ],
      "stateMutability": "view",
      "type": "function"
    },
    {
      "inputs": [],
      "name": "gameDiamond",
      "outputs": [
        {
          "internalType": "address",
          "name": "",
          "type": "address"
        }
      ],
      "stateMutability": "view",
      "type": "function"
    },
    {
      "inputs": [],
      "name": "getBatchBuildings",
      "outputs": [
        {
          "components": [
            {
              "internalType": "uint256",
              "name": "level",
              "type": "uint256"
            },
            {
              "internalType": "uint256",
              "name": "buildingType",
              "type": "uint256"
            },
            {
              "internalType": "uint256[3]",
              "name": "cost",
              "type": "uint256[3]"
            },
            {
              "internalType": "uint256",
              "name": "craftTime",
              "type": "uint256"
            },
            {
              "internalType": "string",
              "name": "name",
              "type": "string"
            }
          ],
          "internalType": "struct MagiaBuildings.Building[6]",
          "name": "buildings_",
          "type": "tuple[6]"
        }
      ],
      "stateMutability": "view",
      "type": "function"
    },
    {
      "inputs": [
        {
          "internalType": "uint256",
          "name": "_buildingId",
          "type": "uint256"
        }
      ],
      "name": "getBuildingType",
      "outputs": [
        {
          "internalType": "uint256",
          "name": "",
          "type": "uint256"
        }
      ],
      "stateMutability": "view",
      "type": "function"
    },
    {
      "inputs": [
        {
          "internalType": "uint256",
          "name": "_buildingId",
          "type": "uint256"
        }
      ],
      "name": "getCost",
      "outputs": [
        {
          "internalType": "uint256[3]",
          "name": "",
          "type": "uint256[3]"
        }
      ],
      "stateMutability": "view",
      "type": "function"
    },
    {
      "inputs": [
        {
          "internalType": "uint256",
          "name": "_buildingId",
          "type": "uint256"
        }
      ],
      "name": "getCraftTime",
      "outputs": [
        {
          "internalType": "uint256",
          "name": "",
          "type": "uint256"
        }
      ],
      "stateMutability": "view",
      "type": "function"
    },
    {
      "inputs": [
        {
          "internalType": "uint256",
          "name": "_buildingId",
          "type": "uint256"
        }
      ],
      "name": "getLevel",
      "outputs": [
        {
          "internalType": "uint256",
          "name": "",
          "type": "uint256"
        }
      ],
      "stateMutability": "view",
      "type": "function"
    },
    {
      "inputs": [],
      "name": "gold",
      "outputs": [
        {
          "internalType": "address",
          "name": "",
          "type": "address"
        }
      ],
      "stateMutability": "view",
      "type": "function"
    },
    {
      "inputs": [
        {
          "internalType": "address",
          "name": "_gameDiamond",
          "type": "address"
        },
        {
          "internalType": "address",
          "name": "_gold",
          "type": "address"
        },
        {
          "internalType": "address",
          "name": "_lumber",
          "type": "address"
        },
        {
          "internalType": "address",
          "name": "_mana",
          "type": "address"
        }
      ],
      "name": "initialize",
      "outputs": [],
      "stateMutability": "nonpayable",
      "type": "function"
    },
    {
      "inputs": [
        {
          "internalType": "address",
          "name": "account",
          "type": "address"
        },
        {
          "internalType": "address",
          "name": "operator",
          "type": "address"
        }
      ],
      "name": "isApprovedForAll",
      "outputs": [
        {
          "internalType": "bool",
          "name": "",
          "type": "bool"
        }
      ],
      "stateMutability": "view",
      "type": "function"
    },
    {
      "inputs": [],
      "name": "lumber",
      "outputs": [
        {
          "internalType": "address",
          "name": "",
          "type": "address"
        }
      ],
      "stateMutability": "view",
      "type": "function"
    },
    {
      "inputs": [],
      "name": "mana",
      "outputs": [
        {
          "internalType": "address",
          "name": "",
          "type": "address"
        }
      ],
      "stateMutability": "view",
      "type": "function"
    },
    {
      "inputs": [
        {
          "internalType": "address",
          "name": "_account",
          "type": "address"
        },
        {
          "internalType": "uint256",
          "name": "_buildingId",
          "type": "uint256"
        }
      ],
      "name": "mint",
      "outputs": [],
      "stateMutability": "nonpayable",
      "type": "function"
    },
    {
      "inputs": [],
      "name": "owner",
      "outputs": [
        {
          "internalType": "address",
          "name": "",
          "type": "address"
        }
      ],
      "stateMutability": "view",
      "type": "function"
    },
    {
      "inputs": [],
      "name": "renounceOwnership",
      "outputs": [],
      "stateMutability": "nonpayable",
      "type": "function"
    },
    {
      "inputs": [
        {
          "internalType": "address",
          "name": "from",
          "type": "address"
        },
        {
          "internalType": "address",
          "name": "to",
          "type": "address"
        },
        {
          "internalType": "uint256[]",
          "name": "ids",
          "type": "uint256[]"
        },
        {
          "internalType": "uint256[]",
          "name": "amounts",
          "type": "uint256[]"
        },
        {
          "internalType": "bytes",
          "name": "data",
          "type": "bytes"
        }
      ],
      "name": "safeBatchTransferFrom",
      "outputs": [],
      "stateMutability": "nonpayable",
      "type": "function"
    },
    {
      "inputs": [
        {
          "internalType": "address",
          "name": "from",
          "type": "address"
        },
        {
          "internalType": "address",
          "name": "to",
          "type": "address"
        },
        {
          "internalType": "uint256",
          "name": "id",
          "type": "uint256"
        },
        {
          "internalType": "uint256",
          "name": "amount",
          "type": "uint256"
        },
        {
          "internalType": "bytes",
          "name": "data",
          "type": "bytes"
        }
      ],
      "name": "safeTransferFrom",
      "outputs": [],
      "stateMutability": "nonpayable",
      "type": "function"
    },
    {
      "inputs": [
        {
          "internalType": "address",
          "name": "_gameDiamond",
          "type": "address"
        },
        {
          "internalType": "address",
          "name": "_gold",
          "type": "address"
        },
        {
          "internalType": "address",
          "name": "_lumber",
          "type": "address"
        },
        {
          "internalType": "address",
          "name": "_mana",
          "type": "address"
        }
      ],
      "name": "setAddresses",
      "outputs": [],
      "stateMutability": "nonpayable",
      "type": "function"
    },
    {
      "inputs": [
        {
          "internalType": "address",
          "name": "operator",
          "type": "address"
        },
        {
          "internalType": "bool",
          "name": "approved",
          "type": "bool"
        }
      ],
      "name": "setApprovalForAll",
      "outputs": [],
      "stateMutability": "nonpayable",
      "type": "function"
    },
    {
      "inputs": [
        {
          "internalType": "bytes4",
          "name": "interfaceId",
          "type": "bytes4"
        }
      ],
      "name": "supportsInterface",
      "outputs": [
        {
          "internalType": "bool",
          "name": "",
          "type": "bool"
        }
      ],
      "stateMutability": "view",
      "type": "function"
    },
    {
      "inputs": [
        {
          "internalType": "address",
          "name": "newOwner",
          "type": "address"
        }
      ],
      "name": "transferOwnership",
      "outputs": [],
      "stateMutability": "nonpayable",
      "type": "function"
    },
    {
      "inputs": [
        {
          "internalType": "uint256",
          "name": "",
          "type": "uint256"
        }
      ],
      "name": "uri",
      "outputs": [
        {
          "internalType": "string",
          "name": "",
          "type": "string"
        }
      ],
      "stateMutability": "view",
      "type": "function"
    }
  ],
  "bytecode": "0x608060405234801561001057600080fd5b506145c5806100206000396000f3fe608060405234801561001057600080fd5b50600436106101725760003560e01c8063715018a6116100de578063e985e9c511610097578063f7c0d44f11610071578063f7c0d44f14610482578063f8c8765e146104a0578063f9fe849a146104bc578063fbec6f21146104da57610172565b8063e985e9c51461041a578063f242432a1461044a578063f2fde38b1461046657610172565b8063715018a61461036c57806386481d40146103765780638da5cb5b146103a6578063a22cb465146103c4578063bdb001a7146103e0578063cf0c70e2146103fe57610172565b806340c10f191161013057806340c10f19146102715780634a945f8d1461028d5780634c96a062146102a95780634e1273f4146102dc5780635a4dd47d1461030c5780636ea3ee3b1461033c57610172565b8062fdd58e1461017757806301ffc9a7146101a75780630e89341c146101d7578063278e2f68146102075780632ab82d6c146102375780632eb2c2d614610255575b600080fd5b610191600480360381019061018c91906126a3565b6104f8565b60405161019e91906126f2565b60405180910390f35b6101c160048036038101906101bc9190612765565b6105c1565b6040516101ce91906127ad565b60405180910390f35b6101f160048036038101906101ec91906127c8565b6106a3565b6040516101fe919061288e565b60405180910390f35b610221600480360381019061021c91906127c8565b610737565b60405161022e91906126f2565b60405180910390f35b61023f610757565b60405161024c91906128bf565b60405180910390f35b61026f600480360381019061026a9190612ad7565b61077d565b005b61028b600480360381019061028691906126a3565b61081e565b005b6102a760048036038101906102a29190612ba6565b6108ce565b005b6102c360048036038101906102be91906127c8565b610a54565b6040516102d39493929190612c0d565b60405180910390f35b6102f660048036038101906102f19190612d1c565b610b0c565b6040516103039190612e52565b60405180910390f35b610326600480360381019061032191906127c8565b610c25565b6040516103339190612ef8565b60405180910390f35b610356600480360381019061035191906127c8565b610c86565b60405161036391906126f2565b60405180910390f35b610374610ca6565b005b610390600480360381019061038b91906127c8565b610d2e565b60405161039d91906126f2565b60405180910390f35b6103ae610d4e565b6040516103bb91906128bf565b60405180910390f35b6103de60048036038101906103d99190612f3f565b610d78565b005b6103e8610d8e565b6040516103f591906128bf565b60405180910390f35b61041860048036038101906104139190612fa3565b610db4565b005b610434600480360381019061042f9190612fff565b610e57565b60405161044191906127ad565b60405180910390f35b610464600480360381019061045f919061303f565b610eeb565b005b610480600480360381019061047b91906130d6565b610f8c565b005b61048a611083565b60405161049791906128bf565b60405180910390f35b6104ba60048036038101906104b59190612ba6565b6110a9565b005b6104c461125d565b6040516104d191906132db565b60405180910390f35b6104e26113c2565b6040516104ef91906128bf565b60405180910390f35b60008073ffffffffffffffffffffffffffffffffffffffff168373ffffffffffffffffffffffffffffffffffffffff1603610568576040517f08c379a000000000000000000000000000000000000000000000000000000000815260040161055f9061336f565b60405180910390fd5b6065600083815260200190815260200160002060008473ffffffffffffffffffffffffffffffffffffffff1673ffffffffffffffffffffffffffffffffffffffff16815260200190815260200160002054905092915050565b60007fd9b67a26000000000000000000000000000000000000000000000000000000007bffffffffffffffffffffffffffffffffffffffffffffffffffffffff1916827bffffffffffffffffffffffffffffffffffffffffffffffffffffffff1916148061068c57507f0e89341c000000000000000000000000000000000000000000000000000000007bffffffffffffffffffffffffffffffffffffffffffffffffffffffff1916827bffffffffffffffffffffffffffffffffffffffffffffffffffffffff1916145b8061069c575061069b826113e8565b5b9050919050565b6060606780546106b2906133be565b80601f01602080910402602001604051908101604052809291908181526020018280546106de906133be565b801561072b5780601f106107005761010080835404028352916020019161072b565b820191906000526020600020905b81548152906001019060200180831161070e57829003601f168201915b50505050509050919050565b600060cd6000838152602001908152602001600020600501549050919050565b60cb60009054906101000a900473ffffffffffffffffffffffffffffffffffffffff1681565b610785611452565b73ffffffffffffffffffffffffffffffffffffffff168573ffffffffffffffffffffffffffffffffffffffff1614806107cb57506107ca856107c5611452565b610e57565b5b61080a576040517f08c379a000000000000000000000000000000000000000000000000000000000815260040161080190613461565b60405180910390fd5b610817858585858561145a565b5050505050565b60c960009054906101000a900473ffffffffffffffffffffffffffffffffffffffff1673ffffffffffffffffffffffffffffffffffffffff163373ffffffffffffffffffffffffffffffffffffffff16146108ae576040517f08c379a00000000000000000000000000000000000000000000000000000000081526004016108a5906134cd565b60405180910390fd5b6108ca828260016040518060200160405280600081525061177e565b5050565b6108d6611452565b73ffffffffffffffffffffffffffffffffffffffff166108f4610d4e565b73ffffffffffffffffffffffffffffffffffffffff161461094a576040517f08c379a000000000000000000000000000000000000000000000000000000000815260040161094190613539565b60405180910390fd5b8360c960006101000a81548173ffffffffffffffffffffffffffffffffffffffff021916908373ffffffffffffffffffffffffffffffffffffffff1602179055508260ca60006101000a81548173ffffffffffffffffffffffffffffffffffffffff021916908373ffffffffffffffffffffffffffffffffffffffff1602179055508160cb60006101000a81548173ffffffffffffffffffffffffffffffffffffffff021916908373ffffffffffffffffffffffffffffffffffffffff1602179055508060cc60006101000a81548173ffffffffffffffffffffffffffffffffffffffff021916908373ffffffffffffffffffffffffffffffffffffffff16021790555050505050565b60cd602052806000526040600020600091509050806000015490806001015490806005015490806006018054610a89906133be565b80601f0160208091040260200160405190810160405280929190818152602001828054610ab5906133be565b8015610b025780601f10610ad757610100808354040283529160200191610b02565b820191906000526020600020905b815481529060010190602001808311610ae557829003601f168201915b5050505050905084565b60608151835114610b52576040517f08c379a0000000000000000000000000000000000000000000000000000000008152600401610b49906135cb565b60405180910390fd5b6000835167ffffffffffffffff811115610b6f57610b6e6128df565b5b604051908082528060200260200182016040528015610b9d5781602001602082028036833780820191505090505b50905060005b8451811015610c1a57610bea858281518110610bc257610bc16135eb565b5b6020026020010151858381518110610bdd57610bdc6135eb565b5b60200260200101516104f8565b828281518110610bfd57610bfc6135eb565b5b60200260200101818152505080610c1390613649565b9050610ba3565b508091505092915050565b610c2d6124d4565b60cd6000838152602001908152602001600020600201600380602002604051908101604052809291908260038015610c7a576020028201915b815481526020019060010190808311610c66575b50505050509050919050565b600060cd6000838152602001908152602001600020600101549050919050565b610cae611452565b73ffffffffffffffffffffffffffffffffffffffff16610ccc610d4e565b73ffffffffffffffffffffffffffffffffffffffff1614610d22576040517f08c379a0000000000000000000000000000000000000000000000000000000008152600401610d1990613539565b60405180910390fd5b610d2c600061192f565b565b600060cd6000838152602001908152602001600020600001549050919050565b6000609760009054906101000a900473ffffffffffffffffffffffffffffffffffffffff16905090565b610d8a610d83611452565b83836119f5565b5050565b60cc60009054906101000a900473ffffffffffffffffffffffffffffffffffffffff1681565b610dbc611452565b73ffffffffffffffffffffffffffffffffffffffff16610dda610d4e565b73ffffffffffffffffffffffffffffffffffffffff1614610e30576040517f08c379a0000000000000000000000000000000000000000000000000000000008152600401610e2790613539565b60405180910390fd5b8060cd60008481526020019081526020016000208181610e509190613c0a565b9050505050565b6000606660008473ffffffffffffffffffffffffffffffffffffffff1673ffffffffffffffffffffffffffffffffffffffff16815260200190815260200160002060008373ffffffffffffffffffffffffffffffffffffffff1673ffffffffffffffffffffffffffffffffffffffff16815260200190815260200160002060009054906101000a900460ff16905092915050565b610ef3611452565b73ffffffffffffffffffffffffffffffffffffffff168573ffffffffffffffffffffffffffffffffffffffff161480610f395750610f3885610f33611452565b610e57565b5b610f78576040517f08c379a0000000000000000000000000000000000000000000000000000000008152600401610f6f90613c8a565b60405180910390fd5b610f858585858585611b61565b5050505050565b610f94611452565b73ffffffffffffffffffffffffffffffffffffffff16610fb2610d4e565b73ffffffffffffffffffffffffffffffffffffffff1614611008576040517f08c379a0000000000000000000000000000000000000000000000000000000008152600401610fff90613539565b60405180910390fd5b600073ffffffffffffffffffffffffffffffffffffffff168173ffffffffffffffffffffffffffffffffffffffff1603611077576040517f08c379a000000000000000000000000000000000000000000000000000000000815260040161106e90613d1c565b60405180910390fd5b6110808161192f565b50565b60c960009054906101000a900473ffffffffffffffffffffffffffffffffffffffff1681565b60006110b56001611dff565b905080156110d9576001600060016101000a81548160ff0219169083151502179055505b6110f160405180602001604052806000815250611eef565b6110f9611f4a565b8460c960006101000a81548173ffffffffffffffffffffffffffffffffffffffff021916908373ffffffffffffffffffffffffffffffffffffffff1602179055508360ca60006101000a81548173ffffffffffffffffffffffffffffffffffffffff021916908373ffffffffffffffffffffffffffffffffffffffff1602179055508260cb60006101000a81548173ffffffffffffffffffffffffffffffffffffffff021916908373ffffffffffffffffffffffffffffffffffffffff1602179055508160cc60006101000a81548173ffffffffffffffffffffffffffffffffffffffff021916908373ffffffffffffffffffffffffffffffffffffffff16021790555080156112565760008060016101000a81548160ff0219169083151502179055507f7f26b83ff96e1f2b6a682f133852f6798a09c465da95921460cefb3847402498600160405161124d9190613d84565b60405180910390a15b5050505050565b6112656124f6565b60005b60068110156113be5760cd60006001836112829190613d9f565b81526020019081526020016000206040518060a00160405290816000820154815260200160018201548152602001600282016003806020026040519081016040528092919082600380156112eb576020028201915b8154815260200190600101908083116112d7575b505050505081526020016005820154815260200160068201805461130e906133be565b80601f016020809104026020016040519081016040528092919081815260200182805461133a906133be565b80156113875780601f1061135c57610100808354040283529160200191611387565b820191906000526020600020905b81548152906001019060200180831161136a57829003601f168201915b5050505050815250508282600681106113a3576113a26135eb565b5b602002018190525080806113b690613649565b915050611268565b5090565b60ca60009054906101000a900473ffffffffffffffffffffffffffffffffffffffff1681565b60007f01ffc9a7000000000000000000000000000000000000000000000000000000007bffffffffffffffffffffffffffffffffffffffffffffffffffffffff1916827bffffffffffffffffffffffffffffffffffffffffffffffffffffffff1916149050919050565b600033905090565b815183511461149e576040517f08c379a000000000000000000000000000000000000000000000000000000000815260040161149590613e67565b60405180910390fd5b600073ffffffffffffffffffffffffffffffffffffffff168473ffffffffffffffffffffffffffffffffffffffff160361150d576040517f08c379a000000000000000000000000000000000000000000000000000000000815260040161150490613ef9565b60405180910390fd5b6000611517611452565b9050611527818787878787611fa3565b60005b84518110156116db576000858281518110611548576115476135eb565b5b602002602001015190506000858381518110611567576115666135eb565b5b6020026020010151905060006065600084815260200190815260200160002060008b73ffffffffffffffffffffffffffffffffffffffff1673ffffffffffffffffffffffffffffffffffffffff16815260200190815260200160002054905081811015611609576040517f08c379a000000000000000000000000000000000000000000000000000000000815260040161160090613f8b565b60405180910390fd5b8181036065600085815260200190815260200160002060008c73ffffffffffffffffffffffffffffffffffffffff1673ffffffffffffffffffffffffffffffffffffffff16815260200190815260200160002081905550816065600085815260200190815260200160002060008b73ffffffffffffffffffffffffffffffffffffffff1673ffffffffffffffffffffffffffffffffffffffff16815260200190815260200160002060008282546116c09190613d9f565b92505081905550505050806116d490613649565b905061152a565b508473ffffffffffffffffffffffffffffffffffffffff168673ffffffffffffffffffffffffffffffffffffffff168273ffffffffffffffffffffffffffffffffffffffff167f4a39dc06d4c0dbc64b70af90fd698a233a518aa5d07e595d983b8c0526c8f7fb8787604051611752929190613fab565b60405180910390a4611768818787878787611fab565b611776818787878787611fb3565b505050505050565b600073ffffffffffffffffffffffffffffffffffffffff168473ffffffffffffffffffffffffffffffffffffffff16036117ed576040517f08c379a00000000000000000000000000000000000000000000000000000000081526004016117e490614054565b60405180910390fd5b60006117f7611452565b905060006118048561218a565b905060006118118561218a565b905061182283600089858589611fa3565b846065600088815260200190815260200160002060008973ffffffffffffffffffffffffffffffffffffffff1673ffffffffffffffffffffffffffffffffffffffff16815260200190815260200160002060008282546118829190613d9f565b925050819055508673ffffffffffffffffffffffffffffffffffffffff16600073ffffffffffffffffffffffffffffffffffffffff168473ffffffffffffffffffffffffffffffffffffffff167fc3d58168c5ae7397731d063d5bbf3d657854427343f4c083240f7aacaa2d0f628989604051611900929190614074565b60405180910390a461191783600089858589611fab565b61192683600089898989612204565b50505050505050565b6000609760009054906101000a900473ffffffffffffffffffffffffffffffffffffffff16905081609760006101000a81548173ffffffffffffffffffffffffffffffffffffffff021916908373ffffffffffffffffffffffffffffffffffffffff1602179055508173ffffffffffffffffffffffffffffffffffffffff168173ffffffffffffffffffffffffffffffffffffffff167f8be0079c531659141344cd1fd0a4f28419497f9722a3daafe3b4186f6b6457e060405160405180910390a35050565b8173ffffffffffffffffffffffffffffffffffffffff168373ffffffffffffffffffffffffffffffffffffffff1603611a63576040517f08c379a0000000000000000000000000000000000000000000000000000000008152600401611a5a9061410f565b60405180910390fd5b80606660008573ffffffffffffffffffffffffffffffffffffffff1673ffffffffffffffffffffffffffffffffffffffff16815260200190815260200160002060008473ffffffffffffffffffffffffffffffffffffffff1673ffffffffffffffffffffffffffffffffffffffff16815260200190815260200160002060006101000a81548160ff0219169083151502179055508173ffffffffffffffffffffffffffffffffffffffff168373ffffffffffffffffffffffffffffffffffffffff167f17307eab39ab6107e8899845ad3d59bd9653f200f220920489ca2b5937696c3183604051611b5491906127ad565b60405180910390a3505050565b600073ffffffffffffffffffffffffffffffffffffffff168473ffffffffffffffffffffffffffffffffffffffff1603611bd0576040517f08c379a0000000000000000000000000000000000000000000000000000000008152600401611bc790613ef9565b60405180910390fd5b6000611bda611452565b90506000611be78561218a565b90506000611bf48561218a565b9050611c04838989858589611fa3565b60006065600088815260200190815260200160002060008a73ffffffffffffffffffffffffffffffffffffffff1673ffffffffffffffffffffffffffffffffffffffff16815260200190815260200160002054905085811015611c9c576040517f08c379a0000000000000000000000000000000000000000000000000000000008152600401611c9390613f8b565b60405180910390fd5b8581036065600089815260200190815260200160002060008b73ffffffffffffffffffffffffffffffffffffffff1673ffffffffffffffffffffffffffffffffffffffff16815260200190815260200160002081905550856065600089815260200190815260200160002060008a73ffffffffffffffffffffffffffffffffffffffff1673ffffffffffffffffffffffffffffffffffffffff1681526020019081526020016000206000828254611d539190613d9f565b925050819055508773ffffffffffffffffffffffffffffffffffffffff168973ffffffffffffffffffffffffffffffffffffffff168573ffffffffffffffffffffffffffffffffffffffff167fc3d58168c5ae7397731d063d5bbf3d657854427343f4c083240f7aacaa2d0f628a8a604051611dd0929190614074565b60405180910390a4611de6848a8a86868a611fab565b611df4848a8a8a8a8a612204565b505050505050505050565b60008060019054906101000a900460ff1615611e765760018260ff16148015611e2e5750611e2c306123db565b155b611e6d576040517f08c379a0000000000000000000000000000000000000000000000000000000008152600401611e64906141a1565b60405180910390fd5b60009050611eea565b8160ff1660008054906101000a900460ff1660ff1610611ecb576040517f08c379a0000000000000000000000000000000000000000000000000000000008152600401611ec2906141a1565b60405180910390fd5b816000806101000a81548160ff021916908360ff160217905550600190505b919050565b600060019054906101000a900460ff16611f3e576040517f08c379a0000000000000000000000000000000000000000000000000000000008152600401611f3590614233565b60405180910390fd5b611f47816123fe565b50565b600060019054906101000a900460ff16611f99576040517f08c379a0000000000000000000000000000000000000000000000000000000008152600401611f9090614233565b60405180910390fd5b611fa1612459565b565b505050505050565b505050505050565b611fd28473ffffffffffffffffffffffffffffffffffffffff166123db565b15612182578373ffffffffffffffffffffffffffffffffffffffff1663bc197c8187878686866040518663ffffffff1660e01b81526004016120189594939291906142a8565b6020604051808303816000875af192505050801561205457506040513d601f19601f820116820180604052508101906120519190614325565b60015b6120f95761206061435f565b806308c379a0036120bc5750612074614381565b8061207f57506120be565b806040517f08c379a00000000000000000000000000000000000000000000000000000000081526004016120b3919061288e565b60405180910390fd5b505b6040517f08c379a00000000000000000000000000000000000000000000000000000000081526004016120f090614483565b60405180910390fd5b63bc197c8160e01b7bffffffffffffffffffffffffffffffffffffffffffffffffffffffff1916817bffffffffffffffffffffffffffffffffffffffffffffffffffffffff191614612180576040517f08c379a000000000000000000000000000000000000000000000000000000000815260040161217790614515565b60405180910390fd5b505b505050505050565b60606000600167ffffffffffffffff8111156121a9576121a86128df565b5b6040519080825280602002602001820160405280156121d75781602001602082028036833780820191505090505b50905082816000815181106121ef576121ee6135eb565b5b60200260200101818152505080915050919050565b6122238473ffffffffffffffffffffffffffffffffffffffff166123db565b156123d3578373ffffffffffffffffffffffffffffffffffffffff1663f23a6e6187878686866040518663ffffffff1660e01b8152600401612269959493929190614535565b6020604051808303816000875af19250505080156122a557506040513d601f19601f820116820180604052508101906122a29190614325565b60015b61234a576122b161435f565b806308c379a00361230d57506122c5614381565b806122d0575061230f565b806040517f08c379a0000000000000000000000000000000000000000000000000000000008152600401612304919061288e565b60405180910390fd5b505b6040517f08c379a000000000000000000000000000000000000000000000000000000000815260040161234190614483565b60405180910390fd5b63f23a6e6160e01b7bffffffffffffffffffffffffffffffffffffffffffffffffffffffff1916817bffffffffffffffffffffffffffffffffffffffffffffffffffffffff1916146123d1576040517f08c379a00000000000000000000000000000000000000000000000000000000081526004016123c890614515565b60405180910390fd5b505b505050505050565b6000808273ffffffffffffffffffffffffffffffffffffffff163b119050919050565b600060019054906101000a900460ff1661244d576040517f08c379a000000000000000000000000000000000000000000000000000000000815260040161244490614233565b60405180910390fd5b612456816124ba565b50565b600060019054906101000a900460ff166124a8576040517f08c379a000000000000000000000000000000000000000000000000000000000815260040161249f90614233565b60405180910390fd5b6124b86124b3611452565b61192f565b565b80606790805190602001906124d0929190612523565b5050565b6040518060600160405280600390602082028036833780820191505090505090565b6040518060c001604052806006905b61250d6125a9565b8152602001906001900390816125055790505090565b82805461252f906133be565b90600052602060002090601f0160209004810192826125515760008555612598565b82601f1061256a57805160ff1916838001178555612598565b82800160010185558215612598579182015b8281111561259757825182559160200191906001019061257c565b5b5090506125a591906125de565b5090565b6040518060a0016040528060008152602001600081526020016125ca6124d4565b815260200160008152602001606081525090565b5b808211156125f75760008160009055506001016125df565b5090565b6000604051905090565b600080fd5b600080fd5b600073ffffffffffffffffffffffffffffffffffffffff82169050919050565b600061263a8261260f565b9050919050565b61264a8161262f565b811461265557600080fd5b50565b60008135905061266781612641565b92915050565b6000819050919050565b6126808161266d565b811461268b57600080fd5b50565b60008135905061269d81612677565b92915050565b600080604083850312156126ba576126b9612605565b5b60006126c885828601612658565b92505060206126d98582860161268e565b9150509250929050565b6126ec8161266d565b82525050565b600060208201905061270760008301846126e3565b92915050565b60007fffffffff0000000000000000000000000000000000000000000000000000000082169050919050565b6127428161270d565b811461274d57600080fd5b50565b60008135905061275f81612739565b92915050565b60006020828403121561277b5761277a612605565b5b600061278984828501612750565b91505092915050565b60008115159050919050565b6127a781612792565b82525050565b60006020820190506127c2600083018461279e565b92915050565b6000602082840312156127de576127dd612605565b5b60006127ec8482850161268e565b91505092915050565b600081519050919050565b600082825260208201905092915050565b60005b8381101561282f578082015181840152602081019050612814565b8381111561283e576000848401525b50505050565b6000601f19601f8301169050919050565b6000612860826127f5565b61286a8185612800565b935061287a818560208601612811565b61288381612844565b840191505092915050565b600060208201905081810360008301526128a88184612855565b905092915050565b6128b98161262f565b82525050565b60006020820190506128d460008301846128b0565b92915050565b600080fd5b7f4e487b7100000000000000000000000000000000000000000000000000000000600052604160045260246000fd5b61291782612844565b810181811067ffffffffffffffff82111715612936576129356128df565b5b80604052505050565b60006129496125fb565b9050612955828261290e565b919050565b600067ffffffffffffffff821115612975576129746128df565b5b602082029050602081019050919050565b600080fd5b600061299e6129998461295a565b61293f565b905080838252602082019050602084028301858111156129c1576129c0612986565b5b835b818110156129ea57806129d6888261268e565b8452602084019350506020810190506129c3565b5050509392505050565b600082601f830112612a0957612a086128da565b5b8135612a1984826020860161298b565b91505092915050565b600080fd5b600067ffffffffffffffff821115612a4257612a416128df565b5b612a4b82612844565b9050602081019050919050565b82818337600083830152505050565b6000612a7a612a7584612a27565b61293f565b905082815260208101848484011115612a9657612a95612a22565b5b612aa1848285612a58565b509392505050565b600082601f830112612abe57612abd6128da565b5b8135612ace848260208601612a67565b91505092915050565b600080600080600060a08688031215612af357612af2612605565b5b6000612b0188828901612658565b9550506020612b1288828901612658565b945050604086013567ffffffffffffffff811115612b3357612b3261260a565b5b612b3f888289016129f4565b935050606086013567ffffffffffffffff811115612b6057612b5f61260a565b5b612b6c888289016129f4565b925050608086013567ffffffffffffffff811115612b8d57612b8c61260a565b5b612b9988828901612aa9565b9150509295509295909350565b60008060008060808587031215612bc057612bbf612605565b5b6000612bce87828801612658565b9450506020612bdf87828801612658565b9350506040612bf087828801612658565b9250506060612c0187828801612658565b91505092959194509250565b6000608082019050612c2260008301876126e3565b612c2f60208301866126e3565b612c3c60408301856126e3565b8181036060830152612c4e8184612855565b905095945050505050565b600067ffffffffffffffff821115612c7457612c736128df565b5b602082029050602081019050919050565b6000612c98612c9384612c59565b61293f565b90508083825260208201905060208402830185811115612cbb57612cba612986565b5b835b81811015612ce45780612cd08882612658565b845260208401935050602081019050612cbd565b5050509392505050565b600082601f830112612d0357612d026128da565b5b8135612d13848260208601612c85565b91505092915050565b60008060408385031215612d3357612d32612605565b5b600083013567ffffffffffffffff811115612d5157612d5061260a565b5b612d5d85828601612cee565b925050602083013567ffffffffffffffff811115612d7e57612d7d61260a565b5b612d8a858286016129f4565b9150509250929050565b600081519050919050565b600082825260208201905092915050565b6000819050602082019050919050565b612dc98161266d565b82525050565b6000612ddb8383612dc0565b60208301905092915050565b6000602082019050919050565b6000612dff82612d94565b612e098185612d9f565b9350612e1483612db0565b8060005b83811015612e45578151612e2c8882612dcf565b9750612e3783612de7565b925050600181019050612e18565b5085935050505092915050565b60006020820190508181036000830152612e6c8184612df4565b905092915050565b600060039050919050565b600081905092915050565b6000819050919050565b6000602082019050919050565b612eaa81612e74565b612eb48184612e7f565b9250612ebf82612e8a565b8060005b83811015612ef0578151612ed78782612dcf565b9650612ee283612e94565b925050600181019050612ec3565b505050505050565b6000606082019050612f0d6000830184612ea1565b92915050565b612f1c81612792565b8114612f2757600080fd5b50565b600081359050612f3981612f13565b92915050565b60008060408385031215612f5657612f55612605565b5b6000612f6485828601612658565b9250506020612f7585828601612f2a565b9150509250929050565b600080fd5b600060e08284031215612f9a57612f99612f7f565b5b81905092915050565b60008060408385031215612fba57612fb9612605565b5b6000612fc88582860161268e565b925050602083013567ffffffffffffffff811115612fe957612fe861260a565b5b612ff585828601612f84565b9150509250929050565b6000806040838503121561301657613015612605565b5b600061302485828601612658565b925050602061303585828601612658565b9150509250929050565b600080600080600060a0868803121561305b5761305a612605565b5b600061306988828901612658565b955050602061307a88828901612658565b945050604061308b8882890161268e565b935050606061309c8882890161268e565b925050608086013567ffffffffffffffff8111156130bd576130bc61260a565b5b6130c988828901612aa9565b9150509295509295909350565b6000602082840312156130ec576130eb612605565b5b60006130fa84828501612658565b91505092915050565b600060069050919050565b600081905092915050565b6000819050919050565b600081905092915050565b61313781612e74565b6131418184613123565b925061314c82612e8a565b8060005b8381101561317d5781516131648782612dcf565b965061316f83612e94565b925050600181019050613150565b505050505050565b600082825260208201905092915050565b60006131a1826127f5565b6131ab8185613185565b93506131bb818560208601612811565b6131c481612844565b840191505092915050565b600060e0830160008301516131e76000860182612dc0565b5060208301516131fa6020860182612dc0565b50604083015161320d604086018261312e565b50606083015161322060a0860182612dc0565b50608083015184820360c08601526132388282613196565b9150508091505092915050565b600061325183836131cf565b905092915050565b6000602082019050919050565b600061327182613103565b61327b818561310e565b93508360208202850161328d85613119565b8060005b858110156132c957848403895281516132aa8582613245565b94506132b583613259565b925060208a01995050600181019050613291565b50829750879550505050505092915050565b600060208201905081810360008301526132f58184613266565b905092915050565b7f455243313135353a2062616c616e636520717565727920666f7220746865207a60008201527f65726f2061646472657373000000000000000000000000000000000000000000602082015250565b6000613359602b83612800565b9150613364826132fd565b604082019050919050565b600060208201905081810360008301526133888161334c565b9050919050565b7f4e487b7100000000000000000000000000000000000000000000000000000000600052602260045260246000fd5b600060028204905060018216806133d657607f821691505b6020821081036133e9576133e861338f565b5b50919050565b7f455243313135353a207472616e736665722063616c6c6572206973206e6f742060008201527f6f776e6572206e6f7220617070726f7665640000000000000000000000000000602082015250565b600061344b603283612800565b9150613456826133ef565b604082019050919050565b6000602082019050818103600083015261347a8161343e565b9050919050565b7f4d616769614275696c64696e67733a2072657374726963746564000000000000600082015250565b60006134b7601a83612800565b91506134c282613481565b602082019050919050565b600060208201905081810360008301526134e6816134aa565b9050919050565b7f4f776e61626c653a2063616c6c6572206973206e6f7420746865206f776e6572600082015250565b6000613523602083612800565b915061352e826134ed565b602082019050919050565b6000602082019050818103600083015261355281613516565b9050919050565b7f455243313135353a206163636f756e747320616e6420696473206c656e67746860008201527f206d69736d617463680000000000000000000000000000000000000000000000602082015250565b60006135b5602983612800565b91506135c082613559565b604082019050919050565b600060208201905081810360008301526135e4816135a8565b9050919050565b7f4e487b7100000000000000000000000000000000000000000000000000000000600052603260045260246000fd5b7f4e487b7100000000000000000000000000000000000000000000000000000000600052601160045260246000fd5b60006136548261266d565b91507fffffffffffffffffffffffffffffffffffffffffffffffffffffffffffffffff82036136865761368561361a565b5b600182019050919050565b6000813561369e81612677565b80915050919050565b60008160001b9050919050565b60007fffffffffffffffffffffffffffffffffffffffffffffffffffffffffffffffff6136e0846136a7565b9350801983169250808416831791505092915050565b6000819050919050565b600061371b6137166137118461266d565b6136f6565b61266d565b9050919050565b6000819050919050565b61373582613700565b61374861374182613722565b83546136b4565b8255505050565b6000819050919050565b600060039050919050565b60008190506001806001038301049050919050565b6000819050919050565b600082821b905092915050565b6000600883026137c07fffffffffffffffffffffffffffffffffffffffffffffffffffffffffffffffff82613783565b6137ca8683613783565b95508019841693508086168417925050509392505050565b6137eb83613700565b6137ff6137f782613722565b848454613790565b825550505050565b600090565b613814613807565b61381f8184846137e2565b505050565b5b818110156138435761383860008261380c565b600181019050613825565b5050565b600082821c905092915050565b8183101561388d5761386582613764565b61386e84613764565b61387783613779565b8181018382016138878183613824565b50505050505b505050565b680100000000000000008211156138ac576138ab6128df565b5b6138b581613759565b6138c0838284613854565b505050565b600060039050919050565b6138d9826138c5565b6138e38183613892565b6138ec8361374f565b6138f583613779565b6000805b84811015613930578361390b81613691565b90506139188184866137e2565b602085019450600184019350506001810190506138f9565b50505050505050565b61394382826138d0565b5050565b600080fd5b600080fd5b600080fd5b6000808335600160200384360303811261397357613972613947565b5b80840192508235915067ffffffffffffffff8211156139955761399461394c565b5b6020830192506001820236038313156139b1576139b0613951565b5b509250929050565b600082905092915050565b60008190508160005260206000209050919050565b60006020601f8301049050919050565b5b81811015613a08576139fd60008261380c565b6001810190506139ea565b5050565b601f821115613a4d57613a1e816139c4565b613a27846139d9565b81016020851015613a36578190505b613a4a613a42856139d9565b8301826139e9565b50505b505050565b6000613a6360001984600802613847565b1980831691505092915050565b6000613a7c8383613a52565b9150826002028217905092915050565b613a9683836139b9565b67ffffffffffffffff811115613aaf57613aae6128df565b5b613ab982546133be565b613ac4828285613a0c565b6000601f831160018114613af35760008415613ae1578287013590505b613aeb8582613a70565b865550613b53565b601f198416613b01866139c4565b60005b82811015613b2957848901358255600182019150602085019450602081019050613b04565b86831015613b465784890135613b42601f891682613a52565b8355505b6001600288020188555050505b50505050505050565b613b67838383613a8c565b505050565b600081016000830180613b7e81613691565b9050613b8a818461372c565b505050600181016020830180613b9f81613691565b9050613bab818461372c565b505050600281016040830180613bc18184613939565b5050506005810160a0830180613bd681613691565b9050613be2818461372c565b5050506006810160c08301613bf78185613956565b613c02818386613b5c565b505050505050565b613c148282613b6c565b5050565b7f455243313135353a2063616c6c6572206973206e6f74206f776e6572206e6f7260008201527f20617070726f7665640000000000000000000000000000000000000000000000602082015250565b6000613c74602983612800565b9150613c7f82613c18565b604082019050919050565b60006020820190508181036000830152613ca381613c67565b9050919050565b7f4f776e61626c653a206e6577206f776e657220697320746865207a65726f206160008201527f6464726573730000000000000000000000000000000000000000000000000000602082015250565b6000613d06602683612800565b9150613d1182613caa565b604082019050919050565b60006020820190508181036000830152613d3581613cf9565b9050919050565b6000819050919050565b600060ff82169050919050565b6000613d6e613d69613d6484613d3c565b6136f6565b613d46565b9050919050565b613d7e81613d53565b82525050565b6000602082019050613d996000830184613d75565b92915050565b6000613daa8261266d565b9150613db58361266d565b9250827fffffffffffffffffffffffffffffffffffffffffffffffffffffffffffffffff03821115613dea57613de961361a565b5b828201905092915050565b7f455243313135353a2069647320616e6420616d6f756e7473206c656e6774682060008201527f6d69736d61746368000000000000000000000000000000000000000000000000602082015250565b6000613e51602883612800565b9150613e5c82613df5565b604082019050919050565b60006020820190508181036000830152613e8081613e44565b9050919050565b7f455243313135353a207472616e7366657220746f20746865207a65726f20616460008201527f6472657373000000000000000000000000000000000000000000000000000000602082015250565b6000613ee3602583612800565b9150613eee82613e87565b604082019050919050565b60006020820190508181036000830152613f1281613ed6565b9050919050565b7f455243313135353a20696e73756666696369656e742062616c616e636520666f60008201527f72207472616e7366657200000000000000000000000000000000000000000000602082015250565b6000613f75602a83612800565b9150613f8082613f19565b604082019050919050565b60006020820190508181036000830152613fa481613f68565b9050919050565b60006040820190508181036000830152613fc58185612df4565b90508181036020830152613fd98184612df4565b90509392505050565b7f455243313135353a206d696e7420746f20746865207a65726f2061646472657360008201527f7300000000000000000000000000000000000000000000000000000000000000602082015250565b600061403e602183612800565b915061404982613fe2565b604082019050919050565b6000602082019050818103600083015261406d81614031565b9050919050565b600060408201905061408960008301856126e3565b61409660208301846126e3565b9392505050565b7f455243313135353a2073657474696e6720617070726f76616c2073746174757360008201527f20666f722073656c660000000000000000000000000000000000000000000000602082015250565b60006140f9602983612800565b91506141048261409d565b604082019050919050565b60006020820190508181036000830152614128816140ec565b9050919050565b7f496e697469616c697a61626c653a20636f6e747261637420697320616c72656160008201527f647920696e697469616c697a6564000000000000000000000000000000000000602082015250565b600061418b602e83612800565b91506141968261412f565b604082019050919050565b600060208201905081810360008301526141ba8161417e565b9050919050565b7f496e697469616c697a61626c653a20636f6e7472616374206973206e6f74206960008201527f6e697469616c697a696e67000000000000000000000000000000000000000000602082015250565b600061421d602b83612800565b9150614228826141c1565b604082019050919050565b6000602082019050818103600083015261424c81614210565b9050919050565b600081519050919050565b600082825260208201905092915050565b600061427a82614253565b614284818561425e565b9350614294818560208601612811565b61429d81612844565b840191505092915050565b600060a0820190506142bd60008301886128b0565b6142ca60208301876128b0565b81810360408301526142dc8186612df4565b905081810360608301526142f08185612df4565b90508181036080830152614304818461426f565b90509695505050505050565b60008151905061431f81612739565b92915050565b60006020828403121561433b5761433a612605565b5b600061434984828501614310565b91505092915050565b60008160e01c9050919050565b600060033d111561437e5760046000803e61437b600051614352565b90505b90565b600060443d1061440e576143936125fb565b60043d036004823e80513d602482011167ffffffffffffffff821117156143bb57505061440e565b808201805167ffffffffffffffff8111156143d9575050505061440e565b80602083010160043d0385018111156143f657505050505061440e565b6144058260200185018661290e565b82955050505050505b90565b7f455243313135353a207472616e7366657220746f206e6f6e204552433131353560008201527f526563656976657220696d706c656d656e746572000000000000000000000000602082015250565b600061446d603483612800565b915061447882614411565b604082019050919050565b6000602082019050818103600083015261449c81614460565b9050919050565b7f455243313135353a204552433131353552656365697665722072656a6563746560008201527f6420746f6b656e73000000000000000000000000000000000000000000000000602082015250565b60006144ff602883612800565b915061450a826144a3565b604082019050919050565b6000602082019050818103600083015261452e816144f2565b9050919050565b600060a08201905061454a60008301886128b0565b61455760208301876128b0565b61456460408301866126e3565b61457160608301856126e3565b8181036080830152614583818461426f565b9050969550505050505056fea2646970667358221220c4a906e87c3d886b2c386c266b1d2e08f75139353f5c0b32369607d017a334b564736f6c634300080d0033",
  "linkReferences": {},
  "deployedLinkReferences": {}
}