{
  "_format": "hh-sol-artifact-1",
  "contractName": "MagiaQuests",
  "sourceName": "contracts/other/MagiaQuests.sol",
  "abi": [
    {
      "anonymous": false,
      "inputs": [
        {
          "indexed": true,
          "internalType": "address",
          "name": "owner",
          "type": "address"
        },
        {
          "indexed": true,
          "internalType": "address",
          "name": "approved",
          "type": "address"
        },
        {
          "indexed": true,
          "internalType": "uint256",
          "name": "tokenId",
          "type": "uint256"
        }
      ],
      "name": "Approval",
      "type": "event"
    },
    {
      "anonymous": false,
      "inputs": [
        {
          "indexed": true,
          "internalType": "address",
          "name": "owner",
          "type": "address"
        },
        {
          "indexed": true,
          "internalType": "address",
          "name": "operator",
          "type": "address"
        },
        {
          "indexed": false,
          "internalType": "bool",
          "name": "approved",
          "type": "bool"
        }
      ],
      "name": "ApprovalForAll",
      "type": "event"
    },
    {
      "anonymous": false,
      "inputs": [
        {
          "indexed": false,
          "internalType": "uint8",
          "name": "version",
          "type": "uint8"
        }
      ],
      "name": "Initialized",
      "type": "event"
    },
    {
      "anonymous": false,
      "inputs": [
        {
          "indexed": true,
          "internalType": "address",
          "name": "previousOwner",
          "type": "address"
        },
        {
          "indexed": true,
          "internalType": "address",
          "name": "newOwner",
          "type": "address"
        }
      ],
      "name": "OwnershipTransferred",
      "type": "event"
    },
    {
      "anonymous": false,
      "inputs": [
        {
          "indexed": true,
          "internalType": "address",
          "name": "from",
          "type": "address"
        },
        {
          "indexed": true,
          "internalType": "address",
          "name": "to",
          "type": "address"
        },
        {
          "indexed": true,
          "internalType": "uint256",
          "name": "tokenId",
          "type": "uint256"
        }
      ],
      "name": "Transfer",
      "type": "event"
    },
    {
      "inputs": [
        {
          "internalType": "address",
          "name": "to",
          "type": "address"
        },
        {
          "internalType": "uint256",
          "name": "tokenId",
          "type": "uint256"
        }
      ],
      "name": "approve",
      "outputs": [],
      "stateMutability": "nonpayable",
      "type": "function"
    },
    {
      "inputs": [
        {
          "internalType": "address",
          "name": "owner",
          "type": "address"
        }
      ],
      "name": "balanceOf",
      "outputs": [
        {
          "internalType": "uint256",
          "name": "",
          "type": "uint256"
        }
      ],
      "stateMutability": "view",
      "type": "function"
    },
    {
      "inputs": [
        {
          "internalType": "uint256",
          "name": "_questId",
          "type": "uint256"
        }
      ],
      "name": "checkQuest",
      "outputs": [],
      "stateMutability": "view",
      "type": "function"
    },
    {
      "inputs": [],
      "name": "gameDiamond",
      "outputs": [
        {
          "internalType": "address",
          "name": "",
          "type": "address"
        }
      ],
      "stateMutability": "view",
      "type": "function"
    },
    {
      "inputs": [
        {
          "internalType": "uint256",
          "name": "tokenId",
          "type": "uint256"
        }
      ],
      "name": "getApproved",
      "outputs": [
        {
          "internalType": "address",
          "name": "",
          "type": "address"
        }
      ],
      "stateMutability": "view",
      "type": "function"
    },
    {
      "inputs": [
        {
          "internalType": "uint256",
          "name": "_questId",
          "type": "uint256"
        }
      ],
      "name": "getQuest",
      "outputs": [
        {
          "components": [
            {
              "internalType": "uint256[]",
              "name": "mobsReqs",
              "type": "uint256[]"
            },
            {
              "internalType": "uint256",
              "name": "expReward",
              "type": "uint256"
            },
            {
              "internalType": "uint256",
              "name": "goldReward",
              "type": "uint256"
            },
            {
              "internalType": "uint256",
              "name": "lumberReward",
              "type": "uint256"
            },
            {
              "internalType": "uint256",
              "name": "manaReward",
              "type": "uint256"
            }
          ],
          "internalType": "struct MagiaQuests.Quest",
          "name": "",
          "type": "tuple"
        }
      ],
      "stateMutability": "view",
      "type": "function"
    },
    {
      "inputs": [],
      "name": "gold",
      "outputs": [
        {
          "internalType": "address",
          "name": "",
          "type": "address"
        }
      ],
      "stateMutability": "view",
      "type": "function"
    },
    {
      "inputs": [
        {
          "internalType": "address",
          "name": "_gameDiamond",
          "type": "address"
        },
        {
          "internalType": "address",
          "name": "_gold",
          "type": "address"
        },
        {
          "internalType": "address",
          "name": "_lumber",
          "type": "address"
        },
        {
          "internalType": "address",
          "name": "_mana",
          "type": "address"
        }
      ],
      "name": "initialize",
      "outputs": [],
      "stateMutability": "nonpayable",
      "type": "function"
    },
    {
      "inputs": [
        {
          "internalType": "address",
          "name": "owner",
          "type": "address"
        },
        {
          "internalType": "address",
          "name": "operator",
          "type": "address"
        }
      ],
      "name": "isApprovedForAll",
      "outputs": [
        {
          "internalType": "bool",
          "name": "",
          "type": "bool"
        }
      ],
      "stateMutability": "view",
      "type": "function"
    },
    {
      "inputs": [
        {
          "internalType": "uint256",
          "name": "_questId",
          "type": "uint256"
        },
        {
          "internalType": "uint256",
          "name": "_unitTypeId",
          "type": "uint256"
        }
      ],
      "name": "killUnit",
      "outputs": [],
      "stateMutability": "nonpayable",
      "type": "function"
    },
    {
      "inputs": [],
      "name": "lumber",
      "outputs": [
        {
          "internalType": "address",
          "name": "",
          "type": "address"
        }
      ],
      "stateMutability": "view",
      "type": "function"
    },
    {
      "inputs": [],
      "name": "mana",
      "outputs": [
        {
          "internalType": "address",
          "name": "",
          "type": "address"
        }
      ],
      "stateMutability": "view",
      "type": "function"
    },
    {
      "inputs": [
        {
          "internalType": "address",
          "name": "_account",
          "type": "address"
        },
        {
          "components": [
            {
              "internalType": "uint256[]",
              "name": "mobsReqs",
              "type": "uint256[]"
            },
            {
              "internalType": "uint256",
              "name": "expReward",
              "type": "uint256"
            },
            {
              "internalType": "uint256",
              "name": "goldReward",
              "type": "uint256"
            },
            {
              "internalType": "uint256",
              "name": "lumberReward",
              "type": "uint256"
            },
            {
              "internalType": "uint256",
              "name": "manaReward",
              "type": "uint256"
            }
          ],
          "internalType": "struct MagiaQuests.Quest",
          "name": "_quest",
          "type": "tuple"
        }
      ],
      "name": "mint",
      "outputs": [],
      "stateMutability": "nonpayable",
      "type": "function"
    },
    {
      "inputs": [],
      "name": "name",
      "outputs": [
        {
          "internalType": "string",
          "name": "",
          "type": "string"
        }
      ],
      "stateMutability": "view",
      "type": "function"
    },
    {
      "inputs": [],
      "name": "owner",
      "outputs": [
        {
          "internalType": "address",
          "name": "",
          "type": "address"
        }
      ],
      "stateMutability": "view",
      "type": "function"
    },
    {
      "inputs": [
        {
          "internalType": "uint256",
          "name": "tokenId",
          "type": "uint256"
        }
      ],
      "name": "ownerOf",
      "outputs": [
        {
          "internalType": "address",
          "name": "",
          "type": "address"
        }
      ],
      "stateMutability": "view",
      "type": "function"
    },
    {
      "inputs": [
        {
          "internalType": "uint256",
          "name": "",
          "type": "uint256"
        }
      ],
      "name": "quests",
      "outputs": [
        {
          "internalType": "uint256",
          "name": "expReward",
          "type": "uint256"
        },
        {
          "internalType": "uint256",
          "name": "goldReward",
          "type": "uint256"
        },
        {
          "internalType": "uint256",
          "name": "lumberReward",
          "type": "uint256"
        },
        {
          "internalType": "uint256",
          "name": "manaReward",
          "type": "uint256"
        }
      ],
      "stateMutability": "view",
      "type": "function"
    },
    {
      "inputs": [],
      "name": "renounceOwnership",
      "outputs": [],
      "stateMutability": "nonpayable",
      "type": "function"
    },
    {
      "inputs": [
        {
          "internalType": "address",
          "name": "from",
          "type": "address"
        },
        {
          "internalType": "address",
          "name": "to",
          "type": "address"
        },
        {
          "internalType": "uint256",
          "name": "tokenId",
          "type": "uint256"
        }
      ],
      "name": "safeTransferFrom",
      "outputs": [],
      "stateMutability": "nonpayable",
      "type": "function"
    },
    {
      "inputs": [
        {
          "internalType": "address",
          "name": "from",
          "type": "address"
        },
        {
          "internalType": "address",
          "name": "to",
          "type": "address"
        },
        {
          "internalType": "uint256",
          "name": "tokenId",
          "type": "uint256"
        },
        {
          "internalType": "bytes",
          "name": "_data",
          "type": "bytes"
        }
      ],
      "name": "safeTransferFrom",
      "outputs": [],
      "stateMutability": "nonpayable",
      "type": "function"
    },
    {
      "inputs": [
        {
          "internalType": "address",
          "name": "operator",
          "type": "address"
        },
        {
          "internalType": "bool",
          "name": "approved",
          "type": "bool"
        }
      ],
      "name": "setApprovalForAll",
      "outputs": [],
      "stateMutability": "nonpayable",
      "type": "function"
    },
    {
      "inputs": [
        {
          "internalType": "bytes4",
          "name": "interfaceId",
          "type": "bytes4"
        }
      ],
      "name": "supportsInterface",
      "outputs": [
        {
          "internalType": "bool",
          "name": "",
          "type": "bool"
        }
      ],
      "stateMutability": "view",
      "type": "function"
    },
    {
      "inputs": [],
      "name": "symbol",
      "outputs": [
        {
          "internalType": "string",
          "name": "",
          "type": "string"
        }
      ],
      "stateMutability": "view",
      "type": "function"
    },
    {
      "inputs": [
        {
          "internalType": "uint256",
          "name": "index",
          "type": "uint256"
        }
      ],
      "name": "tokenByIndex",
      "outputs": [
        {
          "internalType": "uint256",
          "name": "",
          "type": "uint256"
        }
      ],
      "stateMutability": "view",
      "type": "function"
    },
    {
      "inputs": [
        {
          "internalType": "address",
          "name": "owner",
          "type": "address"
        },
        {
          "internalType": "uint256",
          "name": "index",
          "type": "uint256"
        }
      ],
      "name": "tokenOfOwnerByIndex",
      "outputs": [
        {
          "internalType": "uint256",
          "name": "",
          "type": "uint256"
        }
      ],
      "stateMutability": "view",
      "type": "function"
    },
    {
      "inputs": [
        {
          "internalType": "uint256",
          "name": "tokenId",
          "type": "uint256"
        }
      ],
      "name": "tokenURI",
      "outputs": [
        {
          "internalType": "string",
          "name": "",
          "type": "string"
        }
      ],
      "stateMutability": "view",
      "type": "function"
    },
    {
      "inputs": [],
      "name": "totalSupply",
      "outputs": [
        {
          "internalType": "uint256",
          "name": "",
          "type": "uint256"
        }
      ],
      "stateMutability": "view",
      "type": "function"
    },
    {
      "inputs": [
        {
          "internalType": "address",
          "name": "from",
          "type": "address"
        },
        {
          "internalType": "address",
          "name": "to",
          "type": "address"
        },
        {
          "internalType": "uint256",
          "name": "tokenId",
          "type": "uint256"
        }
      ],
      "name": "transferFrom",
      "outputs": [],
      "stateMutability": "nonpayable",
      "type": "function"
    },
    {
      "inputs": [
        {
          "internalType": "address",
          "name": "newOwner",
          "type": "address"
        }
      ],
      "name": "transferOwnership",
      "outputs": [],
      "stateMutability": "nonpayable",
      "type": "function"
    }
  ],
  "bytecode": "0x608060405234801561001057600080fd5b506146a0806100206000396000f3fe608060405234801561001057600080fd5b50600436106101cf5760003560e01c806370a0823111610104578063bdb001a7116100a2578063f2fde38b11610071578063f2fde38b14610555578063f7c0d44f14610571578063f8c8765e1461058f578063fbec6f21146105ab576101cf565b8063bdb001a7146104a4578063c87b56dd146104c2578063e085f980146104f2578063e985e9c514610525576101cf565b806395d89b41116100de57806395d89b4114610432578063a22cb46514610450578063b88d4fde1461046c578063ba9c6b7c14610488576101cf565b806370a08231146103da578063715018a61461040a5780638da5cb5b14610414576101cf565b80632f745c591161017157806342842e0e1161014b57806342842e0e1461032e57806349f86f341461034a5780634f6ccce71461037a5780636352211e146103aa576101cf565b80632f745c59146102c657806330c40476146102f65780633d99a3b114610312576101cf565b8063095ea7b3116101ad578063095ea7b31461025257806318160ddd1461026e57806323b872dd1461028c5780632ab82d6c146102a8576101cf565b806301ffc9a7146101d457806306fdde0314610204578063081812fc14610222575b600080fd5b6101ee60048036038101906101e99190612aa6565b6105c9565b6040516101fb9190612aee565b60405180910390f35b61020c610643565b6040516102199190612ba2565b60405180910390f35b61023c60048036038101906102379190612bfa565b6106d5565b6040516102499190612c68565b60405180910390f35b61026c60048036038101906102679190612caf565b61075a565b005b610276610871565b6040516102839190612cfe565b60405180910390f35b6102a660048036038101906102a19190612d19565b61087e565b005b6102b06108de565b6040516102bd9190612c68565b60405180910390f35b6102e060048036038101906102db9190612caf565b610904565b6040516102ed9190612cfe565b60405180910390f35b610310600480360381019061030b9190612d6c565b6109a9565b005b61032c60048036038101906103279190612bfa565b610ac1565b005b61034860048036038101906103439190612d19565b610b59565b005b610364600480360381019061035f9190612bfa565b610b79565b6040516103719190612ee0565b60405180910390f35b610394600480360381019061038f9190612bfa565b610c26565b6040516103a19190612cfe565b60405180910390f35b6103c460048036038101906103bf9190612bfa565b610c97565b6040516103d19190612c68565b60405180910390f35b6103f460048036038101906103ef9190612f02565b610d48565b6040516104019190612cfe565b60405180910390f35b610412610dff565b005b61041c610e87565b6040516104299190612c68565b60405180910390f35b61043a610eb1565b6040516104479190612ba2565b60405180910390f35b61046a60048036038101906104659190612f5b565b610f43565b005b610486600480360381019061048191906130d0565b610f59565b005b6104a2600480360381019061049d9190613177565b610fbb565b005b6104ac611095565b6040516104b99190612c68565b60405180910390f35b6104dc60048036038101906104d79190612bfa565b6110bb565b6040516104e99190612ba2565b60405180910390f35b61050c60048036038101906105079190612bfa565b611162565b60405161051c94939291906131d3565b60405180910390f35b61053f600480360381019061053a9190613218565b611192565b60405161054c9190612aee565b60405180910390f35b61056f600480360381019061056a9190612f02565b611226565b005b61057961131d565b6040516105869190612c68565b60405180910390f35b6105a960048036038101906105a49190613258565b611343565b005b6105b3611553565b6040516105c09190612c68565b60405180910390f35b60007f780e9d63000000000000000000000000000000000000000000000000000000007bffffffffffffffffffffffffffffffffffffffffffffffffffffffff1916827bffffffffffffffffffffffffffffffffffffffffffffffffffffffff1916148061063c575061063b82611579565b5b9050919050565b606060658054610652906132ee565b80601f016020809104026020016040519081016040528092919081815260200182805461067e906132ee565b80156106cb5780601f106106a0576101008083540402835291602001916106cb565b820191906000526020600020905b8154815290600101906020018083116106ae57829003601f168201915b5050505050905090565b60006106e08261165b565b61071f576040517f08c379a000000000000000000000000000000000000000000000000000000000815260040161071690613391565b60405180910390fd5b6069600083815260200190815260200160002060009054906101000a900473ffffffffffffffffffffffffffffffffffffffff169050919050565b600061076582610c97565b90508073ffffffffffffffffffffffffffffffffffffffff168373ffffffffffffffffffffffffffffffffffffffff16036107d5576040517f08c379a00000000000000000000000000000000000000000000000000000000081526004016107cc90613423565b60405180910390fd5b8073ffffffffffffffffffffffffffffffffffffffff166107f46116c7565b73ffffffffffffffffffffffffffffffffffffffff16148061082357506108228161081d6116c7565b611192565b5b610862576040517f08c379a0000000000000000000000000000000000000000000000000000000008152600401610859906134b5565b60405180910390fd5b61086c83836116cf565b505050565b6000609980549050905090565b61088f6108896116c7565b82611788565b6108ce576040517f08c379a00000000000000000000000000000000000000000000000000000000081526004016108c590613547565b60405180910390fd5b6108d9838383611866565b505050565b60fd60009054906101000a900473ffffffffffffffffffffffffffffffffffffffff1681565b600061090f83610d48565b8210610950576040517f08c379a0000000000000000000000000000000000000000000000000000000008152600401610947906135d9565b60405180910390fd5b609760008473ffffffffffffffffffffffffffffffffffffffff1673ffffffffffffffffffffffffffffffffffffffff168152602001908152602001600020600083815260200190815260200160002054905092915050565b60fb60009054906101000a900473ffffffffffffffffffffffffffffffffffffffff1673ffffffffffffffffffffffffffffffffffffffff163373ffffffffffffffffffffffffffffffffffffffff1614610a39576040517f08c379a0000000000000000000000000000000000000000000000000000000008152600401610a3090613645565b60405180910390fd5b600060ff60008481526020019081526020016000206000018281548110610a6357610a62613665565b5b90600052602060002001541115610abd5760ff60008381526020019081526020016000206000018181548110610a9c57610a9b613665565b5b906000526020600020016000815480929190610ab7906136c3565b91905055505b5050565b60005b600b811015610b5557600060ff60008481526020019081526020016000206000018281548110610af757610af6613665565b5b906000526020600020015414610b42576040517f08c379a0000000000000000000000000000000000000000000000000000000008152600401610b3990613738565b60405180910390fd5b8080610b4d90613758565b915050610ac4565b5050565b610b7483838360405180602001604052806000815250610f59565b505050565b610b81612968565b60ff60008381526020019081526020016000206040518060a001604052908160008201805480602002602001604051908101604052809291908181526020018280548015610bee57602002820191906000526020600020905b815481526020019060010190808311610bda575b505050505081526020016001820154815260200160028201548152602001600382015481526020016004820154815250509050919050565b6000610c30610871565b8210610c71576040517f08c379a0000000000000000000000000000000000000000000000000000000008152600401610c6890613812565b60405180910390fd5b60998281548110610c8557610c84613665565b5b90600052602060002001549050919050565b6000806067600084815260200190815260200160002060009054906101000a900473ffffffffffffffffffffffffffffffffffffffff169050600073ffffffffffffffffffffffffffffffffffffffff168173ffffffffffffffffffffffffffffffffffffffff1603610d3f576040517f08c379a0000000000000000000000000000000000000000000000000000000008152600401610d36906138a4565b60405180910390fd5b80915050919050565b60008073ffffffffffffffffffffffffffffffffffffffff168273ffffffffffffffffffffffffffffffffffffffff1603610db8576040517f08c379a0000000000000000000000000000000000000000000000000000000008152600401610daf90613936565b60405180910390fd5b606860008373ffffffffffffffffffffffffffffffffffffffff1673ffffffffffffffffffffffffffffffffffffffff168152602001908152602001600020549050919050565b610e076116c7565b73ffffffffffffffffffffffffffffffffffffffff16610e25610e87565b73ffffffffffffffffffffffffffffffffffffffff1614610e7b576040517f08c379a0000000000000000000000000000000000000000000000000000000008152600401610e72906139a2565b60405180910390fd5b610e856000611acc565b565b600060c960009054906101000a900473ffffffffffffffffffffffffffffffffffffffff16905090565b606060668054610ec0906132ee565b80601f0160208091040260200160405190810160405280929190818152602001828054610eec906132ee565b8015610f395780601f10610f0e57610100808354040283529160200191610f39565b820191906000526020600020905b815481529060010190602001808311610f1c57829003601f168201915b5050505050905090565b610f55610f4e6116c7565b8383611b92565b5050565b610f6a610f646116c7565b83611788565b610fa9576040517f08c379a0000000000000000000000000000000000000000000000000000000008152600401610fa090613547565b60405180910390fd5b610fb584848484611cfe565b50505050565b60fb60009054906101000a900473ffffffffffffffffffffffffffffffffffffffff1673ffffffffffffffffffffffffffffffffffffffff163373ffffffffffffffffffffffffffffffffffffffff161461104b576040517f08c379a000000000000000000000000000000000000000000000000000000000815260040161104290613645565b60405180910390fd5b60006001611057610871565b61106191906139c2565b90508160ff600083815260200190815260200160002081816110839190613dee565b9050506110908382611d5a565b505050565b60fe60009054906101000a900473ffffffffffffffffffffffffffffffffffffffff1681565b60606110c68261165b565b611105576040517f08c379a00000000000000000000000000000000000000000000000000000000081526004016110fc90613e6e565b60405180910390fd5b600061110f611f33565b9050600081511161112f576040518060200160405280600081525061115a565b8061113984611f4a565b60405160200161114a929190613eca565b6040516020818303038152906040525b915050919050565b60ff6020528060005260406000206000915090508060010154908060020154908060030154908060040154905084565b6000606a60008473ffffffffffffffffffffffffffffffffffffffff1673ffffffffffffffffffffffffffffffffffffffff16815260200190815260200160002060008373ffffffffffffffffffffffffffffffffffffffff1673ffffffffffffffffffffffffffffffffffffffff16815260200190815260200160002060009054906101000a900460ff16905092915050565b61122e6116c7565b73ffffffffffffffffffffffffffffffffffffffff1661124c610e87565b73ffffffffffffffffffffffffffffffffffffffff16146112a2576040517f08c379a0000000000000000000000000000000000000000000000000000000008152600401611299906139a2565b60405180910390fd5b600073ffffffffffffffffffffffffffffffffffffffff168173ffffffffffffffffffffffffffffffffffffffff1603611311576040517f08c379a000000000000000000000000000000000000000000000000000000000815260040161130890613f60565b60405180910390fd5b61131a81611acc565b50565b60fb60009054906101000a900473ffffffffffffffffffffffffffffffffffffffff1681565b600061134f60016120aa565b90508015611373576001600060016101000a81548160ff0219169083151502179055505b6113e76040518060400160405280600b81526020017f4d616769615175657374730000000000000000000000000000000000000000008152506040518060400160405280600381526020017f4d5154000000000000000000000000000000000000000000000000000000000081525061219a565b6113ef6121f7565b8460fb60006101000a81548173ffffffffffffffffffffffffffffffffffffffff021916908373ffffffffffffffffffffffffffffffffffffffff1602179055508360fc60006101000a81548173ffffffffffffffffffffffffffffffffffffffff021916908373ffffffffffffffffffffffffffffffffffffffff1602179055508260fd60006101000a81548173ffffffffffffffffffffffffffffffffffffffff021916908373ffffffffffffffffffffffffffffffffffffffff1602179055508160fe60006101000a81548173ffffffffffffffffffffffffffffffffffffffff021916908373ffffffffffffffffffffffffffffffffffffffff160217905550801561154c5760008060016101000a81548160ff0219169083151502179055507f7f26b83ff96e1f2b6a682f133852f6798a09c465da95921460cefb384740249860016040516115439190613fc8565b60405180910390a15b5050505050565b60fc60009054906101000a900473ffffffffffffffffffffffffffffffffffffffff1681565b60007f80ac58cd000000000000000000000000000000000000000000000000000000007bffffffffffffffffffffffffffffffffffffffffffffffffffffffff1916827bffffffffffffffffffffffffffffffffffffffffffffffffffffffff1916148061164457507f5b5e139f000000000000000000000000000000000000000000000000000000007bffffffffffffffffffffffffffffffffffffffffffffffffffffffff1916827bffffffffffffffffffffffffffffffffffffffffffffffffffffffff1916145b80611654575061165382612250565b5b9050919050565b60008073ffffffffffffffffffffffffffffffffffffffff166067600084815260200190815260200160002060009054906101000a900473ffffffffffffffffffffffffffffffffffffffff1673ffffffffffffffffffffffffffffffffffffffff1614159050919050565b600033905090565b816069600083815260200190815260200160002060006101000a81548173ffffffffffffffffffffffffffffffffffffffff021916908373ffffffffffffffffffffffffffffffffffffffff160217905550808273ffffffffffffffffffffffffffffffffffffffff1661174283610c97565b73ffffffffffffffffffffffffffffffffffffffff167f8c5be1e5ebec7d5bd14f71427d1e84f3dd0314c0f7b2291e5b200ac8c7c3b92560405160405180910390a45050565b60006117938261165b565b6117d2576040517f08c379a00000000000000000000000000000000000000000000000000000000081526004016117c990614055565b60405180910390fd5b60006117dd83610c97565b90508073ffffffffffffffffffffffffffffffffffffffff168473ffffffffffffffffffffffffffffffffffffffff16148061181f575061181e8185611192565b5b8061185d57508373ffffffffffffffffffffffffffffffffffffffff16611845846106d5565b73ffffffffffffffffffffffffffffffffffffffff16145b91505092915050565b8273ffffffffffffffffffffffffffffffffffffffff1661188682610c97565b73ffffffffffffffffffffffffffffffffffffffff16146118dc576040517f08c379a00000000000000000000000000000000000000000000000000000000081526004016118d3906140e7565b60405180910390fd5b600073ffffffffffffffffffffffffffffffffffffffff168273ffffffffffffffffffffffffffffffffffffffff160361194b576040517f08c379a000000000000000000000000000000000000000000000000000000000815260040161194290614179565b60405180910390fd5b6119568383836122ba565b6119616000826116cf565b6001606860008573ffffffffffffffffffffffffffffffffffffffff1673ffffffffffffffffffffffffffffffffffffffff16815260200190815260200160002060008282546119b19190614199565b925050819055506001606860008473ffffffffffffffffffffffffffffffffffffffff1673ffffffffffffffffffffffffffffffffffffffff1681526020019081526020016000206000828254611a0891906139c2565b92505081905550816067600083815260200190815260200160002060006101000a81548173ffffffffffffffffffffffffffffffffffffffff021916908373ffffffffffffffffffffffffffffffffffffffff160217905550808273ffffffffffffffffffffffffffffffffffffffff168473ffffffffffffffffffffffffffffffffffffffff167fddf252ad1be2c89b69c2b068fc378daa952ba7f163c4a11628f55a4df523b3ef60405160405180910390a4611ac78383836123cc565b505050565b600060c960009054906101000a900473ffffffffffffffffffffffffffffffffffffffff1690508160c960006101000a81548173ffffffffffffffffffffffffffffffffffffffff021916908373ffffffffffffffffffffffffffffffffffffffff1602179055508173ffffffffffffffffffffffffffffffffffffffff168173ffffffffffffffffffffffffffffffffffffffff167f8be0079c531659141344cd1fd0a4f28419497f9722a3daafe3b4186f6b6457e060405160405180910390a35050565b8173ffffffffffffffffffffffffffffffffffffffff168373ffffffffffffffffffffffffffffffffffffffff1603611c00576040517f08c379a0000000000000000000000000000000000000000000000000000000008152600401611bf790614219565b60405180910390fd5b80606a60008573ffffffffffffffffffffffffffffffffffffffff1673ffffffffffffffffffffffffffffffffffffffff16815260200190815260200160002060008473ffffffffffffffffffffffffffffffffffffffff1673ffffffffffffffffffffffffffffffffffffffff16815260200190815260200160002060006101000a81548160ff0219169083151502179055508173ffffffffffffffffffffffffffffffffffffffff168373ffffffffffffffffffffffffffffffffffffffff167f17307eab39ab6107e8899845ad3d59bd9653f200f220920489ca2b5937696c3183604051611cf19190612aee565b60405180910390a3505050565b611d09848484611866565b611d15848484846123d1565b611d54576040517f08c379a0000000000000000000000000000000000000000000000000000000008152600401611d4b906142ab565b60405180910390fd5b50505050565b600073ffffffffffffffffffffffffffffffffffffffff168273ffffffffffffffffffffffffffffffffffffffff1603611dc9576040517f08c379a0000000000000000000000000000000000000000000000000000000008152600401611dc090614317565b60405180910390fd5b611dd28161165b565b15611e12576040517f08c379a0000000000000000000000000000000000000000000000000000000008152600401611e0990614383565b60405180910390fd5b611e1e600083836122ba565b6001606860008473ffffffffffffffffffffffffffffffffffffffff1673ffffffffffffffffffffffffffffffffffffffff1681526020019081526020016000206000828254611e6e91906139c2565b92505081905550816067600083815260200190815260200160002060006101000a81548173ffffffffffffffffffffffffffffffffffffffff021916908373ffffffffffffffffffffffffffffffffffffffff160217905550808273ffffffffffffffffffffffffffffffffffffffff16600073ffffffffffffffffffffffffffffffffffffffff167fddf252ad1be2c89b69c2b068fc378daa952ba7f163c4a11628f55a4df523b3ef60405160405180910390a4611f2f600083836123cc565b5050565b606060405180602001604052806000815250905090565b606060008203611f91576040518060400160405280600181526020017f300000000000000000000000000000000000000000000000000000000000000081525090506120a5565b600082905060005b60008214611fc3578080611fac90613758565b915050600a82611fbc91906143d2565b9150611f99565b60008167ffffffffffffffff811115611fdf57611fde612fa5565b5b6040519080825280601f01601f1916602001820160405280156120115781602001600182028036833780820191505090505b5090505b6000851461209e5760018261202a9190614199565b9150600a856120399190614403565b603061204591906139c2565b60f81b81838151811061205b5761205a613665565b5b60200101907effffffffffffffffffffffffffffffffffffffffffffffffffffffffffffff1916908160001a905350600a8561209791906143d2565b9450612015565b8093505050505b919050565b60008060019054906101000a900460ff16156121215760018260ff161480156120d957506120d730612558565b155b612118576040517f08c379a000000000000000000000000000000000000000000000000000000000815260040161210f906144a6565b60405180910390fd5b60009050612195565b8160ff1660008054906101000a900460ff1660ff1610612176576040517f08c379a000000000000000000000000000000000000000000000000000000000815260040161216d906144a6565b60405180910390fd5b816000806101000a81548160ff021916908360ff160217905550600190505b919050565b600060019054906101000a900460ff166121e9576040517f08c379a00000000000000000000000000000000000000000000000000000000081526004016121e090614538565b60405180910390fd5b6121f3828261257b565b5050565b600060019054906101000a900460ff16612246576040517f08c379a000000000000000000000000000000000000000000000000000000000815260040161223d90614538565b60405180910390fd5b61224e6125fc565b565b60007f01ffc9a7000000000000000000000000000000000000000000000000000000007bffffffffffffffffffffffffffffffffffffffffffffffffffffffff1916827bffffffffffffffffffffffffffffffffffffffffffffffffffffffff1916149050919050565b6122c583838361265d565b600073ffffffffffffffffffffffffffffffffffffffff168373ffffffffffffffffffffffffffffffffffffffff16036123075761230281612662565b612346565b8173ffffffffffffffffffffffffffffffffffffffff168373ffffffffffffffffffffffffffffffffffffffff16146123455761234483826126ab565b5b5b600073ffffffffffffffffffffffffffffffffffffffff168273ffffffffffffffffffffffffffffffffffffffff16036123885761238381612818565b6123c7565b8273ffffffffffffffffffffffffffffffffffffffff168273ffffffffffffffffffffffffffffffffffffffff16146123c6576123c582826128e9565b5b5b505050565b505050565b60006123f28473ffffffffffffffffffffffffffffffffffffffff16612558565b1561254b578373ffffffffffffffffffffffffffffffffffffffff1663150b7a0261241b6116c7565b8786866040518563ffffffff1660e01b815260040161243d94939291906145ad565b6020604051808303816000875af192505050801561247957506040513d601f19601f82011682018060405250810190612476919061460e565b60015b6124fb573d80600081146124a9576040519150601f19603f3d011682016040523d82523d6000602084013e6124ae565b606091505b5060008151036124f3576040517f08c379a00000000000000000000000000000000000000000000000000000000081526004016124ea906142ab565b60405180910390fd5b805181602001fd5b63150b7a0260e01b7bffffffffffffffffffffffffffffffffffffffffffffffffffffffff1916817bffffffffffffffffffffffffffffffffffffffffffffffffffffffff191614915050612550565b600190505b949350505050565b6000808273ffffffffffffffffffffffffffffffffffffffff163b119050919050565b600060019054906101000a900460ff166125ca576040517f08c379a00000000000000000000000000000000000000000000000000000000081526004016125c190614538565b60405180910390fd5b81606590805190602001906125e0929190612997565b5080606690805190602001906125f7929190612997565b505050565b600060019054906101000a900460ff1661264b576040517f08c379a000000000000000000000000000000000000000000000000000000000815260040161264290614538565b60405180910390fd5b61265b6126566116c7565b611acc565b565b505050565b609980549050609a600083815260200190815260200160002081905550609981908060018154018082558091505060019003906000526020600020016000909190919091505550565b600060016126b884610d48565b6126c29190614199565b90506000609860008481526020019081526020016000205490508181146127a7576000609760008673ffffffffffffffffffffffffffffffffffffffff1673ffffffffffffffffffffffffffffffffffffffff168152602001908152602001600020600084815260200190815260200160002054905080609760008773ffffffffffffffffffffffffffffffffffffffff1673ffffffffffffffffffffffffffffffffffffffff168152602001908152602001600020600084815260200190815260200160002081905550816098600083815260200190815260200160002081905550505b6098600084815260200190815260200160002060009055609760008573ffffffffffffffffffffffffffffffffffffffff1673ffffffffffffffffffffffffffffffffffffffff16815260200190815260200160002060008381526020019081526020016000206000905550505050565b6000600160998054905061282c9190614199565b90506000609a600084815260200190815260200160002054905060006099838154811061285c5761285b613665565b5b90600052602060002001549050806099838154811061287e5761287d613665565b5b906000526020600020018190555081609a600083815260200190815260200160002081905550609a60008581526020019081526020016000206000905560998054806128cd576128cc61463b565b5b6001900381819060005260206000200160009055905550505050565b60006128f483610d48565b905081609760008573ffffffffffffffffffffffffffffffffffffffff1673ffffffffffffffffffffffffffffffffffffffff168152602001908152602001600020600083815260200190815260200160002081905550806098600084815260200190815260200160002081905550505050565b6040518060a0016040528060608152602001600081526020016000815260200160008152602001600081525090565b8280546129a3906132ee565b90600052602060002090601f0160209004810192826129c55760008555612a0c565b82601f106129de57805160ff1916838001178555612a0c565b82800160010185558215612a0c579182015b82811115612a0b5782518255916020019190600101906129f0565b5b509050612a199190612a1d565b5090565b5b80821115612a36576000816000905550600101612a1e565b5090565b6000604051905090565b600080fd5b600080fd5b60007fffffffff0000000000000000000000000000000000000000000000000000000082169050919050565b612a8381612a4e565b8114612a8e57600080fd5b50565b600081359050612aa081612a7a565b92915050565b600060208284031215612abc57612abb612a44565b5b6000612aca84828501612a91565b91505092915050565b60008115159050919050565b612ae881612ad3565b82525050565b6000602082019050612b036000830184612adf565b92915050565b600081519050919050565b600082825260208201905092915050565b60005b83811015612b43578082015181840152602081019050612b28565b83811115612b52576000848401525b50505050565b6000601f19601f8301169050919050565b6000612b7482612b09565b612b7e8185612b14565b9350612b8e818560208601612b25565b612b9781612b58565b840191505092915050565b60006020820190508181036000830152612bbc8184612b69565b905092915050565b6000819050919050565b612bd781612bc4565b8114612be257600080fd5b50565b600081359050612bf481612bce565b92915050565b600060208284031215612c1057612c0f612a44565b5b6000612c1e84828501612be5565b91505092915050565b600073ffffffffffffffffffffffffffffffffffffffff82169050919050565b6000612c5282612c27565b9050919050565b612c6281612c47565b82525050565b6000602082019050612c7d6000830184612c59565b92915050565b612c8c81612c47565b8114612c9757600080fd5b50565b600081359050612ca981612c83565b92915050565b60008060408385031215612cc657612cc5612a44565b5b6000612cd485828601612c9a565b9250506020612ce585828601612be5565b9150509250929050565b612cf881612bc4565b82525050565b6000602082019050612d136000830184612cef565b92915050565b600080600060608486031215612d3257612d31612a44565b5b6000612d4086828701612c9a565b9350506020612d5186828701612c9a565b9250506040612d6286828701612be5565b9150509250925092565b60008060408385031215612d8357612d82612a44565b5b6000612d9185828601612be5565b9250506020612da285828601612be5565b9150509250929050565b600081519050919050565b600082825260208201905092915050565b6000819050602082019050919050565b612de181612bc4565b82525050565b6000612df38383612dd8565b60208301905092915050565b6000602082019050919050565b6000612e1782612dac565b612e218185612db7565b9350612e2c83612dc8565b8060005b83811015612e5d578151612e448882612de7565b9750612e4f83612dff565b925050600181019050612e30565b5085935050505092915050565b600060a0830160008301518482036000860152612e878282612e0c565b9150506020830151612e9c6020860182612dd8565b506040830151612eaf6040860182612dd8565b506060830151612ec26060860182612dd8565b506080830151612ed56080860182612dd8565b508091505092915050565b60006020820190508181036000830152612efa8184612e6a565b905092915050565b600060208284031215612f1857612f17612a44565b5b6000612f2684828501612c9a565b91505092915050565b612f3881612ad3565b8114612f4357600080fd5b50565b600081359050612f5581612f2f565b92915050565b60008060408385031215612f7257612f71612a44565b5b6000612f8085828601612c9a565b9250506020612f9185828601612f46565b9150509250929050565b600080fd5b600080fd5b7f4e487b7100000000000000000000000000000000000000000000000000000000600052604160045260246000fd5b612fdd82612b58565b810181811067ffffffffffffffff82111715612ffc57612ffb612fa5565b5b80604052505050565b600061300f612a3a565b905061301b8282612fd4565b919050565b600067ffffffffffffffff82111561303b5761303a612fa5565b5b61304482612b58565b9050602081019050919050565b82818337600083830152505050565b600061307361306e84613020565b613005565b90508281526020810184848401111561308f5761308e612fa0565b5b61309a848285613051565b509392505050565b600082601f8301126130b7576130b6612f9b565b5b81356130c7848260208601613060565b91505092915050565b600080600080608085870312156130ea576130e9612a44565b5b60006130f887828801612c9a565b945050602061310987828801612c9a565b935050604061311a87828801612be5565b925050606085013567ffffffffffffffff81111561313b5761313a612a49565b5b613147878288016130a2565b91505092959194509250565b600080fd5b600060a0828403121561316e5761316d613153565b5b81905092915050565b6000806040838503121561318e5761318d612a44565b5b600061319c85828601612c9a565b925050602083013567ffffffffffffffff8111156131bd576131bc612a49565b5b6131c985828601613158565b9150509250929050565b60006080820190506131e86000830187612cef565b6131f56020830186612cef565b6132026040830185612cef565b61320f6060830184612cef565b95945050505050565b6000806040838503121561322f5761322e612a44565b5b600061323d85828601612c9a565b925050602061324e85828601612c9a565b9150509250929050565b6000806000806080858703121561327257613271612a44565b5b600061328087828801612c9a565b945050602061329187828801612c9a565b93505060406132a287828801612c9a565b92505060606132b387828801612c9a565b91505092959194509250565b7f4e487b7100000000000000000000000000000000000000000000000000000000600052602260045260246000fd5b6000600282049050600182168061330657607f821691505b602082108103613319576133186132bf565b5b50919050565b7f4552433732313a20617070726f76656420717565727920666f72206e6f6e657860008201527f697374656e7420746f6b656e0000000000000000000000000000000000000000602082015250565b600061337b602c83612b14565b91506133868261331f565b604082019050919050565b600060208201905081810360008301526133aa8161336e565b9050919050565b7f4552433732313a20617070726f76616c20746f2063757272656e74206f776e6560008201527f7200000000000000000000000000000000000000000000000000000000000000602082015250565b600061340d602183612b14565b9150613418826133b1565b604082019050919050565b6000602082019050818103600083015261343c81613400565b9050919050565b7f4552433732313a20617070726f76652063616c6c6572206973206e6f74206f7760008201527f6e6572206e6f7220617070726f76656420666f7220616c6c0000000000000000602082015250565b600061349f603883612b14565b91506134aa82613443565b604082019050919050565b600060208201905081810360008301526134ce81613492565b9050919050565b7f4552433732313a207472616e736665722063616c6c6572206973206e6f74206f60008201527f776e6572206e6f7220617070726f766564000000000000000000000000000000602082015250565b6000613531603183612b14565b915061353c826134d5565b604082019050919050565b6000602082019050818103600083015261356081613524565b9050919050565b7f455243373231456e756d657261626c653a206f776e657220696e646578206f7560008201527f74206f6620626f756e6473000000000000000000000000000000000000000000602082015250565b60006135c3602b83612b14565b91506135ce82613567565b604082019050919050565b600060208201905081810360008301526135f2816135b6565b9050919050565b7f4d616769615175657374733a2072657374726963746564000000000000000000600082015250565b600061362f601783612b14565b915061363a826135f9565b602082019050919050565b6000602082019050818103600083015261365e81613622565b9050919050565b7f4e487b7100000000000000000000000000000000000000000000000000000000600052603260045260246000fd5b7f4e487b7100000000000000000000000000000000000000000000000000000000600052601160045260246000fd5b60006136ce82612bc4565b9150600082036136e1576136e0613694565b5b600182039050919050565b7f4d616769615175657374733a207175657374206e6f7420636f6d706c65746564600082015250565b6000613722602083612b14565b915061372d826136ec565b602082019050919050565b6000602082019050818103600083015261375181613715565b9050919050565b600061376382612bc4565b91507fffffffffffffffffffffffffffffffffffffffffffffffffffffffffffffffff820361379557613794613694565b5b600182019050919050565b7f455243373231456e756d657261626c653a20676c6f62616c20696e646578206f60008201527f7574206f6620626f756e64730000000000000000000000000000000000000000602082015250565b60006137fc602c83612b14565b9150613807826137a0565b604082019050919050565b6000602082019050818103600083015261382b816137ef565b9050919050565b7f4552433732313a206f776e657220717565727920666f72206e6f6e657869737460008201527f656e7420746f6b656e0000000000000000000000000000000000000000000000602082015250565b600061388e602983612b14565b915061389982613832565b604082019050919050565b600060208201905081810360008301526138bd81613881565b9050919050565b7f4552433732313a2062616c616e636520717565727920666f7220746865207a6560008201527f726f206164647265737300000000000000000000000000000000000000000000602082015250565b6000613920602a83612b14565b915061392b826138c4565b604082019050919050565b6000602082019050818103600083015261394f81613913565b9050919050565b7f4f776e61626c653a2063616c6c6572206973206e6f7420746865206f776e6572600082015250565b600061398c602083612b14565b915061399782613956565b602082019050919050565b600060208201905081810360008301526139bb8161397f565b9050919050565b60006139cd82612bc4565b91506139d883612bc4565b9250827fffffffffffffffffffffffffffffffffffffffffffffffffffffffffffffffff03821115613a0d57613a0c613694565b5b828201905092915050565b600080fd5b600080fd5b600080fd5b60008083356001602003843603038112613a4457613a43613a18565b5b80840192508235915067ffffffffffffffff821115613a6657613a65613a1d565b5b602083019250602082023603831315613a8257613a81613a22565b5b509250929050565b6000819050919050565b600081549050919050565b60008190506001806001038301049050919050565b60008190508160005260206000209050919050565b600082821b905092915050565b600060088302613b067fffffffffffffffffffffffffffffffffffffffffffffffffffffffffffffffff82613ac9565b613b108683613ac9565b95508019841693508086168417925050509392505050565b6000819050919050565b6000613b4d613b48613b4384612bc4565b613b28565b612bc4565b9050919050565b6000819050919050565b613b6783613b32565b613b7b613b7382613b54565b848454613ad6565b825550505050565b600090565b613b90613b83565b613b9b818484613b5e565b505050565b5b81811015613bbf57613bb4600082613b88565b600181019050613ba1565b5050565b81831015613bfc57613bd482613a9f565b613bdd84613a9f565b613be683613ab4565b818101838201613bf68183613ba0565b50505050505b505050565b68010000000000000000821115613c1b57613c1a612fa5565b5b613c2481613a94565b828255613c32838284613bc3565b505050565b600082905092915050565b60008135613c4f81612bce565b80915050919050565b613c628383613c37565b613c6c8183613c01565b613c7583613a8a565b613c7e83613ab4565b6000805b84811015613cb95783613c9481613c42565b9050613ca1818486613b5e565b60208501945060018401935050600181019050613c82565b5050505050505050565b613cce838383613c58565b505050565b60008160001b9050919050565b60007fffffffffffffffffffffffffffffffffffffffffffffffffffffffffffffffff613d0c84613cd3565b9350801983169250808416831791505092915050565b613d2b82613b32565b613d3e613d3782613b54565b8354613ce0565b8255505050565b6000810160008301613d578185613a27565b613d62818386613cc3565b50505050600181016020830180613d7881613c42565b9050613d848184613d22565b505050600281016040830180613d9981613c42565b9050613da58184613d22565b505050600381016060830180613dba81613c42565b9050613dc68184613d22565b505050600481016080830180613ddb81613c42565b9050613de78184613d22565b5050505050565b613df88282613d45565b5050565b7f4552433732314d657461646174613a2055524920717565727920666f72206e6f60008201527f6e6578697374656e7420746f6b656e0000000000000000000000000000000000602082015250565b6000613e58602f83612b14565b9150613e6382613dfc565b604082019050919050565b60006020820190508181036000830152613e8781613e4b565b9050919050565b600081905092915050565b6000613ea482612b09565b613eae8185613e8e565b9350613ebe818560208601612b25565b80840191505092915050565b6000613ed68285613e99565b9150613ee28284613e99565b91508190509392505050565b7f4f776e61626c653a206e6577206f776e657220697320746865207a65726f206160008201527f6464726573730000000000000000000000000000000000000000000000000000602082015250565b6000613f4a602683612b14565b9150613f5582613eee565b604082019050919050565b60006020820190508181036000830152613f7981613f3d565b9050919050565b6000819050919050565b600060ff82169050919050565b6000613fb2613fad613fa884613f80565b613b28565b613f8a565b9050919050565b613fc281613f97565b82525050565b6000602082019050613fdd6000830184613fb9565b92915050565b7f4552433732313a206f70657261746f7220717565727920666f72206e6f6e657860008201527f697374656e7420746f6b656e0000000000000000000000000000000000000000602082015250565b600061403f602c83612b14565b915061404a82613fe3565b604082019050919050565b6000602082019050818103600083015261406e81614032565b9050919050565b7f4552433732313a207472616e736665722066726f6d20696e636f72726563742060008201527f6f776e6572000000000000000000000000000000000000000000000000000000602082015250565b60006140d1602583612b14565b91506140dc82614075565b604082019050919050565b60006020820190508181036000830152614100816140c4565b9050919050565b7f4552433732313a207472616e7366657220746f20746865207a65726f2061646460008201527f7265737300000000000000000000000000000000000000000000000000000000602082015250565b6000614163602483612b14565b915061416e82614107565b604082019050919050565b6000602082019050818103600083015261419281614156565b9050919050565b60006141a482612bc4565b91506141af83612bc4565b9250828210156141c2576141c1613694565b5b828203905092915050565b7f4552433732313a20617070726f766520746f2063616c6c657200000000000000600082015250565b6000614203601983612b14565b915061420e826141cd565b602082019050919050565b60006020820190508181036000830152614232816141f6565b9050919050565b7f4552433732313a207472616e7366657220746f206e6f6e20455243373231526560008201527f63656976657220696d706c656d656e7465720000000000000000000000000000602082015250565b6000614295603283612b14565b91506142a082614239565b604082019050919050565b600060208201905081810360008301526142c481614288565b9050919050565b7f4552433732313a206d696e7420746f20746865207a65726f2061646472657373600082015250565b6000614301602083612b14565b915061430c826142cb565b602082019050919050565b60006020820190508181036000830152614330816142f4565b9050919050565b7f4552433732313a20746f6b656e20616c7265616479206d696e74656400000000600082015250565b600061436d601c83612b14565b915061437882614337565b602082019050919050565b6000602082019050818103600083015261439c81614360565b9050919050565b7f4e487b7100000000000000000000000000000000000000000000000000000000600052601260045260246000fd5b60006143dd82612bc4565b91506143e883612bc4565b9250826143f8576143f76143a3565b5b828204905092915050565b600061440e82612bc4565b915061441983612bc4565b925082614429576144286143a3565b5b828206905092915050565b7f496e697469616c697a61626c653a20636f6e747261637420697320616c72656160008201527f647920696e697469616c697a6564000000000000000000000000000000000000602082015250565b6000614490602e83612b14565b915061449b82614434565b604082019050919050565b600060208201905081810360008301526144bf81614483565b9050919050565b7f496e697469616c697a61626c653a20636f6e7472616374206973206e6f74206960008201527f6e697469616c697a696e67000000000000000000000000000000000000000000602082015250565b6000614522602b83612b14565b915061452d826144c6565b604082019050919050565b6000602082019050818103600083015261455181614515565b9050919050565b600081519050919050565b600082825260208201905092915050565b600061457f82614558565b6145898185614563565b9350614599818560208601612b25565b6145a281612b58565b840191505092915050565b60006080820190506145c26000830187612c59565b6145cf6020830186612c59565b6145dc6040830185612cef565b81810360608301526145ee8184614574565b905095945050505050565b60008151905061460881612a7a565b92915050565b60006020828403121561462457614623612a44565b5b6000614632848285016145f9565b91505092915050565b7f4e487b7100000000000000000000000000000000000000000000000000000000600052603160045260246000fdfea2646970667358221220d3060d6904e0f7ce6051d5a6354cd6276fd6662d13e2e705c91e06bf3ab634d964736f6c634300080d0033",
  "linkReferences": {},
  "deployedLinkReferences": {}
}