{
  "_format": "hh-sol-artifact-1",
  "contractName": "MagiaUnits",
  "sourceName": "contracts/other/MagiaUnits.sol",
  "abi": [
    {
      "anonymous": false,
      "inputs": [
        {
          "indexed": true,
          "internalType": "address",
          "name": "owner",
          "type": "address"
        },
        {
          "indexed": true,
          "internalType": "address",
          "name": "approved",
          "type": "address"
        },
        {
          "indexed": true,
          "internalType": "uint256",
          "name": "tokenId",
          "type": "uint256"
        }
      ],
      "name": "Approval",
      "type": "event"
    },
    {
      "anonymous": false,
      "inputs": [
        {
          "indexed": true,
          "internalType": "address",
          "name": "owner",
          "type": "address"
        },
        {
          "indexed": true,
          "internalType": "address",
          "name": "operator",
          "type": "address"
        },
        {
          "indexed": false,
          "internalType": "bool",
          "name": "approved",
          "type": "bool"
        }
      ],
      "name": "ApprovalForAll",
      "type": "event"
    },
    {
      "anonymous": false,
      "inputs": [
        {
          "indexed": false,
          "internalType": "uint8",
          "name": "version",
          "type": "uint8"
        }
      ],
      "name": "Initialized",
      "type": "event"
    },
    {
      "anonymous": false,
      "inputs": [
        {
          "indexed": true,
          "internalType": "address",
          "name": "previousOwner",
          "type": "address"
        },
        {
          "indexed": true,
          "internalType": "address",
          "name": "newOwner",
          "type": "address"
        }
      ],
      "name": "OwnershipTransferred",
      "type": "event"
    },
    {
      "anonymous": false,
      "inputs": [
        {
          "indexed": true,
          "internalType": "address",
          "name": "from",
          "type": "address"
        },
        {
          "indexed": true,
          "internalType": "address",
          "name": "to",
          "type": "address"
        },
        {
          "indexed": true,
          "internalType": "uint256",
          "name": "tokenId",
          "type": "uint256"
        }
      ],
      "name": "Transfer",
      "type": "event"
    },
    {
      "inputs": [
        {
          "internalType": "uint256",
          "name": "_unitTypeId",
          "type": "uint256"
        },
        {
          "components": [
            {
              "internalType": "uint256",
              "name": "attack",
              "type": "uint256"
            },
            {
              "internalType": "uint256",
              "name": "defense",
              "type": "uint256"
            },
            {
              "internalType": "uint256",
              "name": "range",
              "type": "uint256"
            },
            {
              "internalType": "uint256",
              "name": "health",
              "type": "uint256"
            },
            {
              "internalType": "uint256",
              "name": "craftedFrom",
              "type": "uint256"
            },
            {
              "internalType": "uint256",
              "name": "craftTime",
              "type": "uint256"
            },
            {
              "internalType": "uint256[3]",
              "name": "cost",
              "type": "uint256[3]"
            },
            {
              "internalType": "string",
              "name": "name",
              "type": "string"
            }
          ],
          "internalType": "struct MagiaUnits.UnitType",
          "name": "_unitType",
          "type": "tuple"
        }
      ],
      "name": "addUnitType",
      "outputs": [],
      "stateMutability": "nonpayable",
      "type": "function"
    },
    {
      "inputs": [
        {
          "internalType": "address",
          "name": "to",
          "type": "address"
        },
        {
          "internalType": "uint256",
          "name": "tokenId",
          "type": "uint256"
        }
      ],
      "name": "approve",
      "outputs": [],
      "stateMutability": "nonpayable",
      "type": "function"
    },
    {
      "inputs": [
        {
          "internalType": "address",
          "name": "owner",
          "type": "address"
        }
      ],
      "name": "balanceOf",
      "outputs": [
        {
          "internalType": "uint256",
          "name": "",
          "type": "uint256"
        }
      ],
      "stateMutability": "view",
      "type": "function"
    },
    {
      "inputs": [
        {
          "internalType": "uint256",
          "name": "_tokenId",
          "type": "uint256"
        },
        {
          "internalType": "uint256",
          "name": "_amount",
          "type": "uint256"
        }
      ],
      "name": "decreaseDefense",
      "outputs": [],
      "stateMutability": "nonpayable",
      "type": "function"
    },
    {
      "inputs": [
        {
          "internalType": "uint256",
          "name": "_tokenId",
          "type": "uint256"
        },
        {
          "internalType": "uint256",
          "name": "_amount",
          "type": "uint256"
        }
      ],
      "name": "decreaseHealth",
      "outputs": [],
      "stateMutability": "nonpayable",
      "type": "function"
    },
    {
      "inputs": [],
      "name": "gameDiamond",
      "outputs": [
        {
          "internalType": "address",
          "name": "",
          "type": "address"
        }
      ],
      "stateMutability": "view",
      "type": "function"
    },
    {
      "inputs": [
        {
          "internalType": "uint256",
          "name": "tokenId",
          "type": "uint256"
        }
      ],
      "name": "getApproved",
      "outputs": [
        {
          "internalType": "address",
          "name": "",
          "type": "address"
        }
      ],
      "stateMutability": "view",
      "type": "function"
    },
    {
      "inputs": [
        {
          "internalType": "uint256",
          "name": "_tokenId",
          "type": "uint256"
        }
      ],
      "name": "getAttack",
      "outputs": [
        {
          "internalType": "uint256",
          "name": "",
          "type": "uint256"
        }
      ],
      "stateMutability": "view",
      "type": "function"
    },
    {
      "inputs": [
        {
          "internalType": "uint256[]",
          "name": "_tokenIds",
          "type": "uint256[]"
        }
      ],
      "name": "getBatchUnitsType",
      "outputs": [
        {
          "components": [
            {
              "internalType": "uint256",
              "name": "attack",
              "type": "uint256"
            },
            {
              "internalType": "uint256",
              "name": "defense",
              "type": "uint256"
            },
            {
              "internalType": "uint256",
              "name": "range",
              "type": "uint256"
            },
            {
              "internalType": "uint256",
              "name": "health",
              "type": "uint256"
            },
            {
              "internalType": "uint256",
              "name": "unitType",
              "type": "uint256"
            },
            {
              "internalType": "string",
              "name": "name",
              "type": "string"
            }
          ],
          "internalType": "struct MagiaUnits.Unit[500]",
          "name": "batch_",
          "type": "tuple[500]"
        }
      ],
      "stateMutability": "view",
      "type": "function"
    },
    {
      "inputs": [
        {
          "internalType": "uint256",
          "name": "_unitTypeId",
          "type": "uint256"
        }
      ],
      "name": "getCost",
      "outputs": [
        {
          "internalType": "uint256[3]",
          "name": "",
          "type": "uint256[3]"
        }
      ],
      "stateMutability": "view",
      "type": "function"
    },
    {
      "inputs": [
        {
          "internalType": "uint256",
          "name": "_unitTypeId",
          "type": "uint256"
        }
      ],
      "name": "getCraftTime",
      "outputs": [
        {
          "internalType": "uint256",
          "name": "",
          "type": "uint256"
        }
      ],
      "stateMutability": "view",
      "type": "function"
    },
    {
      "inputs": [
        {
          "internalType": "uint256",
          "name": "_unitTypeId",
          "type": "uint256"
        }
      ],
      "name": "getCraftedFrom",
      "outputs": [
        {
          "internalType": "uint256",
          "name": "",
          "type": "uint256"
        }
      ],
      "stateMutability": "view",
      "type": "function"
    },
    {
      "inputs": [
        {
          "internalType": "uint256",
          "name": "_tokenId",
          "type": "uint256"
        }
      ],
      "name": "getDefense",
      "outputs": [
        {
          "internalType": "uint256",
          "name": "",
          "type": "uint256"
        }
      ],
      "stateMutability": "view",
      "type": "function"
    },
    {
      "inputs": [
        {
          "internalType": "uint256",
          "name": "_tokenId",
          "type": "uint256"
        }
      ],
      "name": "getHealth",
      "outputs": [
        {
          "internalType": "uint256",
          "name": "",
          "type": "uint256"
        }
      ],
      "stateMutability": "view",
      "type": "function"
    },
    {
      "inputs": [
        {
          "internalType": "uint256",
          "name": "_tokenId",
          "type": "uint256"
        }
      ],
      "name": "getRange",
      "outputs": [
        {
          "internalType": "uint256",
          "name": "",
          "type": "uint256"
        }
      ],
      "stateMutability": "view",
      "type": "function"
    },
    {
      "inputs": [
        {
          "internalType": "uint256",
          "name": "_tokenId",
          "type": "uint256"
        }
      ],
      "name": "getUnit",
      "outputs": [
        {
          "components": [
            {
              "internalType": "uint256",
              "name": "attack",
              "type": "uint256"
            },
            {
              "internalType": "uint256",
              "name": "defense",
              "type": "uint256"
            },
            {
              "internalType": "uint256",
              "name": "range",
              "type": "uint256"
            },
            {
              "internalType": "uint256",
              "name": "health",
              "type": "uint256"
            },
            {
              "internalType": "uint256",
              "name": "unitType",
              "type": "uint256"
            },
            {
              "internalType": "string",
              "name": "name",
              "type": "string"
            }
          ],
          "internalType": "struct MagiaUnits.Unit",
          "name": "",
          "type": "tuple"
        }
      ],
      "stateMutability": "view",
      "type": "function"
    },
    {
      "inputs": [
        {
          "internalType": "uint256",
          "name": "_unitTypeId",
          "type": "uint256"
        }
      ],
      "name": "getUnitType",
      "outputs": [
        {
          "components": [
            {
              "internalType": "uint256",
              "name": "attack",
              "type": "uint256"
            },
            {
              "internalType": "uint256",
              "name": "defense",
              "type": "uint256"
            },
            {
              "internalType": "uint256",
              "name": "range",
              "type": "uint256"
            },
            {
              "internalType": "uint256",
              "name": "health",
              "type": "uint256"
            },
            {
              "internalType": "uint256",
              "name": "craftedFrom",
              "type": "uint256"
            },
            {
              "internalType": "uint256",
              "name": "craftTime",
              "type": "uint256"
            },
            {
              "internalType": "uint256[3]",
              "name": "cost",
              "type": "uint256[3]"
            },
            {
              "internalType": "string",
              "name": "name",
              "type": "string"
            }
          ],
          "internalType": "struct MagiaUnits.UnitType",
          "name": "",
          "type": "tuple"
        }
      ],
      "stateMutability": "view",
      "type": "function"
    },
    {
      "inputs": [],
      "name": "gold",
      "outputs": [
        {
          "internalType": "address",
          "name": "",
          "type": "address"
        }
      ],
      "stateMutability": "view",
      "type": "function"
    },
    {
      "inputs": [
        {
          "internalType": "uint256",
          "name": "_tokenId",
          "type": "uint256"
        },
        {
          "internalType": "uint256",
          "name": "_amount",
          "type": "uint256"
        }
      ],
      "name": "increaseAttack",
      "outputs": [],
      "stateMutability": "nonpayable",
      "type": "function"
    },
    {
      "inputs": [
        {
          "internalType": "uint256",
          "name": "_tokenId",
          "type": "uint256"
        },
        {
          "internalType": "uint256",
          "name": "_amount",
          "type": "uint256"
        }
      ],
      "name": "increaseDefense",
      "outputs": [],
      "stateMutability": "nonpayable",
      "type": "function"
    },
    {
      "inputs": [
        {
          "internalType": "uint256",
          "name": "_tokenId",
          "type": "uint256"
        },
        {
          "internalType": "uint256",
          "name": "_amount",
          "type": "uint256"
        }
      ],
      "name": "increaseHealth",
      "outputs": [],
      "stateMutability": "nonpayable",
      "type": "function"
    },
    {
      "inputs": [
        {
          "internalType": "address",
          "name": "_gameDiamond",
          "type": "address"
        },
        {
          "internalType": "address",
          "name": "_gold",
          "type": "address"
        },
        {
          "internalType": "address",
          "name": "_lumber",
          "type": "address"
        },
        {
          "internalType": "address",
          "name": "_mana",
          "type": "address"
        }
      ],
      "name": "initialize",
      "outputs": [],
      "stateMutability": "nonpayable",
      "type": "function"
    },
    {
      "inputs": [
        {
          "internalType": "address",
          "name": "owner",
          "type": "address"
        },
        {
          "internalType": "address",
          "name": "operator",
          "type": "address"
        }
      ],
      "name": "isApprovedForAll",
      "outputs": [
        {
          "internalType": "bool",
          "name": "",
          "type": "bool"
        }
      ],
      "stateMutability": "view",
      "type": "function"
    },
    {
      "inputs": [],
      "name": "lumber",
      "outputs": [
        {
          "internalType": "address",
          "name": "",
          "type": "address"
        }
      ],
      "stateMutability": "view",
      "type": "function"
    },
    {
      "inputs": [],
      "name": "mana",
      "outputs": [
        {
          "internalType": "address",
          "name": "",
          "type": "address"
        }
      ],
      "stateMutability": "view",
      "type": "function"
    },
    {
      "inputs": [
        {
          "internalType": "address",
          "name": "_account",
          "type": "address"
        },
        {
          "internalType": "uint256",
          "name": "_unitTypeId",
          "type": "uint256"
        }
      ],
      "name": "mint",
      "outputs": [],
      "stateMutability": "nonpayable",
      "type": "function"
    },
    {
      "inputs": [],
      "name": "name",
      "outputs": [
        {
          "internalType": "string",
          "name": "",
          "type": "string"
        }
      ],
      "stateMutability": "view",
      "type": "function"
    },
    {
      "inputs": [],
      "name": "owner",
      "outputs": [
        {
          "internalType": "address",
          "name": "",
          "type": "address"
        }
      ],
      "stateMutability": "view",
      "type": "function"
    },
    {
      "inputs": [
        {
          "internalType": "uint256",
          "name": "tokenId",
          "type": "uint256"
        }
      ],
      "name": "ownerOf",
      "outputs": [
        {
          "internalType": "address",
          "name": "",
          "type": "address"
        }
      ],
      "stateMutability": "view",
      "type": "function"
    },
    {
      "inputs": [],
      "name": "renounceOwnership",
      "outputs": [],
      "stateMutability": "nonpayable",
      "type": "function"
    },
    {
      "inputs": [
        {
          "internalType": "address",
          "name": "from",
          "type": "address"
        },
        {
          "internalType": "address",
          "name": "to",
          "type": "address"
        },
        {
          "internalType": "uint256",
          "name": "tokenId",
          "type": "uint256"
        }
      ],
      "name": "safeTransferFrom",
      "outputs": [],
      "stateMutability": "nonpayable",
      "type": "function"
    },
    {
      "inputs": [
        {
          "internalType": "address",
          "name": "from",
          "type": "address"
        },
        {
          "internalType": "address",
          "name": "to",
          "type": "address"
        },
        {
          "internalType": "uint256",
          "name": "tokenId",
          "type": "uint256"
        },
        {
          "internalType": "bytes",
          "name": "_data",
          "type": "bytes"
        }
      ],
      "name": "safeTransferFrom",
      "outputs": [],
      "stateMutability": "nonpayable",
      "type": "function"
    },
    {
      "inputs": [
        {
          "internalType": "address",
          "name": "_gameDiamond",
          "type": "address"
        },
        {
          "internalType": "address",
          "name": "_gold",
          "type": "address"
        },
        {
          "internalType": "address",
          "name": "_lumber",
          "type": "address"
        },
        {
          "internalType": "address",
          "name": "_mana",
          "type": "address"
        }
      ],
      "name": "setAddresses",
      "outputs": [],
      "stateMutability": "nonpayable",
      "type": "function"
    },
    {
      "inputs": [
        {
          "internalType": "address",
          "name": "operator",
          "type": "address"
        },
        {
          "internalType": "bool",
          "name": "approved",
          "type": "bool"
        }
      ],
      "name": "setApprovalForAll",
      "outputs": [],
      "stateMutability": "nonpayable",
      "type": "function"
    },
    {
      "inputs": [
        {
          "internalType": "bytes4",
          "name": "interfaceId",
          "type": "bytes4"
        }
      ],
      "name": "supportsInterface",
      "outputs": [
        {
          "internalType": "bool",
          "name": "",
          "type": "bool"
        }
      ],
      "stateMutability": "view",
      "type": "function"
    },
    {
      "inputs": [],
      "name": "symbol",
      "outputs": [
        {
          "internalType": "string",
          "name": "",
          "type": "string"
        }
      ],
      "stateMutability": "view",
      "type": "function"
    },
    {
      "inputs": [
        {
          "internalType": "uint256",
          "name": "index",
          "type": "uint256"
        }
      ],
      "name": "tokenByIndex",
      "outputs": [
        {
          "internalType": "uint256",
          "name": "",
          "type": "uint256"
        }
      ],
      "stateMutability": "view",
      "type": "function"
    },
    {
      "inputs": [
        {
          "internalType": "address",
          "name": "owner",
          "type": "address"
        },
        {
          "internalType": "uint256",
          "name": "index",
          "type": "uint256"
        }
      ],
      "name": "tokenOfOwnerByIndex",
      "outputs": [
        {
          "internalType": "uint256",
          "name": "",
          "type": "uint256"
        }
      ],
      "stateMutability": "view",
      "type": "function"
    },
    {
      "inputs": [
        {
          "internalType": "uint256",
          "name": "tokenId",
          "type": "uint256"
        }
      ],
      "name": "tokenURI",
      "outputs": [
        {
          "internalType": "string",
          "name": "",
          "type": "string"
        }
      ],
      "stateMutability": "view",
      "type": "function"
    },
    {
      "inputs": [],
      "name": "totalSupply",
      "outputs": [
        {
          "internalType": "uint256",
          "name": "",
          "type": "uint256"
        }
      ],
      "stateMutability": "view",
      "type": "function"
    },
    {
      "inputs": [
        {
          "internalType": "address",
          "name": "from",
          "type": "address"
        },
        {
          "internalType": "address",
          "name": "to",
          "type": "address"
        },
        {
          "internalType": "uint256",
          "name": "tokenId",
          "type": "uint256"
        }
      ],
      "name": "transferFrom",
      "outputs": [],
      "stateMutability": "nonpayable",
      "type": "function"
    },
    {
      "inputs": [
        {
          "internalType": "address",
          "name": "newOwner",
          "type": "address"
        }
      ],
      "name": "transferOwnership",
      "outputs": [],
      "stateMutability": "nonpayable",
      "type": "function"
    },
    {
      "inputs": [
        {
          "internalType": "uint256",
          "name": "",
          "type": "uint256"
        }
      ],
      "name": "unitTypes",
      "outputs": [
        {
          "internalType": "uint256",
          "name": "attack",
          "type": "uint256"
        },
        {
          "internalType": "uint256",
          "name": "defense",
          "type": "uint256"
        },
        {
          "internalType": "uint256",
          "name": "range",
          "type": "uint256"
        },
        {
          "internalType": "uint256",
          "name": "health",
          "type": "uint256"
        },
        {
          "internalType": "uint256",
          "name": "craftedFrom",
          "type": "uint256"
        },
        {
          "internalType": "uint256",
          "name": "craftTime",
          "type": "uint256"
        },
        {
          "internalType": "string",
          "name": "name",
          "type": "string"
        }
      ],
      "stateMutability": "view",
      "type": "function"
    },
    {
      "inputs": [
        {
          "internalType": "uint256",
          "name": "",
          "type": "uint256"
        }
      ],
      "name": "units",
      "outputs": [
        {
          "internalType": "uint256",
          "name": "attack",
          "type": "uint256"
        },
        {
          "internalType": "uint256",
          "name": "defense",
          "type": "uint256"
        },
        {
          "internalType": "uint256",
          "name": "range",
          "type": "uint256"
        },
        {
          "internalType": "uint256",
          "name": "health",
          "type": "uint256"
        },
        {
          "internalType": "uint256",
          "name": "unitType",
          "type": "uint256"
        },
        {
          "internalType": "string",
          "name": "name",
          "type": "string"
        }
      ],
      "stateMutability": "view",
      "type": "function"
    }
  ],
  "bytecode": "0x608060405234801561001057600080fd5b50615b1080620000216000396000f3fe608060405234801561001057600080fd5b50600436106102745760003560e01c8063715018a611610151578063c68d6086116100c3578063e985e9c511610087578063e985e9c51461080e578063eb22daa31461083e578063f2fde38b1461086e578063f7c0d44f1461088a578063f8c8765e146108a8578063fbec6f21146108c457610274565b8063c68d60861461072d578063c87b56dd14610749578063cc364f4814610779578063cff840f0146107a9578063e5fba6cc146107d957610274565b8063a22cb46511610115578063a22cb46514610683578063a7518eb11461069f578063b88d4fde146106bb578063bb183fb4146106d7578063bdb001a7146106f3578063c56234a41461071157610274565b8063715018a614610605578063802991321461060f578063846018c31461062b5780638da5cb5b1461064757806395d89b411461066557610274565b80632f745c59116101ea57806342842e0e116101ae57806342842e0e1461050d5780634a945f8d146105295780634f6ccce7146105455780635a4dd47d146105755780636352211e146105a557806370a08231146105d557610274565b80632f745c591461042b578063350fb5c31461045b5780633fc70f2c1461049157806340c10f19146104c157806340c66bb5146104dd57610274565b80631655bfbe1161023c5780631655bfbe1461034357806318160ddd1461037357806323b872dd14610391578063278e2f68146103ad5780632ab82d6c146103dd5780632bf8e26c146103fb57610274565b806301ffc9a71461027957806306fdde03146102a9578063081812fc146102c7578063095ea7b3146102f757806316358bdf14610313575b600080fd5b610293600480360381019061028e9190613961565b6108e2565b6040516102a091906139a9565b60405180910390f35b6102b161095c565b6040516102be9190613a5d565b60405180910390f35b6102e160048036038101906102dc9190613ab5565b6109ee565b6040516102ee9190613b23565b60405180910390f35b610311600480360381019061030c9190613b6a565b610a73565b005b61032d60048036038101906103289190613ab5565b610b8a565b60405161033a9190613bb9565b60405180910390f35b61035d60048036038101906103589190613ab5565b610bab565b60405161036a9190613cb6565b60405180910390f35b61037b610c9c565b6040516103889190613bb9565b60405180910390f35b6103ab60048036038101906103a69190613cd8565b610ca9565b005b6103c760048036038101906103c29190613ab5565b610d09565b6040516103d49190613bb9565b60405180910390f35b6103e5610d2a565b6040516103f29190613b23565b60405180910390f35b61041560048036038101906104109190613d90565b610d50565b6040516104229190613f1d565b60405180910390f35b61044560048036038101906104409190613b6a565b610e97565b6040516104529190613bb9565b60405180910390f35b61047560048036038101906104709190613ab5565b610f3c565b6040516104889796959493929190613f3f565b60405180910390f35b6104ab60048036038101906104a69190613ab5565b611007565b6040516104b89190613bb9565b60405180910390f35b6104db60048036038101906104d69190613b6a565b611027565b005b6104f760048036038101906104f29190613ab5565b611271565b6040516105049190614102565b60405180910390f35b61052760048036038101906105229190613cd8565b6113b3565b005b610543600480360381019061053e9190614124565b6113d3565b005b61055f600480360381019061055a9190613ab5565b611559565b60405161056c9190613bb9565b60405180910390f35b61058f600480360381019061058a9190613ab5565b6115ca565b60405161059c91906141ed565b60405180910390f35b6105bf60048036038101906105ba9190613ab5565b61162c565b6040516105cc9190613b23565b60405180910390f35b6105ef60048036038101906105ea9190614208565b6116dd565b6040516105fc9190613bb9565b60405180910390f35b61060d611794565b005b61062960048036038101906106249190614235565b61181c565b005b61064560048036038101906106409190614235565b6118dd565b005b61064f61199e565b60405161065c9190613b23565b60405180910390f35b61066d6119c8565b60405161067a9190613a5d565b60405180910390f35b61069d600480360381019061069891906142a1565b611a5a565b005b6106b960048036038101906106b49190614235565b611a70565b005b6106d560048036038101906106d09190614411565b611b31565b005b6106f160048036038101906106ec9190614235565b611b93565b005b6106fb611c54565b6040516107089190613b23565b60405180910390f35b61072b60048036038101906107269190614235565b611c7a565b005b610747600480360381019061074291906144b9565b611d3b565b005b610763600480360381019061075e9190613ab5565b611ddf565b6040516107709190613a5d565b60405180910390f35b610793600480360381019061078e9190613ab5565b611e86565b6040516107a09190613bb9565b60405180910390f35b6107c360048036038101906107be9190613ab5565b611ea6565b6040516107d09190613bb9565b60405180910390f35b6107f360048036038101906107ee9190613ab5565b611ec6565b60405161080596959493929190614515565b60405180910390f35b6108286004803603810190610823919061457d565b611f8a565b60405161083591906139a9565b60405180910390f35b61085860048036038101906108539190613ab5565b61201e565b6040516108659190613bb9565b60405180910390f35b61088860048036038101906108839190614208565b61203e565b005b610892612135565b60405161089f9190613b23565b60405180910390f35b6108c260048036038101906108bd9190614124565b61215b565b005b6108cc61236b565b6040516108d99190613b23565b60405180910390f35b60007f780e9d63000000000000000000000000000000000000000000000000000000007bffffffffffffffffffffffffffffffffffffffffffffffffffffffff1916827bffffffffffffffffffffffffffffffffffffffffffffffffffffffff19161480610955575061095482612391565b5b9050919050565b60606065805461096b906145ec565b80601f0160208091040260200160405190810160405280929190818152602001828054610997906145ec565b80156109e45780601f106109b9576101008083540402835291602001916109e4565b820191906000526020600020905b8154815290600101906020018083116109c757829003601f168201915b5050505050905090565b60006109f982612473565b610a38576040517f08c379a0000000000000000000000000000000000000000000000000000000008152600401610a2f9061468f565b60405180910390fd5b6069600083815260200190815260200160002060009054906101000a900473ffffffffffffffffffffffffffffffffffffffff169050919050565b6000610a7e8261162c565b90508073ffffffffffffffffffffffffffffffffffffffff168373ffffffffffffffffffffffffffffffffffffffff1603610aee576040517f08c379a0000000000000000000000000000000000000000000000000000000008152600401610ae590614721565b60405180910390fd5b8073ffffffffffffffffffffffffffffffffffffffff16610b0d6124df565b73ffffffffffffffffffffffffffffffffffffffff161480610b3c5750610b3b81610b366124df565b611f8a565b5b610b7b576040517f08c379a0000000000000000000000000000000000000000000000000000000008152600401610b72906147b3565b60405180910390fd5b610b8583836124e7565b505050565b60006101006000838152602001908152602001600020600401549050919050565b610bb3613780565b60ff60008381526020019081526020016000206040518060c00160405290816000820154815260200160018201548152602001600282015481526020016003820154815260200160048201548152602001600582018054610c13906145ec565b80601f0160208091040260200160405190810160405280929190818152602001828054610c3f906145ec565b8015610c8c5780601f10610c6157610100808354040283529160200191610c8c565b820191906000526020600020905b815481529060010190602001808311610c6f57829003601f168201915b5050505050815250509050919050565b6000609980549050905090565b610cba610cb46124df565b826125a0565b610cf9576040517f08c379a0000000000000000000000000000000000000000000000000000000008152600401610cf090614845565b60405180910390fd5b610d0483838361267e565b505050565b60006101006000838152602001908152602001600020600501549050919050565b60fd60009054906101000a900473ffffffffffffffffffffffffffffffffffffffff1681565b610d586137b6565b60005b83839050811015610e905760ff6000858584818110610d7d57610d7c614865565b5b9050602002013581526020019081526020016000206040518060c00160405290816000820154815260200160018201548152602001600282015481526020016003820154815260200160048201548152602001600582018054610ddf906145ec565b80601f0160208091040260200160405190810160405280929190818152602001828054610e0b906145ec565b8015610e585780601f10610e2d57610100808354040283529160200191610e58565b820191906000526020600020905b815481529060010190602001808311610e3b57829003601f168201915b50505050508152505082826101f48110610e7557610e74614865565b5b60200201819052508080610e88906148c3565b915050610d5b565b5092915050565b6000610ea2836116dd565b8210610ee3576040517f08c379a0000000000000000000000000000000000000000000000000000000008152600401610eda9061497d565b60405180910390fd5b609760008473ffffffffffffffffffffffffffffffffffffffff1673ffffffffffffffffffffffffffffffffffffffff168152602001908152602001600020600083815260200190815260200160002054905092915050565b610100602052806000526040600020600091509050806000015490806001015490806002015490806003015490806004015490806005015490806009018054610f84906145ec565b80601f0160208091040260200160405190810160405280929190818152602001828054610fb0906145ec565b8015610ffd5780601f10610fd257610100808354040283529160200191610ffd565b820191906000526020600020905b815481529060010190602001808311610fe057829003601f168201915b5050505050905087565b600060ff6000838152602001908152602001600020600301549050919050565b60fb60009054906101000a900473ffffffffffffffffffffffffffffffffffffffff1673ffffffffffffffffffffffffffffffffffffffff163373ffffffffffffffffffffffffffffffffffffffff16146110b7576040517f08c379a00000000000000000000000000000000000000000000000000000000081526004016110ae906149e9565b60405180910390fd5b600060016110c3610c9c565b6110cd9190614a09565b905060006040518060c00160405280610100600086815260200190815260200160002060000154815260200161010060008681526020019081526020016000206001015481526020016101006000868152602001908152602001600020600201548152602001610100600086815260200190815260200160002060030154815260200184815260200161010060008681526020019081526020016000206009018054611178906145ec565b80601f01602080910402602001604051908101604052809291908181526020018280546111a4906145ec565b80156111f15780601f106111c6576101008083540402835291602001916111f1565b820191906000526020600020905b8154815290600101906020018083116111d457829003601f168201915b505050505081525090508060ff6000848152602001908152602001600020600082015181600001556020820151816001015560408201518160020155606082015181600301556080820151816004015560a082015181600501908051906020019061125d9291906137e5565b5090505061126b84836128e4565b50505050565b61127961386b565b61010060008381526020019081526020016000206040518061010001604052908160008201548152602001600182015481526020016002820154815260200160038201548152602001600482015481526020016005820154815260200160068201600380602002604051908101604052809291908260038015611311576020028201915b8154815260200190600101908083116112fd575b5050505050815260200160098201805461132a906145ec565b80601f0160208091040260200160405190810160405280929190818152602001828054611356906145ec565b80156113a35780601f10611378576101008083540402835291602001916113a3565b820191906000526020600020905b81548152906001019060200180831161138657829003601f168201915b5050505050815250509050919050565b6113ce83838360405180602001604052806000815250611b31565b505050565b6113db6124df565b73ffffffffffffffffffffffffffffffffffffffff166113f961199e565b73ffffffffffffffffffffffffffffffffffffffff161461144f576040517f08c379a000000000000000000000000000000000000000000000000000000000815260040161144690614aab565b60405180910390fd5b8360fb60006101000a81548173ffffffffffffffffffffffffffffffffffffffff021916908373ffffffffffffffffffffffffffffffffffffffff1602179055508260fc60006101000a81548173ffffffffffffffffffffffffffffffffffffffff021916908373ffffffffffffffffffffffffffffffffffffffff1602179055508160fd60006101000a81548173ffffffffffffffffffffffffffffffffffffffff021916908373ffffffffffffffffffffffffffffffffffffffff1602179055508060fe60006101000a81548173ffffffffffffffffffffffffffffffffffffffff021916908373ffffffffffffffffffffffffffffffffffffffff16021790555050505050565b6000611563610c9c565b82106115a4576040517f08c379a000000000000000000000000000000000000000000000000000000000815260040161159b90614b3d565b60405180910390fd5b609982815481106115b8576115b7614865565b5b90600052602060002001549050919050565b6115d26138b6565b6101006000838152602001908152602001600020600601600380602002604051908101604052809291908260038015611620576020028201915b81548152602001906001019080831161160c575b50505050509050919050565b6000806067600084815260200190815260200160002060009054906101000a900473ffffffffffffffffffffffffffffffffffffffff169050600073ffffffffffffffffffffffffffffffffffffffff168173ffffffffffffffffffffffffffffffffffffffff16036116d4576040517f08c379a00000000000000000000000000000000000000000000000000000000081526004016116cb90614bcf565b60405180910390fd5b80915050919050565b60008073ffffffffffffffffffffffffffffffffffffffff168273ffffffffffffffffffffffffffffffffffffffff160361174d576040517f08c379a000000000000000000000000000000000000000000000000000000000815260040161174490614c61565b60405180910390fd5b606860008373ffffffffffffffffffffffffffffffffffffffff1673ffffffffffffffffffffffffffffffffffffffff168152602001908152602001600020549050919050565b61179c6124df565b73ffffffffffffffffffffffffffffffffffffffff166117ba61199e565b73ffffffffffffffffffffffffffffffffffffffff1614611810576040517f08c379a000000000000000000000000000000000000000000000000000000000815260040161180790614aab565b60405180910390fd5b61181a6000612abd565b565b60fb60009054906101000a900473ffffffffffffffffffffffffffffffffffffffff1673ffffffffffffffffffffffffffffffffffffffff163373ffffffffffffffffffffffffffffffffffffffff16146118ac576040517f08c379a00000000000000000000000000000000000000000000000000000000081526004016118a3906149e9565b60405180910390fd5b8060ff600084815260200190815260200160002060010160008282546118d29190614c81565b925050819055505050565b60fb60009054906101000a900473ffffffffffffffffffffffffffffffffffffffff1673ffffffffffffffffffffffffffffffffffffffff163373ffffffffffffffffffffffffffffffffffffffff161461196d576040517f08c379a0000000000000000000000000000000000000000000000000000000008152600401611964906149e9565b60405180910390fd5b8060ff600084815260200190815260200160002060030160008282546119939190614a09565b925050819055505050565b600060c960009054906101000a900473ffffffffffffffffffffffffffffffffffffffff16905090565b6060606680546119d7906145ec565b80601f0160208091040260200160405190810160405280929190818152602001828054611a03906145ec565b8015611a505780601f10611a2557610100808354040283529160200191611a50565b820191906000526020600020905b815481529060010190602001808311611a3357829003601f168201915b5050505050905090565b611a6c611a656124df565b8383612b83565b5050565b60fb60009054906101000a900473ffffffffffffffffffffffffffffffffffffffff1673ffffffffffffffffffffffffffffffffffffffff163373ffffffffffffffffffffffffffffffffffffffff1614611b00576040517f08c379a0000000000000000000000000000000000000000000000000000000008152600401611af7906149e9565b60405180910390fd5b8060ff60008481526020019081526020016000206003016000828254611b269190614c81565b925050819055505050565b611b42611b3c6124df565b836125a0565b611b81576040517f08c379a0000000000000000000000000000000000000000000000000000000008152600401611b7890614845565b60405180910390fd5b611b8d84848484612cef565b50505050565b60fb60009054906101000a900473ffffffffffffffffffffffffffffffffffffffff1673ffffffffffffffffffffffffffffffffffffffff163373ffffffffffffffffffffffffffffffffffffffff1614611c23576040517f08c379a0000000000000000000000000000000000000000000000000000000008152600401611c1a906149e9565b60405180910390fd5b8060ff60008481526020019081526020016000206000016000828254611c499190614a09565b925050819055505050565b60fe60009054906101000a900473ffffffffffffffffffffffffffffffffffffffff1681565b60fb60009054906101000a900473ffffffffffffffffffffffffffffffffffffffff1673ffffffffffffffffffffffffffffffffffffffff163373ffffffffffffffffffffffffffffffffffffffff1614611d0a576040517f08c379a0000000000000000000000000000000000000000000000000000000008152600401611d01906149e9565b60405180910390fd5b8060ff60008481526020019081526020016000206001016000828254611d309190614a09565b925050819055505050565b611d436124df565b73ffffffffffffffffffffffffffffffffffffffff16611d6161199e565b73ffffffffffffffffffffffffffffffffffffffff1614611db7576040517f08c379a0000000000000000000000000000000000000000000000000000000008152600401611dae90614aab565b60405180910390fd5b8061010060008481526020019081526020016000208181611dd89190615292565b9050505050565b6060611dea82612473565b611e29576040517f08c379a0000000000000000000000000000000000000000000000000000000008152600401611e2090615312565b60405180910390fd5b6000611e33612d4b565b90506000815111611e535760405180602001604052806000815250611e7e565b80611e5d84612d62565b604051602001611e6e92919061536e565b6040516020818303038152906040525b915050919050565b600060ff6000838152602001908152602001600020600201549050919050565b600060ff6000838152602001908152602001600020600001549050919050565b60ff602052806000526040600020600091509050806000015490806001015490806002015490806003015490806004015490806005018054611f07906145ec565b80601f0160208091040260200160405190810160405280929190818152602001828054611f33906145ec565b8015611f805780601f10611f5557610100808354040283529160200191611f80565b820191906000526020600020905b815481529060010190602001808311611f6357829003601f168201915b5050505050905086565b6000606a60008473ffffffffffffffffffffffffffffffffffffffff1673ffffffffffffffffffffffffffffffffffffffff16815260200190815260200160002060008373ffffffffffffffffffffffffffffffffffffffff1673ffffffffffffffffffffffffffffffffffffffff16815260200190815260200160002060009054906101000a900460ff16905092915050565b600060ff6000838152602001908152602001600020600101549050919050565b6120466124df565b73ffffffffffffffffffffffffffffffffffffffff1661206461199e565b73ffffffffffffffffffffffffffffffffffffffff16146120ba576040517f08c379a00000000000000000000000000000000000000000000000000000000081526004016120b190614aab565b60405180910390fd5b600073ffffffffffffffffffffffffffffffffffffffff168173ffffffffffffffffffffffffffffffffffffffff1603612129576040517f08c379a000000000000000000000000000000000000000000000000000000000815260040161212090615404565b60405180910390fd5b61213281612abd565b50565b60fb60009054906101000a900473ffffffffffffffffffffffffffffffffffffffff1681565b60006121676001612ec2565b9050801561218b576001600060016101000a81548160ff0219169083151502179055505b6121ff6040518060400160405280600a81526020017f4d61676961556e697473000000000000000000000000000000000000000000008152506040518060400160405280600381526020017f4d554e0000000000000000000000000000000000000000000000000000000000815250612fb2565b61220761300f565b8460fb60006101000a81548173ffffffffffffffffffffffffffffffffffffffff021916908373ffffffffffffffffffffffffffffffffffffffff1602179055508360fc60006101000a81548173ffffffffffffffffffffffffffffffffffffffff021916908373ffffffffffffffffffffffffffffffffffffffff1602179055508260fd60006101000a81548173ffffffffffffffffffffffffffffffffffffffff021916908373ffffffffffffffffffffffffffffffffffffffff1602179055508160fe60006101000a81548173ffffffffffffffffffffffffffffffffffffffff021916908373ffffffffffffffffffffffffffffffffffffffff16021790555080156123645760008060016101000a81548160ff0219169083151502179055507f7f26b83ff96e1f2b6a682f133852f6798a09c465da95921460cefb3847402498600160405161235b919061546c565b60405180910390a15b5050505050565b60fc60009054906101000a900473ffffffffffffffffffffffffffffffffffffffff1681565b60007f80ac58cd000000000000000000000000000000000000000000000000000000007bffffffffffffffffffffffffffffffffffffffffffffffffffffffff1916827bffffffffffffffffffffffffffffffffffffffffffffffffffffffff1916148061245c57507f5b5e139f000000000000000000000000000000000000000000000000000000007bffffffffffffffffffffffffffffffffffffffffffffffffffffffff1916827bffffffffffffffffffffffffffffffffffffffffffffffffffffffff1916145b8061246c575061246b82613068565b5b9050919050565b60008073ffffffffffffffffffffffffffffffffffffffff166067600084815260200190815260200160002060009054906101000a900473ffffffffffffffffffffffffffffffffffffffff1673ffffffffffffffffffffffffffffffffffffffff1614159050919050565b600033905090565b816069600083815260200190815260200160002060006101000a81548173ffffffffffffffffffffffffffffffffffffffff021916908373ffffffffffffffffffffffffffffffffffffffff160217905550808273ffffffffffffffffffffffffffffffffffffffff1661255a8361162c565b73ffffffffffffffffffffffffffffffffffffffff167f8c5be1e5ebec7d5bd14f71427d1e84f3dd0314c0f7b2291e5b200ac8c7c3b92560405160405180910390a45050565b60006125ab82612473565b6125ea576040517f08c379a00000000000000000000000000000000000000000000000000000000081526004016125e1906154f9565b60405180910390fd5b60006125f58361162c565b90508073ffffffffffffffffffffffffffffffffffffffff168473ffffffffffffffffffffffffffffffffffffffff16148061263757506126368185611f8a565b5b8061267557508373ffffffffffffffffffffffffffffffffffffffff1661265d846109ee565b73ffffffffffffffffffffffffffffffffffffffff16145b91505092915050565b8273ffffffffffffffffffffffffffffffffffffffff1661269e8261162c565b73ffffffffffffffffffffffffffffffffffffffff16146126f4576040517f08c379a00000000000000000000000000000000000000000000000000000000081526004016126eb9061558b565b60405180910390fd5b600073ffffffffffffffffffffffffffffffffffffffff168273ffffffffffffffffffffffffffffffffffffffff1603612763576040517f08c379a000000000000000000000000000000000000000000000000000000000815260040161275a9061561d565b60405180910390fd5b61276e8383836130d2565b6127796000826124e7565b6001606860008573ffffffffffffffffffffffffffffffffffffffff1673ffffffffffffffffffffffffffffffffffffffff16815260200190815260200160002060008282546127c99190614c81565b925050819055506001606860008473ffffffffffffffffffffffffffffffffffffffff1673ffffffffffffffffffffffffffffffffffffffff16815260200190815260200160002060008282546128209190614a09565b92505081905550816067600083815260200190815260200160002060006101000a81548173ffffffffffffffffffffffffffffffffffffffff021916908373ffffffffffffffffffffffffffffffffffffffff160217905550808273ffffffffffffffffffffffffffffffffffffffff168473ffffffffffffffffffffffffffffffffffffffff167fddf252ad1be2c89b69c2b068fc378daa952ba7f163c4a11628f55a4df523b3ef60405160405180910390a46128df8383836131e4565b505050565b600073ffffffffffffffffffffffffffffffffffffffff168273ffffffffffffffffffffffffffffffffffffffff1603612953576040517f08c379a000000000000000000000000000000000000000000000000000000000815260040161294a90615689565b60405180910390fd5b61295c81612473565b1561299c576040517f08c379a0000000000000000000000000000000000000000000000000000000008152600401612993906156f5565b60405180910390fd5b6129a8600083836130d2565b6001606860008473ffffffffffffffffffffffffffffffffffffffff1673ffffffffffffffffffffffffffffffffffffffff16815260200190815260200160002060008282546129f89190614a09565b92505081905550816067600083815260200190815260200160002060006101000a81548173ffffffffffffffffffffffffffffffffffffffff021916908373ffffffffffffffffffffffffffffffffffffffff160217905550808273ffffffffffffffffffffffffffffffffffffffff16600073ffffffffffffffffffffffffffffffffffffffff167fddf252ad1be2c89b69c2b068fc378daa952ba7f163c4a11628f55a4df523b3ef60405160405180910390a4612ab9600083836131e4565b5050565b600060c960009054906101000a900473ffffffffffffffffffffffffffffffffffffffff1690508160c960006101000a81548173ffffffffffffffffffffffffffffffffffffffff021916908373ffffffffffffffffffffffffffffffffffffffff1602179055508173ffffffffffffffffffffffffffffffffffffffff168173ffffffffffffffffffffffffffffffffffffffff167f8be0079c531659141344cd1fd0a4f28419497f9722a3daafe3b4186f6b6457e060405160405180910390a35050565b8173ffffffffffffffffffffffffffffffffffffffff168373ffffffffffffffffffffffffffffffffffffffff1603612bf1576040517f08c379a0000000000000000000000000000000000000000000000000000000008152600401612be890615761565b60405180910390fd5b80606a60008573ffffffffffffffffffffffffffffffffffffffff1673ffffffffffffffffffffffffffffffffffffffff16815260200190815260200160002060008473ffffffffffffffffffffffffffffffffffffffff1673ffffffffffffffffffffffffffffffffffffffff16815260200190815260200160002060006101000a81548160ff0219169083151502179055508173ffffffffffffffffffffffffffffffffffffffff168373ffffffffffffffffffffffffffffffffffffffff167f17307eab39ab6107e8899845ad3d59bd9653f200f220920489ca2b5937696c3183604051612ce291906139a9565b60405180910390a3505050565b612cfa84848461267e565b612d06848484846131e9565b612d45576040517f08c379a0000000000000000000000000000000000000000000000000000000008152600401612d3c906157f3565b60405180910390fd5b50505050565b606060405180602001604052806000815250905090565b606060008203612da9576040518060400160405280600181526020017f30000000000000000000000000000000000000000000000000000000000000008152509050612ebd565b600082905060005b60008214612ddb578080612dc4906148c3565b915050600a82612dd49190615842565b9150612db1565b60008167ffffffffffffffff811115612df757612df66142e6565b5b6040519080825280601f01601f191660200182016040528015612e295781602001600182028036833780820191505090505b5090505b60008514612eb657600182612e429190614c81565b9150600a85612e519190615873565b6030612e5d9190614a09565b60f81b818381518110612e7357612e72614865565b5b60200101907effffffffffffffffffffffffffffffffffffffffffffffffffffffffffffff1916908160001a905350600a85612eaf9190615842565b9450612e2d565b8093505050505b919050565b60008060019054906101000a900460ff1615612f395760018260ff16148015612ef15750612eef30613370565b155b612f30576040517f08c379a0000000000000000000000000000000000000000000000000000000008152600401612f2790615916565b60405180910390fd5b60009050612fad565b8160ff1660008054906101000a900460ff1660ff1610612f8e576040517f08c379a0000000000000000000000000000000000000000000000000000000008152600401612f8590615916565b60405180910390fd5b816000806101000a81548160ff021916908360ff160217905550600190505b919050565b600060019054906101000a900460ff16613001576040517f08c379a0000000000000000000000000000000000000000000000000000000008152600401612ff8906159a8565b60405180910390fd5b61300b8282613393565b5050565b600060019054906101000a900460ff1661305e576040517f08c379a0000000000000000000000000000000000000000000000000000000008152600401613055906159a8565b60405180910390fd5b613066613414565b565b60007f01ffc9a7000000000000000000000000000000000000000000000000000000007bffffffffffffffffffffffffffffffffffffffffffffffffffffffff1916827bffffffffffffffffffffffffffffffffffffffffffffffffffffffff1916149050919050565b6130dd838383613475565b600073ffffffffffffffffffffffffffffffffffffffff168373ffffffffffffffffffffffffffffffffffffffff160361311f5761311a8161347a565b61315e565b8173ffffffffffffffffffffffffffffffffffffffff168373ffffffffffffffffffffffffffffffffffffffff161461315d5761315c83826134c3565b5b5b600073ffffffffffffffffffffffffffffffffffffffff168273ffffffffffffffffffffffffffffffffffffffff16036131a05761319b81613630565b6131df565b8273ffffffffffffffffffffffffffffffffffffffff168273ffffffffffffffffffffffffffffffffffffffff16146131de576131dd8282613701565b5b5b505050565b505050565b600061320a8473ffffffffffffffffffffffffffffffffffffffff16613370565b15613363578373ffffffffffffffffffffffffffffffffffffffff1663150b7a026132336124df565b8786866040518563ffffffff1660e01b81526004016132559493929190615a1d565b6020604051808303816000875af192505050801561329157506040513d601f19601f8201168201806040525081019061328e9190615a7e565b60015b613313573d80600081146132c1576040519150601f19603f3d011682016040523d82523d6000602084013e6132c6565b606091505b50600081510361330b576040517f08c379a0000000000000000000000000000000000000000000000000000000008152600401613302906157f3565b60405180910390fd5b805181602001fd5b63150b7a0260e01b7bffffffffffffffffffffffffffffffffffffffffffffffffffffffff1916817bffffffffffffffffffffffffffffffffffffffffffffffffffffffff191614915050613368565b600190505b949350505050565b6000808273ffffffffffffffffffffffffffffffffffffffff163b119050919050565b600060019054906101000a900460ff166133e2576040517f08c379a00000000000000000000000000000000000000000000000000000000081526004016133d9906159a8565b60405180910390fd5b81606590805190602001906133f89291906137e5565b50806066908051906020019061340f9291906137e5565b505050565b600060019054906101000a900460ff16613463576040517f08c379a000000000000000000000000000000000000000000000000000000000815260040161345a906159a8565b60405180910390fd5b61347361346e6124df565b612abd565b565b505050565b609980549050609a600083815260200190815260200160002081905550609981908060018154018082558091505060019003906000526020600020016000909190919091505550565b600060016134d0846116dd565b6134da9190614c81565b90506000609860008481526020019081526020016000205490508181146135bf576000609760008673ffffffffffffffffffffffffffffffffffffffff1673ffffffffffffffffffffffffffffffffffffffff168152602001908152602001600020600084815260200190815260200160002054905080609760008773ffffffffffffffffffffffffffffffffffffffff1673ffffffffffffffffffffffffffffffffffffffff168152602001908152602001600020600084815260200190815260200160002081905550816098600083815260200190815260200160002081905550505b6098600084815260200190815260200160002060009055609760008573ffffffffffffffffffffffffffffffffffffffff1673ffffffffffffffffffffffffffffffffffffffff16815260200190815260200160002060008381526020019081526020016000206000905550505050565b600060016099805490506136449190614c81565b90506000609a600084815260200190815260200160002054905060006099838154811061367457613673614865565b5b90600052602060002001549050806099838154811061369657613695614865565b5b906000526020600020018190555081609a600083815260200190815260200160002081905550609a60008581526020019081526020016000206000905560998054806136e5576136e4615aab565b5b6001900381819060005260206000200160009055905550505050565b600061370c836116dd565b905081609760008573ffffffffffffffffffffffffffffffffffffffff1673ffffffffffffffffffffffffffffffffffffffff168152602001908152602001600020600083815260200190815260200160002081905550806098600084815260200190815260200160002081905550505050565b6040518060c001604052806000815260200160008152602001600081526020016000815260200160008152602001606081525090565b60405180613e8001604052806101f4905b6137cf613780565b8152602001906001900390816137c75790505090565b8280546137f1906145ec565b90600052602060002090601f016020900481019282613813576000855561385a565b82601f1061382c57805160ff191683800117855561385a565b8280016001018555821561385a579182015b8281111561385957825182559160200191906001019061383e565b5b50905061386791906138d8565b5090565b6040518061010001604052806000815260200160008152602001600081526020016000815260200160008152602001600081526020016138a96138b6565b8152602001606081525090565b6040518060600160405280600390602082028036833780820191505090505090565b5b808211156138f15760008160009055506001016138d9565b5090565b6000604051905090565b600080fd5b600080fd5b60007fffffffff0000000000000000000000000000000000000000000000000000000082169050919050565b61393e81613909565b811461394957600080fd5b50565b60008135905061395b81613935565b92915050565b600060208284031215613977576139766138ff565b5b60006139858482850161394c565b91505092915050565b60008115159050919050565b6139a38161398e565b82525050565b60006020820190506139be600083018461399a565b92915050565b600081519050919050565b600082825260208201905092915050565b60005b838110156139fe5780820151818401526020810190506139e3565b83811115613a0d576000848401525b50505050565b6000601f19601f8301169050919050565b6000613a2f826139c4565b613a3981856139cf565b9350613a498185602086016139e0565b613a5281613a13565b840191505092915050565b60006020820190508181036000830152613a778184613a24565b905092915050565b6000819050919050565b613a9281613a7f565b8114613a9d57600080fd5b50565b600081359050613aaf81613a89565b92915050565b600060208284031215613acb57613aca6138ff565b5b6000613ad984828501613aa0565b91505092915050565b600073ffffffffffffffffffffffffffffffffffffffff82169050919050565b6000613b0d82613ae2565b9050919050565b613b1d81613b02565b82525050565b6000602082019050613b386000830184613b14565b92915050565b613b4781613b02565b8114613b5257600080fd5b50565b600081359050613b6481613b3e565b92915050565b60008060408385031215613b8157613b806138ff565b5b6000613b8f85828601613b55565b9250506020613ba085828601613aa0565b9150509250929050565b613bb381613a7f565b82525050565b6000602082019050613bce6000830184613baa565b92915050565b613bdd81613a7f565b82525050565b600082825260208201905092915050565b6000613bff826139c4565b613c098185613be3565b9350613c198185602086016139e0565b613c2281613a13565b840191505092915050565b600060c083016000830151613c456000860182613bd4565b506020830151613c586020860182613bd4565b506040830151613c6b6040860182613bd4565b506060830151613c7e6060860182613bd4565b506080830151613c916080860182613bd4565b5060a083015184820360a0860152613ca98282613bf4565b9150508091505092915050565b60006020820190508181036000830152613cd08184613c2d565b905092915050565b600080600060608486031215613cf157613cf06138ff565b5b6000613cff86828701613b55565b9350506020613d1086828701613b55565b9250506040613d2186828701613aa0565b9150509250925092565b600080fd5b600080fd5b600080fd5b60008083601f840112613d5057613d4f613d2b565b5b8235905067ffffffffffffffff811115613d6d57613d6c613d30565b5b602083019150836020820283011115613d8957613d88613d35565b5b9250929050565b60008060208385031215613da757613da66138ff565b5b600083013567ffffffffffffffff811115613dc557613dc4613904565b5b613dd185828601613d3a565b92509250509250929050565b60006101f49050919050565b600081905092915050565b6000819050919050565b600060c083016000830151613e166000860182613bd4565b506020830151613e296020860182613bd4565b506040830151613e3c6040860182613bd4565b506060830151613e4f6060860182613bd4565b506080830151613e626080860182613bd4565b5060a083015184820360a0860152613e7a8282613bf4565b9150508091505092915050565b6000613e938383613dfe565b905092915050565b6000602082019050919050565b6000613eb382613ddd565b613ebd8185613de9565b935083602082028501613ecf85613df4565b8060005b85811015613f0b5784840389528151613eec8582613e87565b9450613ef783613e9b565b925060208a01995050600181019050613ed3565b50829750879550505050505092915050565b60006020820190508181036000830152613f378184613ea8565b905092915050565b600060e082019050613f54600083018a613baa565b613f616020830189613baa565b613f6e6040830188613baa565b613f7b6060830187613baa565b613f886080830186613baa565b613f9560a0830185613baa565b81810360c0830152613fa78184613a24565b905098975050505050505050565b600060039050919050565b600081905092915050565b6000819050919050565b6000613fe18383613bd4565b60208301905092915050565b6000602082019050919050565b61400381613fb5565b61400d8184613fc0565b925061401882613fcb565b8060005b838110156140495781516140308782613fd5565b965061403b83613fed565b92505060018101905061401c565b505050505050565b60006101408301600083015161406a6000860182613bd4565b50602083015161407d6020860182613bd4565b5060408301516140906040860182613bd4565b5060608301516140a36060860182613bd4565b5060808301516140b66080860182613bd4565b5060a08301516140c960a0860182613bd4565b5060c08301516140dc60c0860182613ffa565b5060e08301518482036101208601526140f58282613bf4565b9150508091505092915050565b6000602082019050818103600083015261411c8184614051565b905092915050565b6000806000806080858703121561413e5761413d6138ff565b5b600061414c87828801613b55565b945050602061415d87828801613b55565b935050604061416e87828801613b55565b925050606061417f87828801613b55565b91505092959194509250565b600081905092915050565b61419f81613fb5565b6141a9818461418b565b92506141b482613fcb565b8060005b838110156141e55781516141cc8782613fd5565b96506141d783613fed565b9250506001810190506141b8565b505050505050565b60006060820190506142026000830184614196565b92915050565b60006020828403121561421e5761421d6138ff565b5b600061422c84828501613b55565b91505092915050565b6000806040838503121561424c5761424b6138ff565b5b600061425a85828601613aa0565b925050602061426b85828601613aa0565b9150509250929050565b61427e8161398e565b811461428957600080fd5b50565b60008135905061429b81614275565b92915050565b600080604083850312156142b8576142b76138ff565b5b60006142c685828601613b55565b92505060206142d78582860161428c565b9150509250929050565b600080fd5b7f4e487b7100000000000000000000000000000000000000000000000000000000600052604160045260246000fd5b61431e82613a13565b810181811067ffffffffffffffff8211171561433d5761433c6142e6565b5b80604052505050565b60006143506138f5565b905061435c8282614315565b919050565b600067ffffffffffffffff82111561437c5761437b6142e6565b5b61438582613a13565b9050602081019050919050565b82818337600083830152505050565b60006143b46143af84614361565b614346565b9050828152602081018484840111156143d0576143cf6142e1565b5b6143db848285614392565b509392505050565b600082601f8301126143f8576143f7613d2b565b5b81356144088482602086016143a1565b91505092915050565b6000806000806080858703121561442b5761442a6138ff565b5b600061443987828801613b55565b945050602061444a87828801613b55565b935050604061445b87828801613aa0565b925050606085013567ffffffffffffffff81111561447c5761447b613904565b5b614488878288016143e3565b91505092959194509250565b600080fd5b600061014082840312156144b0576144af614494565b5b81905092915050565b600080604083850312156144d0576144cf6138ff565b5b60006144de85828601613aa0565b925050602083013567ffffffffffffffff8111156144ff576144fe613904565b5b61450b85828601614499565b9150509250929050565b600060c08201905061452a6000830189613baa565b6145376020830188613baa565b6145446040830187613baa565b6145516060830186613baa565b61455e6080830185613baa565b81810360a08301526145708184613a24565b9050979650505050505050565b60008060408385031215614594576145936138ff565b5b60006145a285828601613b55565b92505060206145b385828601613b55565b9150509250929050565b7f4e487b7100000000000000000000000000000000000000000000000000000000600052602260045260246000fd5b6000600282049050600182168061460457607f821691505b602082108103614617576146166145bd565b5b50919050565b7f4552433732313a20617070726f76656420717565727920666f72206e6f6e657860008201527f697374656e7420746f6b656e0000000000000000000000000000000000000000602082015250565b6000614679602c836139cf565b91506146848261461d565b604082019050919050565b600060208201905081810360008301526146a88161466c565b9050919050565b7f4552433732313a20617070726f76616c20746f2063757272656e74206f776e6560008201527f7200000000000000000000000000000000000000000000000000000000000000602082015250565b600061470b6021836139cf565b9150614716826146af565b604082019050919050565b6000602082019050818103600083015261473a816146fe565b9050919050565b7f4552433732313a20617070726f76652063616c6c6572206973206e6f74206f7760008201527f6e6572206e6f7220617070726f76656420666f7220616c6c0000000000000000602082015250565b600061479d6038836139cf565b91506147a882614741565b604082019050919050565b600060208201905081810360008301526147cc81614790565b9050919050565b7f4552433732313a207472616e736665722063616c6c6572206973206e6f74206f60008201527f776e6572206e6f7220617070726f766564000000000000000000000000000000602082015250565b600061482f6031836139cf565b915061483a826147d3565b604082019050919050565b6000602082019050818103600083015261485e81614822565b9050919050565b7f4e487b7100000000000000000000000000000000000000000000000000000000600052603260045260246000fd5b7f4e487b7100000000000000000000000000000000000000000000000000000000600052601160045260246000fd5b60006148ce82613a7f565b91507fffffffffffffffffffffffffffffffffffffffffffffffffffffffffffffffff8203614900576148ff614894565b5b600182019050919050565b7f455243373231456e756d657261626c653a206f776e657220696e646578206f7560008201527f74206f6620626f756e6473000000000000000000000000000000000000000000602082015250565b6000614967602b836139cf565b91506149728261490b565b604082019050919050565b600060208201905081810360008301526149968161495a565b9050919050565b7f4d61676961556e6974733a207265737472696374656400000000000000000000600082015250565b60006149d36016836139cf565b91506149de8261499d565b602082019050919050565b60006020820190508181036000830152614a02816149c6565b9050919050565b6000614a1482613a7f565b9150614a1f83613a7f565b9250827fffffffffffffffffffffffffffffffffffffffffffffffffffffffffffffffff03821115614a5457614a53614894565b5b828201905092915050565b7f4f776e61626c653a2063616c6c6572206973206e6f7420746865206f776e6572600082015250565b6000614a956020836139cf565b9150614aa082614a5f565b602082019050919050565b60006020820190508181036000830152614ac481614a88565b9050919050565b7f455243373231456e756d657261626c653a20676c6f62616c20696e646578206f60008201527f7574206f6620626f756e64730000000000000000000000000000000000000000602082015250565b6000614b27602c836139cf565b9150614b3282614acb565b604082019050919050565b60006020820190508181036000830152614b5681614b1a565b9050919050565b7f4552433732313a206f776e657220717565727920666f72206e6f6e657869737460008201527f656e7420746f6b656e0000000000000000000000000000000000000000000000602082015250565b6000614bb96029836139cf565b9150614bc482614b5d565b604082019050919050565b60006020820190508181036000830152614be881614bac565b9050919050565b7f4552433732313a2062616c616e636520717565727920666f7220746865207a6560008201527f726f206164647265737300000000000000000000000000000000000000000000602082015250565b6000614c4b602a836139cf565b9150614c5682614bef565b604082019050919050565b60006020820190508181036000830152614c7a81614c3e565b9050919050565b6000614c8c82613a7f565b9150614c9783613a7f565b925082821015614caa57614ca9614894565b5b828203905092915050565b60008135614cc281613a89565b80915050919050565b60008160001b9050919050565b60007fffffffffffffffffffffffffffffffffffffffffffffffffffffffffffffffff614d0484614ccb565b9350801983169250808416831791505092915050565b6000819050919050565b6000614d3f614d3a614d3584613a7f565b614d1a565b613a7f565b9050919050565b6000819050919050565b614d5982614d24565b614d6c614d6582614d46565b8354614cd8565b8255505050565b6000819050919050565b600060039050919050565b60008190506001806001038301049050919050565b6000819050919050565b600082821b905092915050565b600060088302614de47fffffffffffffffffffffffffffffffffffffffffffffffffffffffffffffffff82614da7565b614dee8683614da7565b95508019841693508086168417925050509392505050565b614e0f83614d24565b614e23614e1b82614d46565b848454614db4565b825550505050565b600090565b614e38614e2b565b614e43818484614e06565b505050565b5b81811015614e6757614e5c600082614e30565b600181019050614e49565b5050565b600082821c905092915050565b81831015614eb157614e8982614d88565b614e9284614d88565b614e9b83614d9d565b818101838201614eab8183614e48565b50505050505b505050565b68010000000000000000821115614ed057614ecf6142e6565b5b614ed981614d7d565b614ee4838284614e78565b505050565b600060039050919050565b614efd82614ee9565b614f078183614eb6565b614f1083614d73565b614f1983614d9d565b6000805b84811015614f545783614f2f81614cb5565b9050614f3c818486614e06565b60208501945060018401935050600181019050614f1d565b50505050505050565b614f678282614ef4565b5050565b600080fd5b600080fd5b600080fd5b60008083356001602003843603038112614f9757614f96614f6b565b5b80840192508235915067ffffffffffffffff821115614fb957614fb8614f70565b5b602083019250600182023603831315614fd557614fd4614f75565b5b509250929050565b600082905092915050565b60008190508160005260206000209050919050565b60006020601f8301049050919050565b5b8181101561502c57615021600082614e30565b60018101905061500e565b5050565b601f8211156150715761504281614fe8565b61504b84614ffd565b8101602085101561505a578190505b61506e61506685614ffd565b83018261500d565b50505b505050565b600061508760001984600802614e6b565b1980831691505092915050565b60006150a08383615076565b9150826002028217905092915050565b6150ba8383614fdd565b67ffffffffffffffff8111156150d3576150d26142e6565b5b6150dd82546145ec565b6150e8828285615030565b6000601f8311600181146151175760008415615105578287013590505b61510f8582615094565b865550615177565b601f19841661512586614fe8565b60005b8281101561514d57848901358255600182019150602085019450602081019050615128565b8683101561516a5784890135615166601f891682615076565b8355505b6001600288020188555050505b50505050505050565b61518b8383836150b0565b505050565b6000810160008301806151a281614cb5565b90506151ae8184614d50565b5050506001810160208301806151c381614cb5565b90506151cf8184614d50565b5050506002810160408301806151e481614cb5565b90506151f08184614d50565b50505060038101606083018061520581614cb5565b90506152118184614d50565b50505060048101608083018061522681614cb5565b90506152328184614d50565b5050506005810160a083018061524781614cb5565b90506152538184614d50565b5050506006810160c08301806152698184614f5d565b50505060098101610120830161527f8185614f7a565b61528a818386615180565b505050505050565b61529c8282615190565b5050565b7f4552433732314d657461646174613a2055524920717565727920666f72206e6f60008201527f6e6578697374656e7420746f6b656e0000000000000000000000000000000000602082015250565b60006152fc602f836139cf565b9150615307826152a0565b604082019050919050565b6000602082019050818103600083015261532b816152ef565b9050919050565b600081905092915050565b6000615348826139c4565b6153528185615332565b93506153628185602086016139e0565b80840191505092915050565b600061537a828561533d565b9150615386828461533d565b91508190509392505050565b7f4f776e61626c653a206e6577206f776e657220697320746865207a65726f206160008201527f6464726573730000000000000000000000000000000000000000000000000000602082015250565b60006153ee6026836139cf565b91506153f982615392565b604082019050919050565b6000602082019050818103600083015261541d816153e1565b9050919050565b6000819050919050565b600060ff82169050919050565b600061545661545161544c84615424565b614d1a565b61542e565b9050919050565b6154668161543b565b82525050565b6000602082019050615481600083018461545d565b92915050565b7f4552433732313a206f70657261746f7220717565727920666f72206e6f6e657860008201527f697374656e7420746f6b656e0000000000000000000000000000000000000000602082015250565b60006154e3602c836139cf565b91506154ee82615487565b604082019050919050565b60006020820190508181036000830152615512816154d6565b9050919050565b7f4552433732313a207472616e736665722066726f6d20696e636f72726563742060008201527f6f776e6572000000000000000000000000000000000000000000000000000000602082015250565b60006155756025836139cf565b915061558082615519565b604082019050919050565b600060208201905081810360008301526155a481615568565b9050919050565b7f4552433732313a207472616e7366657220746f20746865207a65726f2061646460008201527f7265737300000000000000000000000000000000000000000000000000000000602082015250565b60006156076024836139cf565b9150615612826155ab565b604082019050919050565b60006020820190508181036000830152615636816155fa565b9050919050565b7f4552433732313a206d696e7420746f20746865207a65726f2061646472657373600082015250565b60006156736020836139cf565b915061567e8261563d565b602082019050919050565b600060208201905081810360008301526156a281615666565b9050919050565b7f4552433732313a20746f6b656e20616c7265616479206d696e74656400000000600082015250565b60006156df601c836139cf565b91506156ea826156a9565b602082019050919050565b6000602082019050818103600083015261570e816156d2565b9050919050565b7f4552433732313a20617070726f766520746f2063616c6c657200000000000000600082015250565b600061574b6019836139cf565b915061575682615715565b602082019050919050565b6000602082019050818103600083015261577a8161573e565b9050919050565b7f4552433732313a207472616e7366657220746f206e6f6e20455243373231526560008201527f63656976657220696d706c656d656e7465720000000000000000000000000000602082015250565b60006157dd6032836139cf565b91506157e882615781565b604082019050919050565b6000602082019050818103600083015261580c816157d0565b9050919050565b7f4e487b7100000000000000000000000000000000000000000000000000000000600052601260045260246000fd5b600061584d82613a7f565b915061585883613a7f565b92508261586857615867615813565b5b828204905092915050565b600061587e82613a7f565b915061588983613a7f565b92508261589957615898615813565b5b828206905092915050565b7f496e697469616c697a61626c653a20636f6e747261637420697320616c72656160008201527f647920696e697469616c697a6564000000000000000000000000000000000000602082015250565b6000615900602e836139cf565b915061590b826158a4565b604082019050919050565b6000602082019050818103600083015261592f816158f3565b9050919050565b7f496e697469616c697a61626c653a20636f6e7472616374206973206e6f74206960008201527f6e697469616c697a696e67000000000000000000000000000000000000000000602082015250565b6000615992602b836139cf565b915061599d82615936565b604082019050919050565b600060208201905081810360008301526159c181615985565b9050919050565b600081519050919050565b600082825260208201905092915050565b60006159ef826159c8565b6159f981856159d3565b9350615a098185602086016139e0565b615a1281613a13565b840191505092915050565b6000608082019050615a326000830187613b14565b615a3f6020830186613b14565b615a4c6040830185613baa565b8181036060830152615a5e81846159e4565b905095945050505050565b600081519050615a7881613935565b92915050565b600060208284031215615a9457615a936138ff565b5b6000615aa284828501615a69565b91505092915050565b7f4e487b7100000000000000000000000000000000000000000000000000000000600052603160045260246000fdfea26469706673582212204307a7cf954bab5a4493d721d0ea1922945becaabae836f58391c6ef8482f4cd64736f6c634300080d0033",
  "linkReferences": {},
  "deployedLinkReferences": {}
}