{
  "_format": "hh-sol-artifact-1",
  "contractName": "MagiaSpells",
  "sourceName": "contracts/other/MagiaSpells.sol",
  "abi": [
    {
      "anonymous": false,
      "inputs": [
        {
          "indexed": true,
          "internalType": "address",
          "name": "account",
          "type": "address"
        },
        {
          "indexed": true,
          "internalType": "address",
          "name": "operator",
          "type": "address"
        },
        {
          "indexed": false,
          "internalType": "bool",
          "name": "approved",
          "type": "bool"
        }
      ],
      "name": "ApprovalForAll",
      "type": "event"
    },
    {
      "anonymous": false,
      "inputs": [
        {
          "indexed": false,
          "internalType": "uint8",
          "name": "version",
          "type": "uint8"
        }
      ],
      "name": "Initialized",
      "type": "event"
    },
    {
      "anonymous": false,
      "inputs": [
        {
          "indexed": true,
          "internalType": "address",
          "name": "previousOwner",
          "type": "address"
        },
        {
          "indexed": true,
          "internalType": "address",
          "name": "newOwner",
          "type": "address"
        }
      ],
      "name": "OwnershipTransferred",
      "type": "event"
    },
    {
      "anonymous": false,
      "inputs": [
        {
          "indexed": true,
          "internalType": "address",
          "name": "operator",
          "type": "address"
        },
        {
          "indexed": true,
          "internalType": "address",
          "name": "from",
          "type": "address"
        },
        {
          "indexed": true,
          "internalType": "address",
          "name": "to",
          "type": "address"
        },
        {
          "indexed": false,
          "internalType": "uint256[]",
          "name": "ids",
          "type": "uint256[]"
        },
        {
          "indexed": false,
          "internalType": "uint256[]",
          "name": "values",
          "type": "uint256[]"
        }
      ],
      "name": "TransferBatch",
      "type": "event"
    },
    {
      "anonymous": false,
      "inputs": [
        {
          "indexed": true,
          "internalType": "address",
          "name": "operator",
          "type": "address"
        },
        {
          "indexed": true,
          "internalType": "address",
          "name": "from",
          "type": "address"
        },
        {
          "indexed": true,
          "internalType": "address",
          "name": "to",
          "type": "address"
        },
        {
          "indexed": false,
          "internalType": "uint256",
          "name": "id",
          "type": "uint256"
        },
        {
          "indexed": false,
          "internalType": "uint256",
          "name": "value",
          "type": "uint256"
        }
      ],
      "name": "TransferSingle",
      "type": "event"
    },
    {
      "anonymous": false,
      "inputs": [
        {
          "indexed": false,
          "internalType": "string",
          "name": "value",
          "type": "string"
        },
        {
          "indexed": true,
          "internalType": "uint256",
          "name": "id",
          "type": "uint256"
        }
      ],
      "name": "URI",
      "type": "event"
    },
    {
      "inputs": [
        {
          "internalType": "uint256",
          "name": "_id",
          "type": "uint256"
        },
        {
          "components": [
            {
              "internalType": "uint256",
              "name": "craftTime",
              "type": "uint256"
            },
            {
              "internalType": "uint256[5]",
              "name": "magicReqs",
              "type": "uint256[5]"
            },
            {
              "internalType": "uint256[3]",
              "name": "cost",
              "type": "uint256[3]"
            },
            {
              "internalType": "string",
              "name": "name",
              "type": "string"
            }
          ],
          "internalType": "struct MagiaSpells.Spell",
          "name": "_spell",
          "type": "tuple"
        }
      ],
      "name": "addSpell",
      "outputs": [],
      "stateMutability": "nonpayable",
      "type": "function"
    },
    {
      "inputs": [
        {
          "internalType": "address",
          "name": "account",
          "type": "address"
        },
        {
          "internalType": "uint256",
          "name": "id",
          "type": "uint256"
        }
      ],
      "name": "balanceOf",
      "outputs": [
        {
          "internalType": "uint256",
          "name": "",
          "type": "uint256"
        }
      ],
      "stateMutability": "view",
      "type": "function"
    },
    {
      "inputs": [
        {
          "internalType": "address[]",
          "name": "accounts",
          "type": "address[]"
        },
        {
          "internalType": "uint256[]",
          "name": "ids",
          "type": "uint256[]"
        }
      ],
      "name": "balanceOfBatch",
      "outputs": [
        {
          "internalType": "uint256[]",
          "name": "",
          "type": "uint256[]"
        }
      ],
      "stateMutability": "view",
      "type": "function"
    },
    {
      "inputs": [
        {
          "internalType": "address",
          "name": "_account",
          "type": "address"
        },
        {
          "internalType": "uint256",
          "name": "_spellId",
          "type": "uint256"
        },
        {
          "internalType": "uint256",
          "name": "_amount",
          "type": "uint256"
        }
      ],
      "name": "burn",
      "outputs": [],
      "stateMutability": "nonpayable",
      "type": "function"
    },
    {
      "inputs": [],
      "name": "gameDiamond",
      "outputs": [
        {
          "internalType": "address",
          "name": "",
          "type": "address"
        }
      ],
      "stateMutability": "view",
      "type": "function"
    },
    {
      "inputs": [],
      "name": "getBatchSpells",
      "outputs": [
        {
          "components": [
            {
              "internalType": "uint256",
              "name": "craftTime",
              "type": "uint256"
            },
            {
              "internalType": "uint256[5]",
              "name": "magicReqs",
              "type": "uint256[5]"
            },
            {
              "internalType": "uint256[3]",
              "name": "cost",
              "type": "uint256[3]"
            },
            {
              "internalType": "string",
              "name": "name",
              "type": "string"
            }
          ],
          "internalType": "struct MagiaSpells.Spell[5]",
          "name": "spells_",
          "type": "tuple[5]"
        }
      ],
      "stateMutability": "view",
      "type": "function"
    },
    {
      "inputs": [
        {
          "internalType": "uint256",
          "name": "_spellId",
          "type": "uint256"
        }
      ],
      "name": "getCost",
      "outputs": [
        {
          "internalType": "uint256[3]",
          "name": "",
          "type": "uint256[3]"
        }
      ],
      "stateMutability": "view",
      "type": "function"
    },
    {
      "inputs": [
        {
          "internalType": "uint256",
          "name": "_spellId",
          "type": "uint256"
        }
      ],
      "name": "getCraftTime",
      "outputs": [
        {
          "internalType": "uint256",
          "name": "",
          "type": "uint256"
        }
      ],
      "stateMutability": "view",
      "type": "function"
    },
    {
      "inputs": [
        {
          "internalType": "uint256",
          "name": "_spellId",
          "type": "uint256"
        }
      ],
      "name": "getMagicReqs",
      "outputs": [
        {
          "internalType": "uint256[5]",
          "name": "",
          "type": "uint256[5]"
        }
      ],
      "stateMutability": "view",
      "type": "function"
    },
    {
      "inputs": [
        {
          "internalType": "uint256",
          "name": "_spellId",
          "type": "uint256"
        }
      ],
      "name": "getNameBytes",
      "outputs": [
        {
          "internalType": "bytes",
          "name": "",
          "type": "bytes"
        }
      ],
      "stateMutability": "view",
      "type": "function"
    },
    {
      "inputs": [],
      "name": "gold",
      "outputs": [
        {
          "internalType": "address",
          "name": "",
          "type": "address"
        }
      ],
      "stateMutability": "view",
      "type": "function"
    },
    {
      "inputs": [
        {
          "internalType": "address",
          "name": "_gameDiamond",
          "type": "address"
        },
        {
          "internalType": "address",
          "name": "_gold",
          "type": "address"
        },
        {
          "internalType": "address",
          "name": "_lumber",
          "type": "address"
        },
        {
          "internalType": "address",
          "name": "_mana",
          "type": "address"
        }
      ],
      "name": "initialize",
      "outputs": [],
      "stateMutability": "nonpayable",
      "type": "function"
    },
    {
      "inputs": [
        {
          "internalType": "address",
          "name": "account",
          "type": "address"
        },
        {
          "internalType": "address",
          "name": "operator",
          "type": "address"
        }
      ],
      "name": "isApprovedForAll",
      "outputs": [
        {
          "internalType": "bool",
          "name": "",
          "type": "bool"
        }
      ],
      "stateMutability": "view",
      "type": "function"
    },
    {
      "inputs": [],
      "name": "lumber",
      "outputs": [
        {
          "internalType": "address",
          "name": "",
          "type": "address"
        }
      ],
      "stateMutability": "view",
      "type": "function"
    },
    {
      "inputs": [],
      "name": "mana",
      "outputs": [
        {
          "internalType": "address",
          "name": "",
          "type": "address"
        }
      ],
      "stateMutability": "view",
      "type": "function"
    },
    {
      "inputs": [
        {
          "internalType": "address",
          "name": "_account",
          "type": "address"
        },
        {
          "internalType": "uint256",
          "name": "_spellId",
          "type": "uint256"
        }
      ],
      "name": "mint",
      "outputs": [],
      "stateMutability": "nonpayable",
      "type": "function"
    },
    {
      "inputs": [],
      "name": "owner",
      "outputs": [
        {
          "internalType": "address",
          "name": "",
          "type": "address"
        }
      ],
      "stateMutability": "view",
      "type": "function"
    },
    {
      "inputs": [],
      "name": "renounceOwnership",
      "outputs": [],
      "stateMutability": "nonpayable",
      "type": "function"
    },
    {
      "inputs": [
        {
          "internalType": "address",
          "name": "from",
          "type": "address"
        },
        {
          "internalType": "address",
          "name": "to",
          "type": "address"
        },
        {
          "internalType": "uint256[]",
          "name": "ids",
          "type": "uint256[]"
        },
        {
          "internalType": "uint256[]",
          "name": "amounts",
          "type": "uint256[]"
        },
        {
          "internalType": "bytes",
          "name": "data",
          "type": "bytes"
        }
      ],
      "name": "safeBatchTransferFrom",
      "outputs": [],
      "stateMutability": "nonpayable",
      "type": "function"
    },
    {
      "inputs": [
        {
          "internalType": "address",
          "name": "from",
          "type": "address"
        },
        {
          "internalType": "address",
          "name": "to",
          "type": "address"
        },
        {
          "internalType": "uint256",
          "name": "id",
          "type": "uint256"
        },
        {
          "internalType": "uint256",
          "name": "amount",
          "type": "uint256"
        },
        {
          "internalType": "bytes",
          "name": "data",
          "type": "bytes"
        }
      ],
      "name": "safeTransferFrom",
      "outputs": [],
      "stateMutability": "nonpayable",
      "type": "function"
    },
    {
      "inputs": [
        {
          "internalType": "address",
          "name": "_gameDiamond",
          "type": "address"
        },
        {
          "internalType": "address",
          "name": "_gold",
          "type": "address"
        },
        {
          "internalType": "address",
          "name": "_lumber",
          "type": "address"
        },
        {
          "internalType": "address",
          "name": "_mana",
          "type": "address"
        }
      ],
      "name": "setAddresses",
      "outputs": [],
      "stateMutability": "nonpayable",
      "type": "function"
    },
    {
      "inputs": [
        {
          "internalType": "address",
          "name": "operator",
          "type": "address"
        },
        {
          "internalType": "bool",
          "name": "approved",
          "type": "bool"
        }
      ],
      "name": "setApprovalForAll",
      "outputs": [],
      "stateMutability": "nonpayable",
      "type": "function"
    },
    {
      "inputs": [
        {
          "internalType": "uint256",
          "name": "",
          "type": "uint256"
        }
      ],
      "name": "spells",
      "outputs": [
        {
          "internalType": "uint256",
          "name": "craftTime",
          "type": "uint256"
        },
        {
          "internalType": "string",
          "name": "name",
          "type": "string"
        }
      ],
      "stateMutability": "view",
      "type": "function"
    },
    {
      "inputs": [
        {
          "internalType": "bytes4",
          "name": "interfaceId",
          "type": "bytes4"
        }
      ],
      "name": "supportsInterface",
      "outputs": [
        {
          "internalType": "bool",
          "name": "",
          "type": "bool"
        }
      ],
      "stateMutability": "view",
      "type": "function"
    },
    {
      "inputs": [
        {
          "internalType": "address",
          "name": "newOwner",
          "type": "address"
        }
      ],
      "name": "transferOwnership",
      "outputs": [],
      "stateMutability": "nonpayable",
      "type": "function"
    },
    {
      "inputs": [
        {
          "internalType": "uint256",
          "name": "",
          "type": "uint256"
        }
      ],
      "name": "uri",
      "outputs": [
        {
          "internalType": "string",
          "name": "",
          "type": "string"
        }
      ],
      "stateMutability": "view",
      "type": "function"
    }
  ],
  "bytecode": "0x608060405234801561001057600080fd5b50614d5b806100206000396000f3fe608060405234801561001057600080fd5b506004361061018d5760003560e01c80638da5cb5b116100de578063f242432a11610097578063f7c0d44f11610071578063f7c0d44f146104a5578063f8c8765e146104c3578063fa1d411a146104df578063fbec6f211461050f5761018d565b8063f242432a14610451578063f2fde38b1461046d578063f5298aca146104895761018d565b80638da5cb5b1461037b578063a22cb46514610399578063bdb001a7146103b5578063db7eafd6146103d3578063e8ec846c146103f1578063e985e9c5146104215761018d565b806340c10f191161014b578063595083cc11610125578063595083cc146102f45780635a4dd47d146103105780635d5c6a4514610340578063715018a6146103715761018d565b806340c10f191461028c5780634a945f8d146102a85780634e1273f4146102c45761018d565b8062fdd58e1461019257806301ffc9a7146101c25780630e89341c146101f2578063278e2f68146102225780632ab82d6c146102525780632eb2c2d614610270575b600080fd5b6101ac60048036038101906101a79190612acf565b61052d565b6040516101b99190612b1e565b60405180910390f35b6101dc60048036038101906101d79190612b91565b6105f6565b6040516101e99190612bd9565b60405180910390f35b61020c60048036038101906102079190612bf4565b6106d8565b6040516102199190612cba565b60405180910390f35b61023c60048036038101906102379190612bf4565b61076c565b6040516102499190612b1e565b60405180910390f35b61025a61078c565b6040516102679190612ceb565b60405180910390f35b61028a60048036038101906102859190612f03565b6107b2565b005b6102a660048036038101906102a19190612acf565b610853565b005b6102c260048036038101906102bd9190612fd2565b610903565b005b6102de60048036038101906102d991906130fc565b610a89565b6040516102eb9190613232565b60405180910390f35b61030e60048036038101906103099190613279565b610ba2565b005b61032a60048036038101906103259190612bf4565b610c45565b6040516103379190613359565b60405180910390f35b61035a60048036038101906103559190612bf4565b610ca6565b604051610368929190613374565b60405180910390f35b610379610d52565b005b610383610dda565b6040516103909190612ceb565b60405180910390f35b6103b360048036038101906103ae91906133d0565b610e04565b005b6103bd610e1a565b6040516103ca9190612ceb565b60405180910390f35b6103db610e40565b6040516103e8919061365b565b60405180910390f35b61040b60048036038101906104069190612bf4565b610fd6565b60405161041891906136df565b60405180910390f35b61043b600480360381019061043691906136fa565b611037565b6040516104489190612bd9565b60405180910390f35b61046b6004803603810190610466919061373a565b6110cb565b005b610487600480360381019061048291906137d1565b61116c565b005b6104a3600480360381019061049e91906137fe565b611263565b005b6104ad611303565b6040516104ba9190612ceb565b60405180910390f35b6104dd60048036038101906104d89190612fd2565b611329565b005b6104f960048036038101906104f49190612bf4565b6114dd565b60405161050691906138a6565b60405180910390f35b610517611585565b6040516105249190612ceb565b60405180910390f35b60008073ffffffffffffffffffffffffffffffffffffffff168373ffffffffffffffffffffffffffffffffffffffff160361059d576040517f08c379a00000000000000000000000000000000000000000000000000000000081526004016105949061393a565b60405180910390fd5b6065600083815260200190815260200160002060008473ffffffffffffffffffffffffffffffffffffffff1673ffffffffffffffffffffffffffffffffffffffff16815260200190815260200160002054905092915050565b60007fd9b67a26000000000000000000000000000000000000000000000000000000007bffffffffffffffffffffffffffffffffffffffffffffffffffffffff1916827bffffffffffffffffffffffffffffffffffffffffffffffffffffffff191614806106c157507f0e89341c000000000000000000000000000000000000000000000000000000007bffffffffffffffffffffffffffffffffffffffffffffffffffffffff1916827bffffffffffffffffffffffffffffffffffffffffffffffffffffffff1916145b806106d157506106d0826115ab565b5b9050919050565b6060606780546106e790613989565b80601f016020809104026020016040519081016040528092919081815260200182805461071390613989565b80156107605780601f1061073557610100808354040283529160200191610760565b820191906000526020600020905b81548152906001019060200180831161074357829003601f168201915b50505050509050919050565b600060cd6000838152602001908152602001600020600001549050919050565b60cb60009054906101000a900473ffffffffffffffffffffffffffffffffffffffff1681565b6107ba611615565b73ffffffffffffffffffffffffffffffffffffffff168573ffffffffffffffffffffffffffffffffffffffff16148061080057506107ff856107fa611615565b611037565b5b61083f576040517f08c379a000000000000000000000000000000000000000000000000000000000815260040161083690613a2c565b60405180910390fd5b61084c858585858561161d565b5050505050565b60c960009054906101000a900473ffffffffffffffffffffffffffffffffffffffff1673ffffffffffffffffffffffffffffffffffffffff163373ffffffffffffffffffffffffffffffffffffffff16146108e3576040517f08c379a00000000000000000000000000000000000000000000000000000000081526004016108da90613a98565b60405180910390fd5b6108ff8282600160405180602001604052806000815250611941565b5050565b61090b611615565b73ffffffffffffffffffffffffffffffffffffffff16610929610dda565b73ffffffffffffffffffffffffffffffffffffffff161461097f576040517f08c379a000000000000000000000000000000000000000000000000000000000815260040161097690613b04565b60405180910390fd5b8360c960006101000a81548173ffffffffffffffffffffffffffffffffffffffff021916908373ffffffffffffffffffffffffffffffffffffffff1602179055508260ca60006101000a81548173ffffffffffffffffffffffffffffffffffffffff021916908373ffffffffffffffffffffffffffffffffffffffff1602179055508160cb60006101000a81548173ffffffffffffffffffffffffffffffffffffffff021916908373ffffffffffffffffffffffffffffffffffffffff1602179055508060cc60006101000a81548173ffffffffffffffffffffffffffffffffffffffff021916908373ffffffffffffffffffffffffffffffffffffffff16021790555050505050565b60608151835114610acf576040517f08c379a0000000000000000000000000000000000000000000000000000000008152600401610ac690613b96565b60405180910390fd5b6000835167ffffffffffffffff811115610aec57610aeb612d0b565b5b604051908082528060200260200182016040528015610b1a5781602001602082028036833780820191505090505b50905060005b8451811015610b9757610b67858281518110610b3f57610b3e613bb6565b5b6020026020010151858381518110610b5a57610b59613bb6565b5b602002602001015161052d565b828281518110610b7a57610b79613bb6565b5b60200260200101818152505080610b9090613c14565b9050610b20565b508091505092915050565b610baa611615565b73ffffffffffffffffffffffffffffffffffffffff16610bc8610dda565b73ffffffffffffffffffffffffffffffffffffffff1614610c1e576040517f08c379a0000000000000000000000000000000000000000000000000000000008152600401610c1590613b04565b60405180910390fd5b8060cd60008481526020019081526020016000208181610c3e91906142d1565b9050505050565b610c4d6128df565b60cd6000838152602001908152602001600020600601600380602002604051908101604052809291908260038015610c9a576020028201915b815481526020019060010190808311610c86575b50505050509050919050565b60cd602052806000526040600020600091509050806000015490806009018054610ccf90613989565b80601f0160208091040260200160405190810160405280929190818152602001828054610cfb90613989565b8015610d485780601f10610d1d57610100808354040283529160200191610d48565b820191906000526020600020905b815481529060010190602001808311610d2b57829003601f168201915b5050505050905082565b610d5a611615565b73ffffffffffffffffffffffffffffffffffffffff16610d78610dda565b73ffffffffffffffffffffffffffffffffffffffff1614610dce576040517f08c379a0000000000000000000000000000000000000000000000000000000008152600401610dc590613b04565b60405180910390fd5b610dd86000611af2565b565b6000609760009054906101000a900473ffffffffffffffffffffffffffffffffffffffff16905090565b610e16610e0f611615565b8383611bb8565b5050565b60cc60009054906101000a900473ffffffffffffffffffffffffffffffffffffffff1681565b610e48612901565b60005b6005811015610fd25760cd6000600183610e6591906142df565b81526020019081526020016000206040518060800160405290816000820154815260200160018201600580602002604051908101604052809291908260058015610ec4576020028201915b815481526020019060010190808311610eb0575b5050505050815260200160068201600380602002604051908101604052809291908260038015610f09576020028201915b815481526020019060010190808311610ef5575b50505050508152602001600982018054610f2290613989565b80601f0160208091040260200160405190810160405280929190818152602001828054610f4e90613989565b8015610f9b5780601f10610f7057610100808354040283529160200191610f9b565b820191906000526020600020905b815481529060010190602001808311610f7e57829003601f168201915b505050505081525050828260058110610fb757610fb6613bb6565b5b60200201819052508080610fca90613c14565b915050610e4b565b5090565b610fde61292e565b60cd600083815260200190815260200160002060010160058060200260405190810160405280929190826005801561102b576020028201915b815481526020019060010190808311611017575b50505050509050919050565b6000606660008473ffffffffffffffffffffffffffffffffffffffff1673ffffffffffffffffffffffffffffffffffffffff16815260200190815260200160002060008373ffffffffffffffffffffffffffffffffffffffff1673ffffffffffffffffffffffffffffffffffffffff16815260200190815260200160002060009054906101000a900460ff16905092915050565b6110d3611615565b73ffffffffffffffffffffffffffffffffffffffff168573ffffffffffffffffffffffffffffffffffffffff161480611119575061111885611113611615565b611037565b5b611158576040517f08c379a000000000000000000000000000000000000000000000000000000000815260040161114f906143a7565b60405180910390fd5b6111658585858585611d24565b5050505050565b611174611615565b73ffffffffffffffffffffffffffffffffffffffff16611192610dda565b73ffffffffffffffffffffffffffffffffffffffff16146111e8576040517f08c379a00000000000000000000000000000000000000000000000000000000081526004016111df90613b04565b60405180910390fd5b600073ffffffffffffffffffffffffffffffffffffffff168173ffffffffffffffffffffffffffffffffffffffff1603611257576040517f08c379a000000000000000000000000000000000000000000000000000000000815260040161124e90614439565b60405180910390fd5b61126081611af2565b50565b60c960009054906101000a900473ffffffffffffffffffffffffffffffffffffffff1673ffffffffffffffffffffffffffffffffffffffff163373ffffffffffffffffffffffffffffffffffffffff16146112f3576040517f08c379a00000000000000000000000000000000000000000000000000000000081526004016112ea90613a98565b60405180910390fd5b6112fe838383611fc2565b505050565b60c960009054906101000a900473ffffffffffffffffffffffffffffffffffffffff1681565b6000611335600161220a565b90508015611359576001600060016101000a81548160ff0219169083151502179055505b611371604051806020016040528060008152506122fa565b611379612355565b8460c960006101000a81548173ffffffffffffffffffffffffffffffffffffffff021916908373ffffffffffffffffffffffffffffffffffffffff1602179055508360ca60006101000a81548173ffffffffffffffffffffffffffffffffffffffff021916908373ffffffffffffffffffffffffffffffffffffffff1602179055508260cb60006101000a81548173ffffffffffffffffffffffffffffffffffffffff021916908373ffffffffffffffffffffffffffffffffffffffff1602179055508160cc60006101000a81548173ffffffffffffffffffffffffffffffffffffffff021916908373ffffffffffffffffffffffffffffffffffffffff16021790555080156114d65760008060016101000a81548160ff0219169083151502179055507f7f26b83ff96e1f2b6a682f133852f6798a09c465da95921460cefb384740249860016040516114cd91906144a1565b60405180910390a15b5050505050565b606060cd6000838152602001908152602001600020600901805461150090613989565b80601f016020809104026020016040519081016040528092919081815260200182805461152c90613989565b80156115795780601f1061154e57610100808354040283529160200191611579565b820191906000526020600020905b81548152906001019060200180831161155c57829003601f168201915b50505050509050919050565b60ca60009054906101000a900473ffffffffffffffffffffffffffffffffffffffff1681565b60007f01ffc9a7000000000000000000000000000000000000000000000000000000007bffffffffffffffffffffffffffffffffffffffffffffffffffffffff1916827bffffffffffffffffffffffffffffffffffffffffffffffffffffffff1916149050919050565b600033905090565b8151835114611661576040517f08c379a00000000000000000000000000000000000000000000000000000000081526004016116589061452e565b60405180910390fd5b600073ffffffffffffffffffffffffffffffffffffffff168473ffffffffffffffffffffffffffffffffffffffff16036116d0576040517f08c379a00000000000000000000000000000000000000000000000000000000081526004016116c7906145c0565b60405180910390fd5b60006116da611615565b90506116ea8187878787876123ae565b60005b845181101561189e57600085828151811061170b5761170a613bb6565b5b60200260200101519050600085838151811061172a57611729613bb6565b5b6020026020010151905060006065600084815260200190815260200160002060008b73ffffffffffffffffffffffffffffffffffffffff1673ffffffffffffffffffffffffffffffffffffffff168152602001908152602001600020549050818110156117cc576040517f08c379a00000000000000000000000000000000000000000000000000000000081526004016117c390614652565b60405180910390fd5b8181036065600085815260200190815260200160002060008c73ffffffffffffffffffffffffffffffffffffffff1673ffffffffffffffffffffffffffffffffffffffff16815260200190815260200160002081905550816065600085815260200190815260200160002060008b73ffffffffffffffffffffffffffffffffffffffff1673ffffffffffffffffffffffffffffffffffffffff168152602001908152602001600020600082825461188391906142df565b925050819055505050508061189790613c14565b90506116ed565b508473ffffffffffffffffffffffffffffffffffffffff168673ffffffffffffffffffffffffffffffffffffffff168273ffffffffffffffffffffffffffffffffffffffff167f4a39dc06d4c0dbc64b70af90fd698a233a518aa5d07e595d983b8c0526c8f7fb8787604051611915929190614672565b60405180910390a461192b8187878787876123b6565b6119398187878787876123be565b505050505050565b600073ffffffffffffffffffffffffffffffffffffffff168473ffffffffffffffffffffffffffffffffffffffff16036119b0576040517f08c379a00000000000000000000000000000000000000000000000000000000081526004016119a79061471b565b60405180910390fd5b60006119ba611615565b905060006119c785612595565b905060006119d485612595565b90506119e5836000898585896123ae565b846065600088815260200190815260200160002060008973ffffffffffffffffffffffffffffffffffffffff1673ffffffffffffffffffffffffffffffffffffffff1681526020019081526020016000206000828254611a4591906142df565b925050819055508673ffffffffffffffffffffffffffffffffffffffff16600073ffffffffffffffffffffffffffffffffffffffff168473ffffffffffffffffffffffffffffffffffffffff167fc3d58168c5ae7397731d063d5bbf3d657854427343f4c083240f7aacaa2d0f628989604051611ac392919061473b565b60405180910390a4611ada836000898585896123b6565b611ae98360008989898961260f565b50505050505050565b6000609760009054906101000a900473ffffffffffffffffffffffffffffffffffffffff16905081609760006101000a81548173ffffffffffffffffffffffffffffffffffffffff021916908373ffffffffffffffffffffffffffffffffffffffff1602179055508173ffffffffffffffffffffffffffffffffffffffff168173ffffffffffffffffffffffffffffffffffffffff167f8be0079c531659141344cd1fd0a4f28419497f9722a3daafe3b4186f6b6457e060405160405180910390a35050565b8173ffffffffffffffffffffffffffffffffffffffff168373ffffffffffffffffffffffffffffffffffffffff1603611c26576040517f08c379a0000000000000000000000000000000000000000000000000000000008152600401611c1d906147d6565b60405180910390fd5b80606660008573ffffffffffffffffffffffffffffffffffffffff1673ffffffffffffffffffffffffffffffffffffffff16815260200190815260200160002060008473ffffffffffffffffffffffffffffffffffffffff1673ffffffffffffffffffffffffffffffffffffffff16815260200190815260200160002060006101000a81548160ff0219169083151502179055508173ffffffffffffffffffffffffffffffffffffffff168373ffffffffffffffffffffffffffffffffffffffff167f17307eab39ab6107e8899845ad3d59bd9653f200f220920489ca2b5937696c3183604051611d179190612bd9565b60405180910390a3505050565b600073ffffffffffffffffffffffffffffffffffffffff168473ffffffffffffffffffffffffffffffffffffffff1603611d93576040517f08c379a0000000000000000000000000000000000000000000000000000000008152600401611d8a906145c0565b60405180910390fd5b6000611d9d611615565b90506000611daa85612595565b90506000611db785612595565b9050611dc78389898585896123ae565b60006065600088815260200190815260200160002060008a73ffffffffffffffffffffffffffffffffffffffff1673ffffffffffffffffffffffffffffffffffffffff16815260200190815260200160002054905085811015611e5f576040517f08c379a0000000000000000000000000000000000000000000000000000000008152600401611e5690614652565b60405180910390fd5b8581036065600089815260200190815260200160002060008b73ffffffffffffffffffffffffffffffffffffffff1673ffffffffffffffffffffffffffffffffffffffff16815260200190815260200160002081905550856065600089815260200190815260200160002060008a73ffffffffffffffffffffffffffffffffffffffff1673ffffffffffffffffffffffffffffffffffffffff1681526020019081526020016000206000828254611f1691906142df565b925050819055508773ffffffffffffffffffffffffffffffffffffffff168973ffffffffffffffffffffffffffffffffffffffff168573ffffffffffffffffffffffffffffffffffffffff167fc3d58168c5ae7397731d063d5bbf3d657854427343f4c083240f7aacaa2d0f628a8a604051611f9392919061473b565b60405180910390a4611fa9848a8a86868a6123b6565b611fb7848a8a8a8a8a61260f565b505050505050505050565b600073ffffffffffffffffffffffffffffffffffffffff168373ffffffffffffffffffffffffffffffffffffffff1603612031576040517f08c379a000000000000000000000000000000000000000000000000000000000815260040161202890614868565b60405180910390fd5b600061203b611615565b9050600061204884612595565b9050600061205584612595565b9050612075838760008585604051806020016040528060008152506123ae565b60006065600087815260200190815260200160002060008873ffffffffffffffffffffffffffffffffffffffff1673ffffffffffffffffffffffffffffffffffffffff1681526020019081526020016000205490508481101561210d576040517f08c379a0000000000000000000000000000000000000000000000000000000008152600401612104906148fa565b60405180910390fd5b8481036065600088815260200190815260200160002060008973ffffffffffffffffffffffffffffffffffffffff1673ffffffffffffffffffffffffffffffffffffffff16815260200190815260200160002081905550600073ffffffffffffffffffffffffffffffffffffffff168773ffffffffffffffffffffffffffffffffffffffff168573ffffffffffffffffffffffffffffffffffffffff167fc3d58168c5ae7397731d063d5bbf3d657854427343f4c083240f7aacaa2d0f6289896040516121db92919061473b565b60405180910390a4612201848860008686604051806020016040528060008152506123b6565b50505050505050565b60008060019054906101000a900460ff16156122815760018260ff161480156122395750612237306127e6565b155b612278576040517f08c379a000000000000000000000000000000000000000000000000000000000815260040161226f9061498c565b60405180910390fd5b600090506122f5565b8160ff1660008054906101000a900460ff1660ff16106122d6576040517f08c379a00000000000000000000000000000000000000000000000000000000081526004016122cd9061498c565b60405180910390fd5b816000806101000a81548160ff021916908360ff160217905550600190505b919050565b600060019054906101000a900460ff16612349576040517f08c379a000000000000000000000000000000000000000000000000000000000815260040161234090614a1e565b60405180910390fd5b61235281612809565b50565b600060019054906101000a900460ff166123a4576040517f08c379a000000000000000000000000000000000000000000000000000000000815260040161239b90614a1e565b60405180910390fd5b6123ac612864565b565b505050505050565b505050505050565b6123dd8473ffffffffffffffffffffffffffffffffffffffff166127e6565b1561258d578373ffffffffffffffffffffffffffffffffffffffff1663bc197c8187878686866040518663ffffffff1660e01b8152600401612423959493929190614a3e565b6020604051808303816000875af192505050801561245f57506040513d601f19601f8201168201806040525081019061245c9190614abb565b60015b6125045761246b614af5565b806308c379a0036124c7575061247f614b17565b8061248a57506124c9565b806040517f08c379a00000000000000000000000000000000000000000000000000000000081526004016124be9190612cba565b60405180910390fd5b505b6040517f08c379a00000000000000000000000000000000000000000000000000000000081526004016124fb90614c19565b60405180910390fd5b63bc197c8160e01b7bffffffffffffffffffffffffffffffffffffffffffffffffffffffff1916817bffffffffffffffffffffffffffffffffffffffffffffffffffffffff19161461258b576040517f08c379a000000000000000000000000000000000000000000000000000000000815260040161258290614cab565b60405180910390fd5b505b505050505050565b60606000600167ffffffffffffffff8111156125b4576125b3612d0b565b5b6040519080825280602002602001820160405280156125e25781602001602082028036833780820191505090505b50905082816000815181106125fa576125f9613bb6565b5b60200260200101818152505080915050919050565b61262e8473ffffffffffffffffffffffffffffffffffffffff166127e6565b156127de578373ffffffffffffffffffffffffffffffffffffffff1663f23a6e6187878686866040518663ffffffff1660e01b8152600401612674959493929190614ccb565b6020604051808303816000875af19250505080156126b057506040513d601f19601f820116820180604052508101906126ad9190614abb565b60015b612755576126bc614af5565b806308c379a00361271857506126d0614b17565b806126db575061271a565b806040517f08c379a000000000000000000000000000000000000000000000000000000000815260040161270f9190612cba565b60405180910390fd5b505b6040517f08c379a000000000000000000000000000000000000000000000000000000000815260040161274c90614c19565b60405180910390fd5b63f23a6e6160e01b7bffffffffffffffffffffffffffffffffffffffffffffffffffffffff1916817bffffffffffffffffffffffffffffffffffffffffffffffffffffffff1916146127dc576040517f08c379a00000000000000000000000000000000000000000000000000000000081526004016127d390614cab565b60405180910390fd5b505b505050505050565b6000808273ffffffffffffffffffffffffffffffffffffffff163b119050919050565b600060019054906101000a900460ff16612858576040517f08c379a000000000000000000000000000000000000000000000000000000000815260040161284f90614a1e565b60405180910390fd5b612861816128c5565b50565b600060019054906101000a900460ff166128b3576040517f08c379a00000000000000000000000000000000000000000000000000000000081526004016128aa90614a1e565b60405180910390fd5b6128c36128be611615565b611af2565b565b80606790805190602001906128db929190612950565b5050565b6040518060600160405280600390602082028036833780820191505090505090565b6040518060a001604052806005905b6129186129d6565b8152602001906001900390816129105790505090565b6040518060a00160405280600590602082028036833780820191505090505090565b82805461295c90613989565b90600052602060002090601f01602090048101928261297e57600085556129c5565b82601f1061299757805160ff19168380011785556129c5565b828001600101855582156129c5579182015b828111156129c45782518255916020019190600101906129a9565b5b5090506129d29190612a0a565b5090565b6040518060800160405280600081526020016129f061292e565b81526020016129fd6128df565b8152602001606081525090565b5b80821115612a23576000816000905550600101612a0b565b5090565b6000604051905090565b600080fd5b600080fd5b600073ffffffffffffffffffffffffffffffffffffffff82169050919050565b6000612a6682612a3b565b9050919050565b612a7681612a5b565b8114612a8157600080fd5b50565b600081359050612a9381612a6d565b92915050565b6000819050919050565b612aac81612a99565b8114612ab757600080fd5b50565b600081359050612ac981612aa3565b92915050565b60008060408385031215612ae657612ae5612a31565b5b6000612af485828601612a84565b9250506020612b0585828601612aba565b9150509250929050565b612b1881612a99565b82525050565b6000602082019050612b336000830184612b0f565b92915050565b60007fffffffff0000000000000000000000000000000000000000000000000000000082169050919050565b612b6e81612b39565b8114612b7957600080fd5b50565b600081359050612b8b81612b65565b92915050565b600060208284031215612ba757612ba6612a31565b5b6000612bb584828501612b7c565b91505092915050565b60008115159050919050565b612bd381612bbe565b82525050565b6000602082019050612bee6000830184612bca565b92915050565b600060208284031215612c0a57612c09612a31565b5b6000612c1884828501612aba565b91505092915050565b600081519050919050565b600082825260208201905092915050565b60005b83811015612c5b578082015181840152602081019050612c40565b83811115612c6a576000848401525b50505050565b6000601f19601f8301169050919050565b6000612c8c82612c21565b612c968185612c2c565b9350612ca6818560208601612c3d565b612caf81612c70565b840191505092915050565b60006020820190508181036000830152612cd48184612c81565b905092915050565b612ce581612a5b565b82525050565b6000602082019050612d006000830184612cdc565b92915050565b600080fd5b7f4e487b7100000000000000000000000000000000000000000000000000000000600052604160045260246000fd5b612d4382612c70565b810181811067ffffffffffffffff82111715612d6257612d61612d0b565b5b80604052505050565b6000612d75612a27565b9050612d818282612d3a565b919050565b600067ffffffffffffffff821115612da157612da0612d0b565b5b602082029050602081019050919050565b600080fd5b6000612dca612dc584612d86565b612d6b565b90508083825260208201905060208402830185811115612ded57612dec612db2565b5b835b81811015612e165780612e028882612aba565b845260208401935050602081019050612def565b5050509392505050565b600082601f830112612e3557612e34612d06565b5b8135612e45848260208601612db7565b91505092915050565b600080fd5b600067ffffffffffffffff821115612e6e57612e6d612d0b565b5b612e7782612c70565b9050602081019050919050565b82818337600083830152505050565b6000612ea6612ea184612e53565b612d6b565b905082815260208101848484011115612ec257612ec1612e4e565b5b612ecd848285612e84565b509392505050565b600082601f830112612eea57612ee9612d06565b5b8135612efa848260208601612e93565b91505092915050565b600080600080600060a08688031215612f1f57612f1e612a31565b5b6000612f2d88828901612a84565b9550506020612f3e88828901612a84565b945050604086013567ffffffffffffffff811115612f5f57612f5e612a36565b5b612f6b88828901612e20565b935050606086013567ffffffffffffffff811115612f8c57612f8b612a36565b5b612f9888828901612e20565b925050608086013567ffffffffffffffff811115612fb957612fb8612a36565b5b612fc588828901612ed5565b9150509295509295909350565b60008060008060808587031215612fec57612feb612a31565b5b6000612ffa87828801612a84565b945050602061300b87828801612a84565b935050604061301c87828801612a84565b925050606061302d87828801612a84565b91505092959194509250565b600067ffffffffffffffff82111561305457613053612d0b565b5b602082029050602081019050919050565b600061307861307384613039565b612d6b565b9050808382526020820190506020840283018581111561309b5761309a612db2565b5b835b818110156130c457806130b08882612a84565b84526020840193505060208101905061309d565b5050509392505050565b600082601f8301126130e3576130e2612d06565b5b81356130f3848260208601613065565b91505092915050565b6000806040838503121561311357613112612a31565b5b600083013567ffffffffffffffff81111561313157613130612a36565b5b61313d858286016130ce565b925050602083013567ffffffffffffffff81111561315e5761315d612a36565b5b61316a85828601612e20565b9150509250929050565b600081519050919050565b600082825260208201905092915050565b6000819050602082019050919050565b6131a981612a99565b82525050565b60006131bb83836131a0565b60208301905092915050565b6000602082019050919050565b60006131df82613174565b6131e9818561317f565b93506131f483613190565b8060005b8381101561322557815161320c88826131af565b9750613217836131c7565b9250506001810190506131f8565b5085935050505092915050565b6000602082019050818103600083015261324c81846131d4565b905092915050565b600080fd5b600061014082840312156132705761326f613254565b5b81905092915050565b600080604083850312156132905761328f612a31565b5b600061329e85828601612aba565b925050602083013567ffffffffffffffff8111156132bf576132be612a36565b5b6132cb85828601613259565b9150509250929050565b600060039050919050565b600081905092915050565b6000819050919050565b6000602082019050919050565b61330b816132d5565b61331581846132e0565b9250613320826132eb565b8060005b8381101561335157815161333887826131af565b9650613343836132f5565b925050600181019050613324565b505050505050565b600060608201905061336e6000830184613302565b92915050565b60006040820190506133896000830185612b0f565b818103602083015261339b8184612c81565b90509392505050565b6133ad81612bbe565b81146133b857600080fd5b50565b6000813590506133ca816133a4565b92915050565b600080604083850312156133e7576133e6612a31565b5b60006133f585828601612a84565b9250506020613406858286016133bb565b9150509250929050565b600060059050919050565b600081905092915050565b6000819050919050565b600060059050919050565b600081905092915050565b6000819050919050565b6000602082019050919050565b61346681613430565b613470818461343b565b925061347b82613446565b8060005b838110156134ac57815161349387826131af565b965061349e83613450565b92505060018101905061347f565b505050505050565b600081905092915050565b6134c8816132d5565b6134d281846134b4565b92506134dd826132eb565b8060005b8381101561350e5781516134f587826131af565b9650613500836132f5565b9250506001810190506134e1565b505050505050565b600082825260208201905092915050565b600061353282612c21565b61353c8185613516565b935061354c818560208601612c3d565b61355581612c70565b840191505092915050565b60006101408301600083015161357960008601826131a0565b50602083015161358c602086018261345d565b50604083015161359f60c08601826134bf565b5060608301518482036101208601526135b88282613527565b9150508091505092915050565b60006135d18383613560565b905092915050565b6000602082019050919050565b60006135f182613410565b6135fb818561341b565b93508360208202850161360d85613426565b8060005b85811015613649578484038952815161362a85826135c5565b9450613635836135d9565b925060208a01995050600181019050613611565b50829750879550505050505092915050565b6000602082019050818103600083015261367581846135e6565b905092915050565b600081905092915050565b61369181613430565b61369b818461367d565b92506136a682613446565b8060005b838110156136d75781516136be87826131af565b96506136c983613450565b9250506001810190506136aa565b505050505050565b600060a0820190506136f46000830184613688565b92915050565b6000806040838503121561371157613710612a31565b5b600061371f85828601612a84565b925050602061373085828601612a84565b9150509250929050565b600080600080600060a0868803121561375657613755612a31565b5b600061376488828901612a84565b955050602061377588828901612a84565b945050604061378688828901612aba565b935050606061379788828901612aba565b925050608086013567ffffffffffffffff8111156137b8576137b7612a36565b5b6137c488828901612ed5565b9150509295509295909350565b6000602082840312156137e7576137e6612a31565b5b60006137f584828501612a84565b91505092915050565b60008060006060848603121561381757613816612a31565b5b600061382586828701612a84565b935050602061383686828701612aba565b925050604061384786828701612aba565b9150509250925092565b600081519050919050565b600082825260208201905092915050565b600061387882613851565b613882818561385c565b9350613892818560208601612c3d565b61389b81612c70565b840191505092915050565b600060208201905081810360008301526138c0818461386d565b905092915050565b7f455243313135353a2062616c616e636520717565727920666f7220746865207a60008201527f65726f2061646472657373000000000000000000000000000000000000000000602082015250565b6000613924602b83612c2c565b915061392f826138c8565b604082019050919050565b6000602082019050818103600083015261395381613917565b9050919050565b7f4e487b7100000000000000000000000000000000000000000000000000000000600052602260045260246000fd5b600060028204905060018216806139a157607f821691505b6020821081036139b4576139b361395a565b5b50919050565b7f455243313135353a207472616e736665722063616c6c6572206973206e6f742060008201527f6f776e6572206e6f7220617070726f7665640000000000000000000000000000602082015250565b6000613a16603283612c2c565b9150613a21826139ba565b604082019050919050565b60006020820190508181036000830152613a4581613a09565b9050919050565b7f4d616769615370656c6c733a2072657374726963746564000000000000000000600082015250565b6000613a82601783612c2c565b9150613a8d82613a4c565b602082019050919050565b60006020820190508181036000830152613ab181613a75565b9050919050565b7f4f776e61626c653a2063616c6c6572206973206e6f7420746865206f776e6572600082015250565b6000613aee602083612c2c565b9150613af982613ab8565b602082019050919050565b60006020820190508181036000830152613b1d81613ae1565b9050919050565b7f455243313135353a206163636f756e747320616e6420696473206c656e67746860008201527f206d69736d617463680000000000000000000000000000000000000000000000602082015250565b6000613b80602983612c2c565b9150613b8b82613b24565b604082019050919050565b60006020820190508181036000830152613baf81613b73565b9050919050565b7f4e487b7100000000000000000000000000000000000000000000000000000000600052603260045260246000fd5b7f4e487b7100000000000000000000000000000000000000000000000000000000600052601160045260246000fd5b6000613c1f82612a99565b91507fffffffffffffffffffffffffffffffffffffffffffffffffffffffffffffffff8203613c5157613c50613be5565b5b600182019050919050565b60008135613c6981612aa3565b80915050919050565b60008160001b9050919050565b60007fffffffffffffffffffffffffffffffffffffffffffffffffffffffffffffffff613cab84613c72565b9350801983169250808416831791505092915050565b6000819050919050565b6000613ce6613ce1613cdc84612a99565b613cc1565b612a99565b9050919050565b6000819050919050565b613d0082613ccb565b613d13613d0c82613ced565b8354613c7f565b8255505050565b6000819050919050565b600060059050919050565b60008190506001806001038301049050919050565b6000819050919050565b600082821b905092915050565b600060088302613d8b7fffffffffffffffffffffffffffffffffffffffffffffffffffffffffffffffff82613d4e565b613d958683613d4e565b95508019841693508086168417925050509392505050565b613db683613ccb565b613dca613dc282613ced565b848454613d5b565b825550505050565b600090565b613ddf613dd2565b613dea818484613dad565b505050565b5b81811015613e0e57613e03600082613dd7565b600181019050613df0565b5050565b600082821c905092915050565b81831015613e5857613e3082613d2f565b613e3984613d2f565b613e4283613d44565b818101838201613e528183613def565b50505050505b505050565b68010000000000000000821115613e7757613e76612d0b565b5b613e8081613d24565b613e8b838284613e1f565b505050565b600060059050919050565b613ea482613e90565b613eae8183613e5d565b613eb783613d1a565b613ec083613d44565b6000805b84811015613efb5783613ed681613c5c565b9050613ee3818486613dad565b60208501945060018401935050600181019050613ec4565b50505050505050565b613f0e8282613e9b565b5050565b6000819050919050565b600060039050919050565b60008190506001806001038301049050919050565b6000819050919050565b81831015613f7f57613f5782613f27565b613f6084613f27565b613f6983613f3c565b818101838201613f798183613def565b50505050505b505050565b68010000000000000000821115613f9e57613f9d612d0b565b5b613fa781613f1c565b613fb2838284613f46565b505050565b600060039050919050565b613fcb82613fb7565b613fd58183613f84565b613fde83613f12565b613fe783613f3c565b6000805b848110156140225783613ffd81613c5c565b905061400a818486613dad565b60208501945060018401935050600181019050613feb565b50505050505050565b6140358282613fc2565b5050565b600080fd5b600080fd5b600080fd5b6000808335600160200384360303811261406557614064614039565b5b80840192508235915067ffffffffffffffff8211156140875761408661403e565b5b6020830192506001820236038313156140a3576140a2614043565b5b509250929050565b600082905092915050565b60008190508160005260206000209050919050565b60006020601f8301049050919050565b5b818110156140fa576140ef600082613dd7565b6001810190506140dc565b5050565b601f82111561413f57614110816140b6565b614119846140cb565b81016020851015614128578190505b61413c614134856140cb565b8301826140db565b50505b505050565b600061415560001984600802613e12565b1980831691505092915050565b600061416e8383614144565b9150826002028217905092915050565b61418883836140ab565b67ffffffffffffffff8111156141a1576141a0612d0b565b5b6141ab8254613989565b6141b68282856140fe565b6000601f8311600181146141e557600084156141d3578287013590505b6141dd8582614162565b865550614245565b601f1984166141f3866140b6565b60005b8281101561421b578489013582556001820191506020850194506020810190506141f6565b868310156142385784890135614234601f891682614144565b8355505b6001600288020188555050505b50505050505050565b61425983838361417e565b505050565b60008101600083018061427081613c5c565b905061427c8184613cf7565b5050506001810160208301806142928184613f04565b5050506006810160c08301806142a8818461402b565b5050506009810161012083016142be8185614048565b6142c981838661424e565b505050505050565b6142db828261425e565b5050565b60006142ea82612a99565b91506142f583612a99565b9250827fffffffffffffffffffffffffffffffffffffffffffffffffffffffffffffffff0382111561432a57614329613be5565b5b828201905092915050565b7f455243313135353a2063616c6c6572206973206e6f74206f776e6572206e6f7260008201527f20617070726f7665640000000000000000000000000000000000000000000000602082015250565b6000614391602983612c2c565b915061439c82614335565b604082019050919050565b600060208201905081810360008301526143c081614384565b9050919050565b7f4f776e61626c653a206e6577206f776e657220697320746865207a65726f206160008201527f6464726573730000000000000000000000000000000000000000000000000000602082015250565b6000614423602683612c2c565b915061442e826143c7565b604082019050919050565b6000602082019050818103600083015261445281614416565b9050919050565b6000819050919050565b600060ff82169050919050565b600061448b61448661448184614459565b613cc1565b614463565b9050919050565b61449b81614470565b82525050565b60006020820190506144b66000830184614492565b92915050565b7f455243313135353a2069647320616e6420616d6f756e7473206c656e6774682060008201527f6d69736d61746368000000000000000000000000000000000000000000000000602082015250565b6000614518602883612c2c565b9150614523826144bc565b604082019050919050565b600060208201905081810360008301526145478161450b565b9050919050565b7f455243313135353a207472616e7366657220746f20746865207a65726f20616460008201527f6472657373000000000000000000000000000000000000000000000000000000602082015250565b60006145aa602583612c2c565b91506145b58261454e565b604082019050919050565b600060208201905081810360008301526145d98161459d565b9050919050565b7f455243313135353a20696e73756666696369656e742062616c616e636520666f60008201527f72207472616e7366657200000000000000000000000000000000000000000000602082015250565b600061463c602a83612c2c565b9150614647826145e0565b604082019050919050565b6000602082019050818103600083015261466b8161462f565b9050919050565b6000604082019050818103600083015261468c81856131d4565b905081810360208301526146a081846131d4565b90509392505050565b7f455243313135353a206d696e7420746f20746865207a65726f2061646472657360008201527f7300000000000000000000000000000000000000000000000000000000000000602082015250565b6000614705602183612c2c565b9150614710826146a9565b604082019050919050565b60006020820190508181036000830152614734816146f8565b9050919050565b60006040820190506147506000830185612b0f565b61475d6020830184612b0f565b9392505050565b7f455243313135353a2073657474696e6720617070726f76616c2073746174757360008201527f20666f722073656c660000000000000000000000000000000000000000000000602082015250565b60006147c0602983612c2c565b91506147cb82614764565b604082019050919050565b600060208201905081810360008301526147ef816147b3565b9050919050565b7f455243313135353a206275726e2066726f6d20746865207a65726f206164647260008201527f6573730000000000000000000000000000000000000000000000000000000000602082015250565b6000614852602383612c2c565b915061485d826147f6565b604082019050919050565b6000602082019050818103600083015261488181614845565b9050919050565b7f455243313135353a206275726e20616d6f756e7420657863656564732062616c60008201527f616e636500000000000000000000000000000000000000000000000000000000602082015250565b60006148e4602483612c2c565b91506148ef82614888565b604082019050919050565b60006020820190508181036000830152614913816148d7565b9050919050565b7f496e697469616c697a61626c653a20636f6e747261637420697320616c72656160008201527f647920696e697469616c697a6564000000000000000000000000000000000000602082015250565b6000614976602e83612c2c565b91506149818261491a565b604082019050919050565b600060208201905081810360008301526149a581614969565b9050919050565b7f496e697469616c697a61626c653a20636f6e7472616374206973206e6f74206960008201527f6e697469616c697a696e67000000000000000000000000000000000000000000602082015250565b6000614a08602b83612c2c565b9150614a13826149ac565b604082019050919050565b60006020820190508181036000830152614a37816149fb565b9050919050565b600060a082019050614a536000830188612cdc565b614a606020830187612cdc565b8181036040830152614a7281866131d4565b90508181036060830152614a8681856131d4565b90508181036080830152614a9a818461386d565b90509695505050505050565b600081519050614ab581612b65565b92915050565b600060208284031215614ad157614ad0612a31565b5b6000614adf84828501614aa6565b91505092915050565b60008160e01c9050919050565b600060033d1115614b145760046000803e614b11600051614ae8565b90505b90565b600060443d10614ba457614b29612a27565b60043d036004823e80513d602482011167ffffffffffffffff82111715614b51575050614ba4565b808201805167ffffffffffffffff811115614b6f5750505050614ba4565b80602083010160043d038501811115614b8c575050505050614ba4565b614b9b82602001850186612d3a565b82955050505050505b90565b7f455243313135353a207472616e7366657220746f206e6f6e204552433131353560008201527f526563656976657220696d706c656d656e746572000000000000000000000000602082015250565b6000614c03603483612c2c565b9150614c0e82614ba7565b604082019050919050565b60006020820190508181036000830152614c3281614bf6565b9050919050565b7f455243313135353a204552433131353552656365697665722072656a6563746560008201527f6420746f6b656e73000000000000000000000000000000000000000000000000602082015250565b6000614c95602883612c2c565b9150614ca082614c39565b604082019050919050565b60006020820190508181036000830152614cc481614c88565b9050919050565b600060a082019050614ce06000830188612cdc565b614ced6020830187612cdc565b614cfa6040830186612b0f565b614d076060830185612b0f565b8181036080830152614d19818461386d565b9050969550505050505056fea26469706673582212208ddb50521b44501304c47cc89cad57eea9f052e0fa460870319feea41fd9b65564736f6c634300080d0033",
  "linkReferences": {},
  "deployedLinkReferences": {}
}